{
  "contractName": "HEALFaaSToken",
  "abi": [
    {
      "inputs": [
        {
          "internalType": "string",
          "name": "_name",
          "type": "string"
        },
        {
          "internalType": "string",
          "name": "_symbol",
          "type": "string"
        },
        {
          "internalType": "uint256",
          "name": "_rewardSupply",
          "type": "uint256"
        },
        {
          "internalType": "address",
          "name": "_rewardsTokenAddy",
          "type": "address"
        },
        {
          "internalType": "address",
          "name": "_stakedTokenAddy",
          "type": "address"
        },
        {
          "internalType": "address",
          "name": "_originalTokenOwner",
          "type": "address"
        },
        {
          "internalType": "uint256",
          "name": "_perBlockAmount",
          "type": "uint256"
        },
        {
          "internalType": "uint256",
          "name": "_lockedUntilDate",
          "type": "uint256"
        },
        {
          "internalType": "uint256",
          "name": "_stakeTimeLockSec",
          "type": "uint256"
        },
        {
          "internalType": "bool",
          "name": "_isStakedNft",
          "type": "bool"
        }
      ],
      "stateMutability": "nonpayable",
      "type": "constructor"
    },
    {
      "anonymous": false,
      "inputs": [
        {
          "indexed": true,
          "internalType": "address",
          "name": "owner",
          "type": "address"
        },
        {
          "indexed": true,
          "internalType": "address",
          "name": "spender",
          "type": "address"
        },
        {
          "indexed": false,
          "internalType": "uint256",
          "name": "value",
          "type": "uint256"
        }
      ],
      "name": "Approval",
      "type": "event"
    },
    {
      "anonymous": false,
      "inputs": [
        {
          "indexed": true,
          "internalType": "address",
          "name": "user",
          "type": "address"
        },
        {
          "indexed": false,
          "internalType": "uint256",
          "name": "amount",
          "type": "uint256"
        }
      ],
      "name": "Deposit",
      "type": "event"
    },
    {
      "anonymous": false,
      "inputs": [
        {
          "indexed": true,
          "internalType": "address",
          "name": "from",
          "type": "address"
        },
        {
          "indexed": true,
          "internalType": "address",
          "name": "to",
          "type": "address"
        },
        {
          "indexed": false,
          "internalType": "uint256",
          "name": "value",
          "type": "uint256"
        }
      ],
      "name": "Transfer",
      "type": "event"
    },
    {
      "anonymous": false,
      "inputs": [
        {
          "indexed": true,
          "internalType": "address",
          "name": "user",
          "type": "address"
        },
        {
          "indexed": false,
          "internalType": "uint256",
          "name": "amount",
          "type": "uint256"
        }
      ],
      "name": "Withdraw",
      "type": "event"
    },
    {
      "inputs": [
        {
          "internalType": "address",
          "name": "owner",
          "type": "address"
        },
        {
          "internalType": "address",
          "name": "spender",
          "type": "address"
        }
      ],
      "name": "allowance",
      "outputs": [
        {
          "internalType": "uint256",
          "name": "",
          "type": "uint256"
        }
      ],
      "stateMutability": "view",
      "type": "function"
    },
    {
      "inputs": [
        {
          "internalType": "address",
          "name": "spender",
          "type": "address"
        },
        {
          "internalType": "uint256",
          "name": "amount",
          "type": "uint256"
        }
      ],
      "name": "approve",
      "outputs": [
        {
          "internalType": "bool",
          "name": "",
          "type": "bool"
        }
      ],
      "stateMutability": "nonpayable",
      "type": "function"
    },
    {
      "inputs": [
        {
          "internalType": "address",
          "name": "account",
          "type": "address"
        }
      ],
      "name": "balanceOf",
      "outputs": [
        {
          "internalType": "uint256",
          "name": "",
          "type": "uint256"
        }
      ],
      "stateMutability": "view",
      "type": "function"
    },
    {
      "inputs": [],
      "name": "contractIsRemoved",
      "outputs": [
        {
          "internalType": "bool",
          "name": "",
          "type": "bool"
        }
      ],
      "stateMutability": "view",
      "type": "function"
    },
    {
      "inputs": [],
      "name": "decimals",
      "outputs": [
        {
          "internalType": "uint8",
          "name": "",
          "type": "uint8"
        }
      ],
      "stateMutability": "view",
      "type": "function"
    },
    {
      "inputs": [
        {
          "internalType": "address",
          "name": "spender",
          "type": "address"
        },
        {
          "internalType": "uint256",
          "name": "subtractedValue",
          "type": "uint256"
        }
      ],
      "name": "decreaseAllowance",
      "outputs": [
        {
          "internalType": "bool",
          "name": "",
          "type": "bool"
        }
      ],
      "stateMutability": "nonpayable",
      "type": "function"
    },
    {
      "inputs": [
        {
          "internalType": "address",
          "name": "spender",
          "type": "address"
        },
        {
          "internalType": "uint256",
          "name": "addedValue",
          "type": "uint256"
        }
      ],
      "name": "increaseAllowance",
      "outputs": [
        {
          "internalType": "bool",
          "name": "",
          "type": "bool"
        }
      ],
      "stateMutability": "nonpayable",
      "type": "function"
    },
    {
      "inputs": [],
      "name": "name",
      "outputs": [
        {
          "internalType": "string",
          "name": "",
          "type": "string"
        }
      ],
      "stateMutability": "view",
      "type": "function"
    },
    {
      "inputs": [],
      "name": "pool",
      "outputs": [
        {
          "internalType": "address",
          "name": "creator",
          "type": "address"
        },
        {
          "internalType": "address",
          "name": "tokenOwner",
          "type": "address"
        },
        {
          "internalType": "uint256",
          "name": "origTotSupply",
          "type": "uint256"
        },
        {
          "internalType": "uint256",
          "name": "curRewardsSupply",
          "type": "uint256"
        },
        {
          "internalType": "uint256",
          "name": "totalTokensStaked",
          "type": "uint256"
        },
        {
          "internalType": "uint256",
          "name": "creationBlock",
          "type": "uint256"
        },
        {
          "internalType": "uint256",
          "name": "perBlockNum",
          "type": "uint256"
        },
        {
          "internalType": "uint256",
          "name": "lockedUntilDate",
          "type": "uint256"
        },
        {
          "internalType": "uint256",
          "name": "lastRewardBlock",
          "type": "uint256"
        },
        {
          "internalType": "uint256",
          "name": "accERC20PerShare",
          "type": "uint256"
        },
        {
          "internalType": "uint256",
          "name": "stakeTimeLockSec",
          "type": "uint256"
        },
        {
          "internalType": "bool",
          "name": "isStakedNft",
          "type": "bool"
        }
      ],
      "stateMutability": "view",
      "type": "function"
    },
    {
      "inputs": [
        {
          "internalType": "address",
          "name": "",
          "type": "address"
        }
      ],
      "name": "stakers",
      "outputs": [
        {
          "internalType": "uint256",
          "name": "amountStaked",
          "type": "uint256"
        },
        {
          "internalType": "uint256",
          "name": "blockOriginallyStaked",
          "type": "uint256"
        },
        {
          "internalType": "uint256",
          "name": "timeOriginallyStaked",
          "type": "uint256"
        },
        {
          "internalType": "uint256",
          "name": "blockLastHarvested",
          "type": "uint256"
        },
        {
          "internalType": "uint256",
          "name": "rewardDebt",
          "type": "uint256"
        }
      ],
      "stateMutability": "view",
      "type": "function"
    },
    {
      "inputs": [],
      "name": "symbol",
      "outputs": [
        {
          "internalType": "string",
          "name": "",
          "type": "string"
        }
      ],
      "stateMutability": "view",
      "type": "function"
    },
    {
      "inputs": [],
      "name": "totalSupply",
      "outputs": [
        {
          "internalType": "uint256",
          "name": "",
          "type": "uint256"
        }
      ],
      "stateMutability": "view",
      "type": "function"
    },
    {
      "inputs": [
        {
          "internalType": "address",
          "name": "to",
          "type": "address"
        },
        {
          "internalType": "uint256",
          "name": "amount",
          "type": "uint256"
        }
      ],
      "name": "transfer",
      "outputs": [
        {
          "internalType": "bool",
          "name": "",
          "type": "bool"
        }
      ],
      "stateMutability": "nonpayable",
      "type": "function"
    },
    {
      "inputs": [
        {
          "internalType": "address",
          "name": "from",
          "type": "address"
        },
        {
          "internalType": "address",
          "name": "to",
          "type": "address"
        },
        {
          "internalType": "uint256",
          "name": "amount",
          "type": "uint256"
        }
      ],
      "name": "transferFrom",
      "outputs": [
        {
          "internalType": "bool",
          "name": "",
          "type": "bool"
        }
      ],
      "stateMutability": "nonpayable",
      "type": "function"
    },
    {
      "inputs": [
        {
          "internalType": "uint256",
          "name": "_newSupply",
          "type": "uint256"
        }
      ],
      "name": "updateSupply",
      "outputs": [],
      "stateMutability": "nonpayable",
      "type": "function"
    },
    {
      "inputs": [],
      "name": "stakedTokenAddress",
      "outputs": [
        {
          "internalType": "address",
          "name": "",
          "type": "address"
        }
      ],
      "stateMutability": "view",
      "type": "function"
    },
    {
      "inputs": [],
      "name": "rewardsTokenAddress",
      "outputs": [
        {
          "internalType": "address",
          "name": "",
          "type": "address"
        }
      ],
      "stateMutability": "view",
      "type": "function"
    },
    {
      "inputs": [],
      "name": "tokenOwner",
      "outputs": [
        {
          "internalType": "address",
          "name": "",
          "type": "address"
        }
      ],
      "stateMutability": "view",
      "type": "function"
    },
    {
      "inputs": [],
      "name": "getLockedUntilDate",
      "outputs": [
        {
          "internalType": "uint256",
          "name": "",
          "type": "uint256"
        }
      ],
      "stateMutability": "view",
      "type": "function"
    },
    {
      "inputs": [],
      "name": "removeStakeableTokens",
      "outputs": [],
      "stateMutability": "nonpayable",
      "type": "function"
    },
    {
      "inputs": [
        {
          "internalType": "uint256",
          "name": "_amount",
          "type": "uint256"
        },
        {
          "internalType": "uint256[]",
          "name": "_tokenIds",
          "type": "uint256[]"
        }
      ],
      "name": "stakeTokens",
      "outputs": [],
      "stateMutability": "nonpayable",
      "type": "function"
    },
    {
      "inputs": [
        {
          "internalType": "uint256",
          "name": "_amount",
          "type": "uint256"
        },
        {
          "internalType": "bool",
          "name": "_shouldHarvest",
          "type": "bool"
        }
      ],
      "name": "unstakeTokens",
      "outputs": [],
      "stateMutability": "nonpayable",
      "type": "function"
    },
    {
      "inputs": [],
      "name": "emergencyUnstake",
      "outputs": [],
      "stateMutability": "nonpayable",
      "type": "function"
    },
    {
      "inputs": [
        {
          "internalType": "address",
          "name": "_userAddy",
          "type": "address"
        },
        {
          "internalType": "bool",
          "name": "_autoCompound",
          "type": "bool"
        }
      ],
      "name": "harvestForUser",
      "outputs": [
        {
          "internalType": "uint256",
          "name": "",
          "type": "uint256"
        }
      ],
      "stateMutability": "nonpayable",
      "type": "function"
    },
    {
      "inputs": [],
      "name": "getLastStakableBlock",
      "outputs": [
        {
          "internalType": "uint256",
          "name": "",
          "type": "uint256"
        }
      ],
      "stateMutability": "view",
      "type": "function"
    },
    {
      "inputs": [
        {
          "internalType": "address",
          "name": "_userAddy",
          "type": "address"
        }
      ],
      "name": "calcHarvestTot",
      "outputs": [
        {
          "internalType": "uint256",
          "name": "",
          "type": "uint256"
        }
      ],
      "stateMutability": "view",
      "type": "function"
    }
  ],
  "bytecode": "0x60806040526005805460ff191690553480156200001b57600080fd5b50604051620028ff380380620028ff8339810160408190526200003e9162000429565b89518a908a9062000057906003906020850190620002a2565b5080516200006d906004906020840190620002a2565b505050600084118015620000815750878411155b620000f95760405162461bcd60e51b815260206004820152603960248201527f70657220626c6f636b20616d6f756e74206d757374206265206d6f726520746860448201527f616e203020616e64206c657373207468616e20737570706c790000000000000060648201526084015b60405180910390fd5b4283118062000106575082155b6200015f5760405162461bcd60e51b815260206004820152602260248201527f6c6f636b65642074696d65206d757374206265206166746572206e6f77206f72604482015261020360f41b6064820152608401620000f0565b60058054610100600160a81b0319166101006001600160a01b038a16021790558015620001a757600780546001600160a01b0319166001600160a01b038816179055620001c3565b600680546001600160a01b0319166001600160a01b0388161790555b6040805161018081018252338082526001600160a01b0397909716602082018190529181018a9052606081018a905260006080820181905260a0820181905260c0820187905260e0820186905243610100830181905261012083018290526101408301869052931515610160909201829052600880546001600160a01b0319908116909917905560098054909816909217909655600a899055600b98909855600c889055600d889055600e93909355600f9190915560109190915560119490945560129390935550506013805460ff1916909117905550620005569050565b828054620002b09062000503565b90600052602060002090601f016020900481019282620002d457600085556200031f565b82601f10620002ef57805160ff19168380011785556200031f565b828001600101855582156200031f579182015b828111156200031f57825182559160200191906001019062000302565b506200032d92915062000331565b5090565b5b808211156200032d576000815560010162000332565b80516001600160a01b03811681146200036057600080fd5b919050565b805180151581146200036057600080fd5b600082601f83011262000387578081fd5b81516001600160401b0380821115620003a457620003a462000540565b604051601f8301601f19908116603f01168101908282118183101715620003cf57620003cf62000540565b81604052838152602092508683858801011115620003eb578485fd5b8491505b838210156200040e5785820183015181830184015290820190620003ef565b838211156200041f57848385830101525b9695505050505050565b6000806000806000806000806000806101408b8d03121562000449578586fd5b8a516001600160401b038082111562000460578788fd5b6200046e8e838f0162000376565b9b5060208d015191508082111562000484578788fd5b50620004938d828e0162000376565b99505060408b01519750620004ab60608c0162000348565b9650620004bb60808c0162000348565b9550620004cb60a08c0162000348565b945060c08b0151935060e08b015192506101008b01519150620004f26101208c0162000365565b90509295989b9194979a5092959850565b600181811c908216806200051857607f821691505b602082108114156200053a57634e487b7160e01b600052602260045260246000fd5b50919050565b634e487b7160e01b600052604160045260246000fd5b61239980620005666000396000f3fe608060405234801561001057600080fd5b506004361061018e5760003560e01c806395d89b41116100de578063cadc6c5911610097578063e85c77bb11610071578063e85c77bb14610453578063e93793f61461045b578063fd7db85414610471578063ff333a761461048457600080fd5b8063cadc6c591461040a578063dd62ed3e14610412578063e17c0f111461044b57600080fd5b806395d89b411461039757806396e231e91461039f578063a3e67610146103ac578063a457c2d7146103d1578063a9059cbb146103e4578063b7f1ef1e146103f757600080fd5b8063395093511161014b57806370a082311161012557806370a08231146102ee5780637589cf2f146103175780638bdfe9561461031f5780639168ae721461033257600080fd5b806339509351146102b35780634afcb537146102c65780636bd08049146102d957600080fd5b806306fdde0314610193578063095ea7b3146101b157806316f0115b146101d457806318160ddd1461027f57806323b872dd14610291578063313ce567146102a4575b600080fd5b61019b61048c565b6040516101a891906121c3565b60405180910390f35b6101c46101bf36600461201e565b61051e565b60405190151581526020016101a8565b600854600954600a54600b54600c54600d54600e54600f546010546011546012546013546102199b6001600160a01b039081169b169998979695949392919060ff168c565b604080516001600160a01b039d8e1681529c909b1660208d0152998b019890985260608a0196909652608089019490945260a088019290925260c087015260e08601526101008501526101208401526101408301521515610160820152610180016101a8565b6002545b6040519081526020016101a8565b6101c461029f366004611fad565b610536565b604051601281526020016101a8565b6101c46102c136600461201e565b61055a565b6102836102d4366004611f61565b610599565b6102ec6102e7366004612063565b61074a565b005b6102836102fc366004611f61565b6001600160a01b031660009081526020819052604090205490565b6102ec6107c7565b61028361032d366004611fe8565b610b1a565b61036f610340366004611f61565b601460205260009081526040902080546001820154600283015460038401546004909401549293919290919085565b604080519586526020860194909452928401919091526060830152608082015260a0016101a8565b61019b610c22565b6005546101c49060ff1681565b6009546001600160a01b03165b6040516001600160a01b0390911681526020016101a8565b6101c46103df36600461201e565b610c31565b6101c46103f236600461201e565b610cc3565b6102ec610405366004612093565b610cd1565b600f54610283565b610283610420366004611f7b565b6001600160a01b03918216600090815260016020908152604080832093909416825291909152205490565b61028361115e565b6102ec61119a565b60055461010090046001600160a01b03166103b9565b6102ec61047f36600461215f565b6112e4565b6103b961175c565b60606003805461049b906122d3565b80601f01602080910402602001604051908101604052809291908181526020018280546104c7906122d3565b80156105145780601f106104e957610100808354040283529160200191610514565b820191906000526020600020905b8154815290600101906020018083116104f757829003601f168201915b5050505050905090565b60003361052c818585611789565b5060019392505050565b6000336105448582856118ad565b61054f85858561193f565b506001949350505050565b3360008181526001602090815260408083206001600160a01b038716845290915281205490919061052c9082908690610594908790612239565b611789565b6001600160a01b0381166000908152601460209081526040808320815160c0810183528154815260018201548185015260028201548184015260038201546060820152600482015460808201526005820180548451818702810187019095528085528695929460a08601939092919083018282801561063757602002820191906000526020600020905b815481526020019060010190808311610623575b505050505081525050905043816060015110158061065757506020810151155b806106625750600c54155b156106705750600092915050565b601154601054431180156106855750600c5415155b1561070a57600061069461115e565b905060008143106106a557816106a7565b435b6010549091506000906106bb908390611b0d565b600e549091506000906106cf908390611b19565b600c54909150610703906106fc906106f6846ec097ce7bc90715b34b9f1000000000611b19565b90611b25565b8690611b31565b9450505050505b610742826080015161073c6ec097ce7bc90715b34b9f10000000006106f6858760000151611b1990919063ffffffff16565b90611b0d565b949350505050565b6008546001600160a01b031633146107bd5760405162461bcd60e51b815260206004820152602b60248201527f6f6e6c7920636f6e74726163742063726561746f722063616e2075706461746560448201526a2074686520737570706c7960a81b60648201526084015b60405180910390fd5b600a819055600b55565b336000908152601460209081526040808320815160c0810183528154815260018201548185015260028201548184015260038201546060820152600482015460808201526005820180548451818702810187019095528085529194929360a086019390929083018282801561085b57602002820191906000526020600020905b815481526020019060010190808311610847575b505050919092525050815191925050806108d55760405162461bcd60e51b815260206004820152603560248201527f757365722063616e206f6e6c7920756e7374616b6520696620746865792068616044820152741d99481d1bdad95b9cc81a5b881d1a19481c1bdbdb605a1b60648201526084016107b4565b3360009081526020819052604090205461090f9061dead905b83116108fa5782610cc3565b33600090815260208190526040902054610cc3565b5060135460ff16156109db5760005b8260a00151518110156109d55760075460a084015180516001600160a01b03909216916323b872dd9130913391908690811061096a57634e487b7160e01b600052603260045260246000fd5b60200260200101516040518463ffffffff1660e01b81526004016109909392919061219f565b600060405180830381600087803b1580156109aa57600080fd5b505af11580156109be573d6000803e3d6000fd5b5050505080806109cd9061230e565b91505061091e565b50610a7b565b60065460405163a9059cbb60e01b8152336004820152602481018390526001600160a01b039091169063a9059cbb90604401602060405180830381600087803b158015610a2757600080fd5b505af1158015610a3b573d6000803e3d6000fd5b505050506040513d601f19601f82011682018060405250810190610a5f9190612047565b610a7b5760405162461bcd60e51b81526004016107b4906121f6565b3360009081526014602052604081208181556001810182905560028101829055600381018290556004810182905590610ab76005830182611f0b565b5050610ae1816040518060400160405280600681526020016572656d6f766560d01b815250611b3d565b60405181815233907f884edad9ce6fa2440d8a54cc123490eb96d2768479d49ff9c7366125a94243649060200160405180910390a25050565b6008546000906001600160a01b0316331480610b3e5750336001600160a01b038416145b610bc25760405162461bcd60e51b815260206004820152604960248201527f63616e206f6e6c79206861727665737420746f6b656e7320666f7220736f6d6560448201527f6f6e6520656c73652069662074686973207761732074686520636f6e747261636064820152683a1031b932b0ba37b960b91b608482015260a4016107b4565b610bca611b8b565b6000610bd584611c23565b9050828015610be7575060135460ff16155b8015610c08575060065460055461010090046001600160a01b039081169116145b15610c1b576060610c198282610cd1565b505b9392505050565b60606004805461049b906122d3565b3360008181526001602090815260408083206001600160a01b038716845290915281205490919083811015610cb65760405162461bcd60e51b815260206004820152602560248201527f45524332303a2064656372656173656420616c6c6f77616e63652062656c6f77604482015264207a65726f60d81b60648201526084016107b4565b61054f8286868403611789565b60003361052c81858561193f565b43610cda61115e565b11610d455760405162461bcd60e51b815260206004820152603560248201527f74686973206661726d206973206578706972656420616e64206e6f206d6f7265604482015274081cdd185ad95c9cc818d85b881899481859191959605a1b60648201526084016107b4565b610d4d611b8b565b3360009081526020819052604090205415610d6d57610d6b33611c23565b505b60135460009060ff1615610ea0576000825111610de55760405162461bcd60e51b815260206004820152603060248201527f796f75206e65656420746f2070726f76696465204e465420746f6b656e20494460448201526f7320796f75277265207374616b696e6760801b60648201526084016107b4565b60005b8251811015610e975760075483516001600160a01b03909116906323b872dd9033903090879086908110610e2c57634e487b7160e01b600052603260045260246000fd5b60200260200101516040518463ffffffff1660e01b8152600401610e529392919061219f565b600060405180830381600087803b158015610e6c57600080fd5b505af1158015610e80573d6000803e3d6000fd5b505050508080610e8f9061230e565b915050610de8565b50508051611029565b6006546040516370a0823160e01b81523060048201526000916001600160a01b0316906370a082319060240160206040518083038186803b158015610ee457600080fd5b505afa158015610ef8573d6000803e3d6000fd5b505050506040513d601f19601f82011682018060405250810190610f1c919061207b565b6006546040516323b872dd60e01b81529192506001600160a01b0316906323b872dd90610f519033903090899060040161219f565b602060405180830381600087803b158015610f6b57600080fd5b505af1158015610f7f573d6000803e3d6000fd5b505050506040513d601f19601f82011682018060405250810190610fa39190612047565b506006546040516370a0823160e01b81523060048201526110259183916001600160a01b03909116906370a082319060240160206040518083038186803b158015610fed57600080fd5b505afa158015611001573d6000803e3d6000fd5b505050506040513d601f19601f8201168201806040525081019061073c919061207b565b9150505b60025461103a5743600d8190556010555b6110443382611dd3565b336000908152601460205260409020805461105f9083611b31565b80825543600183018190554260028401556003830155601154611097916ec097ce7bc90715b34b9f1000000000916106f69190611b19565b600482015560005b83518110156110fd57816005018482815181106110cc57634e487b7160e01b600052603260045260246000fd5b60209081029190910181015182546001810184556000938452919092200155806110f58161230e565b91505061109f565b50611123826040518060400160405280600381526020016218591960ea1b815250611b3d565b60405182815233907fe1fffcc4923d04b559f4d29a8bfc6cda04eb5b0d3c460751c2402c5c5cc9109c9060200160405180910390a250505050565b600d5460009081901561117357600d54611175565b435b600e54600a5491925061119491839161118e9190611b25565b90611b31565b91505090565b6008546001600160a01b03163314806111bd57506009546001600160a01b031633145b61123e5760405162461bcd60e51b815260206004820152604660248201527f63616c6c6572206d7573742062652074686520636f6e7472616374206372656160448201527f746f72206f72206f776e657220746f2072656d6f7665207374616b61626c6520606482015265746f6b656e7360d01b608482015260a4016107b4565b600554600954600b5460405163a9059cbb60e01b81526001600160a01b0392831660048201526024810191909152610100909204169063a9059cbb90604401602060405180830381600087803b15801561129757600080fd5b505af11580156112ab573d6000803e3d6000fd5b505050506040513d601f19601f820116820180604052508101906112cf9190612047565b506000600b556005805460ff19166001179055565b336000908152601460209081526040808320815160c0810183528154815260018201548185015260028201548184015260038201546060820152600482015460808201526005820180548451818702810187019095528085529194929360a086019390929083018282801561137857602002820191906000526020600020905b815481526020019060010190808311611364575b50505091909252505081516013549293509160ff16905061139c578084111561139f565b60015b6114115760405162461bcd60e51b815260206004820152603f60248201527f757365722063616e206f6e6c7920756e7374616b6520616d6f756e742074686560448201527f7920686176652063757272656e746c79207374616b6564206f72206c6573730060648201526084016107b4565b82158061142e5750601254604083015161142a91611b31565b4210155b8061143b575060055460ff165b8061144c575061144961115e565b43115b6114d05760405162461bcd60e51b815260206004820152604960248201527f796f752068617665206e6f74207374616b656420666f72206d696e696d756d2060448201527f74696d65206c6f636b2079657420616e642074686520706f6f6c206973206e6f6064820152681d08195e1c1a5c995960ba1b608482015260a4016107b4565b6114d8611b8b565b82156114e9576114e733611c23565b505b60135460009060ff166114fc57846114fe565b815b905061152561dead6108ee336001600160a01b031660009081526020819052604090205490565b5060135460ff16156115f15760005b8360a00151518110156115eb5760075460a085015180516001600160a01b03909216916323b872dd9130913391908690811061158057634e487b7160e01b600052603260045260246000fd5b60200260200101516040518463ffffffff1660e01b81526004016115a69392919061219f565b600060405180830381600087803b1580156115c057600080fd5b505af11580156115d4573d6000803e3d6000fd5b5050505080806115e39061230e565b915050611534565b50611691565b60065460405163a9059cbb60e01b8152336004820152602481018390526001600160a01b039091169063a9059cbb90604401602060405180830381600087803b15801561163d57600080fd5b505af1158015611651573d6000803e3d6000fd5b505050506040513d601f19601f820116820180604052508101906116759190612047565b6116915760405162461bcd60e51b81526004016107b4906121f6565b33600090815260208190526040812054116116e95733600090815260146020526040812081815560018101829055600281018290556003810182905560048101829055906116e26005830182611f0b565b50506116f8565b82516116f59082611b0d565b83525b611720816040518060400160405280600681526020016572656d6f766560d01b815250611b3d565b60405181815233907f884edad9ce6fa2440d8a54cc123490eb96d2768479d49ff9c7366125a94243649060200160405180910390a25050505050565b60135460009060ff1661177957506006546001600160a01b031690565b506007546001600160a01b031690565b6001600160a01b0383166117eb5760405162461bcd60e51b8152602060048201526024808201527f45524332303a20617070726f76652066726f6d20746865207a65726f206164646044820152637265737360e01b60648201526084016107b4565b6001600160a01b03821661184c5760405162461bcd60e51b815260206004820152602260248201527f45524332303a20617070726f766520746f20746865207a65726f206164647265604482015261737360f01b60648201526084016107b4565b6001600160a01b0383811660008181526001602090815260408083209487168084529482529182902085905590518481527f8c5be1e5ebec7d5bd14f71427d1e84f3dd0314c0f7b2291e5b200ac8c7c3b925910160405180910390a3505050565b6001600160a01b038381166000908152600160209081526040808320938616835292905220546000198114611939578181101561192c5760405162461bcd60e51b815260206004820152601d60248201527f45524332303a20696e73756666696369656e7420616c6c6f77616e636500000060448201526064016107b4565b6119398484848403611789565b50505050565b6001600160a01b0383166119a35760405162461bcd60e51b815260206004820152602560248201527f45524332303a207472616e736665722066726f6d20746865207a65726f206164604482015264647265737360d81b60648201526084016107b4565b6001600160a01b038216611a055760405162461bcd60e51b815260206004820152602360248201527f45524332303a207472616e7366657220746f20746865207a65726f206164647260448201526265737360e81b60648201526084016107b4565b6001600160a01b03831660009081526020819052604090205481811015611a7d5760405162461bcd60e51b815260206004820152602660248201527f45524332303a207472616e7366657220616d6f756e7420657863656564732062604482015265616c616e636560d01b60648201526084016107b4565b6001600160a01b03808516600090815260208190526040808220858503905591851681529081208054849290611ab4908490612239565b92505081905550826001600160a01b0316846001600160a01b03167fddf252ad1be2c89b69c2b068fc378daa952ba7f163c4a11628f55a4df523b3ef84604051611b0091815260200190565b60405180910390a3611939565b6000610c1b8284612290565b6000610c1b8284612271565b6000610c1b8284612251565b6000610c1b8284612239565b611b65816040518060400160405280600681526020016572656d6f766560d01b815250611eb2565b15611b7e57600c54611b779083611b0d565b600c555050565b600c54611b779083611b31565b6000611b9561115e565b90506000814310611ba65781611ba8565b435b6010549091508111611bb8575050565b600c5480611bc7575060105550565b601054600090611bd8908490611b0d565b600e54909150600090611bec908390611b19565b9050611c17611c0e846106f6846ec097ce7bc90715b34b9f1000000000611b19565b60115490611b31565b60115550505060105550565b6001600160a01b03811660009081526014602052604081206001810154611c8c5760405162461bcd60e51b815260206004820152601c60248201527f75736572206d757374206861766520746f6b656e73207374616b65640000000060448201526064016107b4565b6000611c9784610599565b90508015611d9b5760055460405163a9059cbb60e01b81526001600160a01b038681166004830152602482018490526101009092049091169063a9059cbb90604401602060405180830381600087803b158015611cf357600080fd5b505af1158015611d07573d6000803e3d6000fd5b505050506040513d601f19601f82011682018060405250810190611d2b9190612047565b611d8a5760405162461bcd60e51b815260206004820152602a60248201527f756e61626c6520746f2073656e6420757365722074686569722068617276657360448201526974656420746f6b656e7360b01b60648201526084016107b4565b600b54611d979082611b0d565b600b555b6011548254611dbe916ec097ce7bc90715b34b9f1000000000916106f691611b19565b60048301554360039092019190915592915050565b6001600160a01b038216611e295760405162461bcd60e51b815260206004820152601f60248201527f45524332303a206d696e7420746f20746865207a65726f20616464726573730060448201526064016107b4565b8060026000828254611e3b9190612239565b90915550506001600160a01b03821660009081526020819052604081208054839290611e68908490612239565b90915550506040518181526001600160a01b038316906000907fddf252ad1be2c89b69c2b068fc378daa952ba7f163c4a11628f55a4df523b3ef9060200160405180910390a35050565b600081604051602001611ec59190612183565b6040516020818303038152906040528051906020012083604051602001611eec9190612183565b6040516020818303038152906040528051906020012014905092915050565b5080546000825590600052602060002090810190611f299190611f2c565b50565b5b80821115611f415760008155600101611f2d565b5090565b80356001600160a01b0381168114611f5c57600080fd5b919050565b600060208284031215611f72578081fd5b610c1b82611f45565b60008060408385031215611f8d578081fd5b611f9683611f45565b9150611fa460208401611f45565b90509250929050565b600080600060608486031215611fc1578081fd5b611fca84611f45565b9250611fd860208501611f45565b9150604084013590509250925092565b60008060408385031215611ffa578182fd5b61200383611f45565b9150602083013561201381612355565b809150509250929050565b60008060408385031215612030578182fd5b61203983611f45565b946020939093013593505050565b600060208284031215612058578081fd5b8151610c1b81612355565b600060208284031215612074578081fd5b5035919050565b60006020828403121561208c578081fd5b5051919050565b600080604083850312156120a5578182fd5b8235915060208084013567ffffffffffffffff808211156120c4578384fd5b818601915086601f8301126120d7578384fd5b8135818111156120e9576120e961233f565b8060051b604051601f19603f8301168101818110858211171561210e5761210e61233f565b604052828152858101935084860182860187018b101561212c578788fd5b8795505b8386101561214e578035855260019590950194938601938601612130565b508096505050505050509250929050565b60008060408385031215612171578182fd5b82359150602083013561201381612355565b600082516121958184602087016122a7565b9190910192915050565b6001600160a01b039384168152919092166020820152604081019190915260600190565b60208152600082518060208401526121e28160408501602087016122a7565b601f01601f19169190910160400192915050565b60208082526023908201527f756e61626c6520746f2073656e642075736572206f726967696e616c20746f6b604082015262656e7360e81b606082015260800190565b6000821982111561224c5761224c612329565b500190565b60008261226c57634e487b7160e01b81526012600452602481fd5b500490565b600081600019048311821515161561228b5761228b612329565b500290565b6000828210156122a2576122a2612329565b500390565b60005b838110156122c25781810151838201526020016122aa565b838111156119395750506000910152565b600181811c908216806122e757607f821691505b6020821081141561230857634e487b7160e01b600052602260045260246000fd5b50919050565b600060001982141561232257612322612329565b5060010190565b634e487b7160e01b600052601160045260246000fd5b634e487b7160e01b600052604160045260246000fd5b8015158114611f2957600080fdfea2646970667358221220a91d53c2af50a0c417952d8f4dedee27a933c95d5650bce358127a6288ace9f564736f6c63430008040033",
  "immutableReferences": {},
  "source": "// SPDX-License-Identifier: MIT\r\npragma solidity ^0.8.4;\r\n\r\nimport '@openzeppelin/contracts/token/ERC20/ERC20.sol';\r\nimport '@openzeppelin/contracts/interfaces/IERC20.sol';\r\nimport '@openzeppelin/contracts/interfaces/IERC721.sol';\r\nimport '@openzeppelin/contracts/utils/math/SafeMath.sol';\r\n\r\n/**\r\n * @title HEALFaaSToken (sHEAL)\r\n * @notice Represents a contract where a token owner has put her tokens up for others to stake and earn said tokens.\r\n */\r\ncontract HEALFaaSToken is ERC20 {\r\n  using SafeMath for uint256;\r\n  bool public contractIsRemoved = false;\r\n\r\n  IERC20 private _rewardsToken;\r\n  IERC20 private _stakedERC20;\r\n  IERC721 private _stakedERC721;\r\n  PoolInfo public pool;\r\n  address private constant _burner = 0x000000000000000000000000000000000000dEaD;\r\n\r\n  struct PoolInfo {\r\n    address creator; // address of contract creator\r\n    address tokenOwner; // address of original rewards token owner\r\n    uint256 origTotSupply; // supply of rewards tokens put up to be rewarded by original owner\r\n    uint256 curRewardsSupply; // current supply of rewards\r\n    uint256 totalTokensStaked; // current amount of tokens staked\r\n    uint256 creationBlock; // block this contract was created\r\n    uint256 perBlockNum; // amount of rewards tokens rewarded per block\r\n    uint256 lockedUntilDate; // unix timestamp of how long this contract is locked and can't be changed\r\n    // uint256 allocPoint; // How many allocation points assigned to this pool. ERC20s to distribute per block.\r\n    uint256 lastRewardBlock; // Last block number that ERC20s distribution occurs.\r\n    uint256 accERC20PerShare; // Accumulated ERC20s per share, times 1e36.\r\n    uint256 stakeTimeLockSec; // number of seconds after depositing the user is required to stake before unstaking\r\n    bool isStakedNft;\r\n  }\r\n\r\n  struct StakerInfo {\r\n    uint256 amountStaked;\r\n    uint256 blockOriginallyStaked; // block the user originally staked\r\n    uint256 timeOriginallyStaked; // unix timestamp in seconds that the user originally staked\r\n    uint256 blockLastHarvested; // the block the user last claimed/harvested rewards\r\n    uint256 rewardDebt; // Reward debt. See explanation below.\r\n    uint256[] nftTokenIds; // if this is an NFT staking pool, make sure we store the token IDs here\r\n  }\r\n\r\n  struct BlockTokenTotal {\r\n    uint256 blockNumber;\r\n    uint256 totalTokens;\r\n  }\r\n\r\n  // mapping of userAddresses => tokenAddresses that can\r\n  // can be evaluated to determine for a particular user which tokens\r\n  // they are staking.\r\n  mapping(address => StakerInfo) public stakers;\r\n\r\n  event Deposit(address indexed user, uint256 amount);\r\n  event Withdraw(address indexed user, uint256 amount);\r\n\r\n  /**\r\n   * @notice The constructor for the Staking Token.\r\n   * @param _name Name of the staking token\r\n   * @param _symbol Name of the staking token symbol\r\n   * @param _rewardSupply The amount of tokens to mint on construction, this should be the same as the tokens provided by the creating user.\r\n   * @param _rewardsTokenAddy Contract address of token to be rewarded to users\r\n   * @param _stakedTokenAddy Contract address of token to be staked by users\r\n   * @param _originalTokenOwner Address of user putting up staking tokens to be staked\r\n   * @param _perBlockAmount Amount of tokens to be rewarded per block\r\n   * @param _lockedUntilDate Unix timestamp that the staked tokens will be locked. 0 means locked forever until all tokens are staked\r\n   * @param _stakeTimeLockSec number of seconds a user is required to stake, or 0 if none\r\n   * @param _isStakedNft is this an NFT staking pool\r\n   */\r\n  constructor(\r\n    string memory _name,\r\n    string memory _symbol,\r\n    uint256 _rewardSupply,\r\n    address _rewardsTokenAddy,\r\n    address _stakedTokenAddy,\r\n    address _originalTokenOwner,\r\n    uint256 _perBlockAmount,\r\n    uint256 _lockedUntilDate,\r\n    uint256 _stakeTimeLockSec,\r\n    bool _isStakedNft\r\n  ) ERC20(_name, _symbol) {\r\n    require(\r\n      _perBlockAmount > uint256(0) && _perBlockAmount <= uint256(_rewardSupply),\r\n      'per block amount must be more than 0 and less than supply'\r\n    );\r\n\r\n    // A locked date of '0' corresponds to being locked forever until the supply has expired and been rewards to all stakers\r\n    require(\r\n      _lockedUntilDate > block.timestamp || _lockedUntilDate == 0,\r\n      'locked time must be after now or 0'\r\n    );\r\n\r\n    _rewardsToken = IERC20(_rewardsTokenAddy);\r\n    if (_isStakedNft) {\r\n      _stakedERC721 = IERC721(_stakedTokenAddy);\r\n    } else {\r\n      _stakedERC20 = IERC20(_stakedTokenAddy);\r\n    }\r\n\r\n    pool = PoolInfo({\r\n      creator: msg.sender,\r\n      tokenOwner: _originalTokenOwner,\r\n      origTotSupply: _rewardSupply,\r\n      curRewardsSupply: _rewardSupply,\r\n      totalTokensStaked: 0,\r\n      creationBlock: 0,\r\n      perBlockNum: _perBlockAmount,\r\n      lockedUntilDate: _lockedUntilDate,\r\n      lastRewardBlock: block.number,\r\n      accERC20PerShare: 0,\r\n      stakeTimeLockSec: _stakeTimeLockSec,\r\n      isStakedNft: _isStakedNft\r\n    });\r\n  }\r\n\r\n  // SHOULD ONLY BE CALLED AT CONTRACT CREATION and allows changing\r\n  // the initial supply if tokenomics of token transfer causes\r\n  // the original staking contract supply to be less than the original\r\n  function updateSupply(uint256 _newSupply) external {\r\n    require(\r\n      msg.sender == pool.creator,\r\n      'only contract creator can update the supply'\r\n    );\r\n    pool.origTotSupply = _newSupply;\r\n    pool.curRewardsSupply = _newSupply;\r\n  }\r\n\r\n  function stakedTokenAddress() external view returns (address) {\r\n    return pool.isStakedNft ? address(_stakedERC721) : address(_stakedERC20);\r\n  }\r\n\r\n  function rewardsTokenAddress() external view returns (address) {\r\n    return address(_rewardsToken);\r\n  }\r\n\r\n  function tokenOwner() external view returns (address) {\r\n    return pool.tokenOwner;\r\n  }\r\n\r\n  function getLockedUntilDate() external view returns (uint256) {\r\n    return pool.lockedUntilDate;\r\n  }\r\n\r\n  function removeStakeableTokens() external {\r\n    require(\r\n      msg.sender == pool.creator || msg.sender == pool.tokenOwner,\r\n      'caller must be the contract creator or owner to remove stakable tokens'\r\n    );\r\n    _rewardsToken.transfer(pool.tokenOwner, pool.curRewardsSupply);\r\n    pool.curRewardsSupply = 0;\r\n    contractIsRemoved = true;\r\n  }\r\n\r\n  // function updateTimestamp(uint256 _newTime) external {\r\n  //   require(\r\n  //     msg.sender == tokenOwner,\r\n  //     'updateTimestamp user must be original token owner'\r\n  //   );\r\n  //   require(\r\n  //     _newTime > lockedUntilDate || _newTime == 0,\r\n  //     'you cannot change timestamp if it is before the locked time or was set to be locked forever'\r\n  //   );\r\n  //   lockedUntilDate = _newTime;\r\n  // }\r\n\r\n  function stakeTokens(uint256 _amount, uint256[] memory _tokenIds) public {\r\n    require(\r\n      getLastStakableBlock() > block.number,\r\n      'this farm is expired and no more stakers can be added'\r\n    );\r\n\r\n    _updatePool();\r\n\r\n    if (balanceOf(msg.sender) > 0) {\r\n      _harvestTokens(msg.sender);\r\n    }\r\n\r\n    uint256 _finalAmountTransferred;\r\n    if (pool.isStakedNft) {\r\n      require(\r\n        _tokenIds.length > 0,\r\n        \"you need to provide NFT token IDs you're staking\"\r\n      );\r\n      for (uint256 _i = 0; _i < _tokenIds.length; _i++) {\r\n        _stakedERC721.transferFrom(msg.sender, address(this), _tokenIds[_i]);\r\n      }\r\n\r\n      _finalAmountTransferred = _tokenIds.length;\r\n    } else {\r\n      uint256 _contractBalanceBefore = _stakedERC20.balanceOf(address(this));\r\n      _stakedERC20.transferFrom(msg.sender, address(this), _amount);\r\n\r\n      // in the event a token contract on transfer taxes, burns, etc. tokens\r\n      // the contract might not get the entire amount that the user originally\r\n      // transferred. Need to calculate from the previous contract balance\r\n      // so we know how many were actually transferred.\r\n      _finalAmountTransferred = _stakedERC20.balanceOf(address(this)).sub(\r\n        _contractBalanceBefore\r\n      );\r\n    }\r\n\r\n    if (totalSupply() == 0) {\r\n      pool.creationBlock = block.number;\r\n      pool.lastRewardBlock = block.number;\r\n    }\r\n    _mint(msg.sender, _finalAmountTransferred);\r\n    StakerInfo storage _staker = stakers[msg.sender];\r\n    _staker.amountStaked = _staker.amountStaked.add(_finalAmountTransferred);\r\n    _staker.blockOriginallyStaked = block.number;\r\n    _staker.timeOriginallyStaked = block.timestamp;\r\n    _staker.blockLastHarvested = block.number;\r\n    _staker.rewardDebt = _staker.amountStaked.mul(pool.accERC20PerShare).div(\r\n      1e36\r\n    );\r\n    for (uint256 _i = 0; _i < _tokenIds.length; _i++) {\r\n      _staker.nftTokenIds.push(_tokenIds[_i]);\r\n    }\r\n    _updNumStaked(_finalAmountTransferred, 'add');\r\n    emit Deposit(msg.sender, _finalAmountTransferred);\r\n  }\r\n\r\n  // pass 'false' for _shouldHarvest for emergency unstaking without claiming rewards\r\n  function unstakeTokens(uint256 _amount, bool _shouldHarvest) external {\r\n    StakerInfo memory _staker = stakers[msg.sender];\r\n    uint256 _userBalance = _staker.amountStaked;\r\n    require(\r\n      pool.isStakedNft ? true : _amount <= _userBalance,\r\n      'user can only unstake amount they have currently staked or less'\r\n    );\r\n\r\n    // allow unstaking if the user is emergency unstaking and not getting rewards or\r\n    // if theres a time lock that it's past the time lock or\r\n    // the contract rewards were removed by the original contract creator or\r\n    // the contract is expired\r\n    require(\r\n      !_shouldHarvest ||\r\n        block.timestamp >=\r\n        _staker.timeOriginallyStaked.add(pool.stakeTimeLockSec) ||\r\n        contractIsRemoved ||\r\n        block.number > getLastStakableBlock(),\r\n      'you have not staked for minimum time lock yet and the pool is not expired'\r\n    );\r\n\r\n    _updatePool();\r\n\r\n    if (_shouldHarvest) {\r\n      _harvestTokens(msg.sender);\r\n    }\r\n\r\n    uint256 _amountToRemoveFromStaked = pool.isStakedNft\r\n      ? _userBalance\r\n      : _amount;\r\n    transfer(\r\n      _burner,\r\n      _amountToRemoveFromStaked > balanceOf(msg.sender)\r\n        ? balanceOf(msg.sender)\r\n        : _amountToRemoveFromStaked\r\n    );\r\n    if (pool.isStakedNft) {\r\n      for (uint256 _i = 0; _i < _staker.nftTokenIds.length; _i++) {\r\n        _stakedERC721.transferFrom(\r\n          address(this),\r\n          msg.sender,\r\n          _staker.nftTokenIds[_i]\r\n        );\r\n      }\r\n    } else {\r\n      require(\r\n        _stakedERC20.transfer(msg.sender, _amountToRemoveFromStaked),\r\n        'unable to send user original tokens'\r\n      );\r\n    }\r\n\r\n    if (balanceOf(msg.sender) <= 0) {\r\n      delete stakers[msg.sender];\r\n    } else {\r\n      _staker.amountStaked = _staker.amountStaked.sub(\r\n        _amountToRemoveFromStaked\r\n      );\r\n    }\r\n    _updNumStaked(_amountToRemoveFromStaked, 'remove');\r\n    emit Withdraw(msg.sender, _amountToRemoveFromStaked);\r\n  }\r\n\r\n  function emergencyUnstake() external {\r\n    StakerInfo memory _staker = stakers[msg.sender];\r\n    uint256 _amountToRemoveFromStaked = _staker.amountStaked;\r\n    require(\r\n      _amountToRemoveFromStaked > 0,\r\n      'user can only unstake if they have tokens in the pool'\r\n    );\r\n\r\n    transfer(\r\n      _burner,\r\n      _amountToRemoveFromStaked > balanceOf(msg.sender)\r\n        ? balanceOf(msg.sender)\r\n        : _amountToRemoveFromStaked\r\n    );\r\n    if (pool.isStakedNft) {\r\n      for (uint256 _i = 0; _i < _staker.nftTokenIds.length; _i++) {\r\n        _stakedERC721.transferFrom(\r\n          address(this),\r\n          msg.sender,\r\n          _staker.nftTokenIds[_i]\r\n        );\r\n      }\r\n    } else {\r\n      require(\r\n        _stakedERC20.transfer(msg.sender, _amountToRemoveFromStaked),\r\n        'unable to send user original tokens'\r\n      );\r\n    }\r\n\r\n    delete stakers[msg.sender];\r\n    _updNumStaked(_amountToRemoveFromStaked, 'remove');\r\n    emit Withdraw(msg.sender, _amountToRemoveFromStaked);\r\n  }\r\n\r\n  function harvestForUser(address _userAddy, bool _autoCompound)\r\n    external\r\n    returns (uint256)\r\n  {\r\n    require(\r\n      msg.sender == pool.creator || msg.sender == _userAddy,\r\n      'can only harvest tokens for someone else if this was the contract creator'\r\n    );\r\n    _updatePool();\r\n    uint256 _tokensToUser = _harvestTokens(_userAddy);\r\n\r\n    if (\r\n      _autoCompound &&\r\n      !pool.isStakedNft &&\r\n      address(_rewardsToken) == address(_stakedERC20)\r\n    ) {\r\n      uint256[] memory _placeholder;\r\n      stakeTokens(_tokensToUser, _placeholder);\r\n    }\r\n\r\n    return _tokensToUser;\r\n  }\r\n\r\n  function getLastStakableBlock() public view returns (uint256) {\r\n    uint256 _blockToAdd = pool.creationBlock == 0\r\n      ? block.number\r\n      : pool.creationBlock;\r\n    return pool.origTotSupply.div(pool.perBlockNum).add(_blockToAdd);\r\n  }\r\n\r\n  function calcHarvestTot(address _userAddy) public view returns (uint256) {\r\n    StakerInfo memory _staker = stakers[_userAddy];\r\n\r\n    if (\r\n      _staker.blockLastHarvested >= block.number ||\r\n      _staker.blockOriginallyStaked == 0 ||\r\n      pool.totalTokensStaked == 0\r\n    ) {\r\n      return uint256(0);\r\n    }\r\n\r\n    uint256 _accERC20PerShare = pool.accERC20PerShare;\r\n\r\n    if (block.number > pool.lastRewardBlock && pool.totalTokensStaked != 0) {\r\n      uint256 _endBlock = getLastStakableBlock();\r\n      uint256 _lastBlock = block.number < _endBlock ? block.number : _endBlock;\r\n      uint256 _nrOfBlocks = _lastBlock.sub(pool.lastRewardBlock);\r\n      uint256 _erc20Reward = _nrOfBlocks.mul(pool.perBlockNum);\r\n      _accERC20PerShare = _accERC20PerShare.add(\r\n        _erc20Reward.mul(1e36).div(pool.totalTokensStaked)\r\n      );\r\n    }\r\n\r\n    return\r\n      _staker.amountStaked.mul(_accERC20PerShare).div(1e36).sub(\r\n        _staker.rewardDebt\r\n      );\r\n  }\r\n\r\n  // Update reward variables of the given pool to be up-to-date.\r\n  function _updatePool() private {\r\n    uint256 _endBlock = getLastStakableBlock();\r\n    uint256 _lastBlock = block.number < _endBlock ? block.number : _endBlock;\r\n\r\n    if (_lastBlock <= pool.lastRewardBlock) {\r\n      return;\r\n    }\r\n    uint256 _stakedSupply = pool.totalTokensStaked;\r\n    if (_stakedSupply == 0) {\r\n      pool.lastRewardBlock = _lastBlock;\r\n      return;\r\n    }\r\n\r\n    uint256 _nrOfBlocks = _lastBlock.sub(pool.lastRewardBlock);\r\n    uint256 _erc20Reward = _nrOfBlocks.mul(pool.perBlockNum);\r\n\r\n    pool.accERC20PerShare = pool.accERC20PerShare.add(\r\n      _erc20Reward.mul(1e36).div(_stakedSupply)\r\n    );\r\n    pool.lastRewardBlock = _lastBlock;\r\n  }\r\n\r\n  function _harvestTokens(address _userAddy) private returns (uint256) {\r\n    StakerInfo storage _staker = stakers[_userAddy];\r\n    require(_staker.blockOriginallyStaked > 0, 'user must have tokens staked');\r\n\r\n    uint256 _num2Trans = calcHarvestTot(_userAddy);\r\n    if (_num2Trans > 0) {\r\n      require(\r\n        _rewardsToken.transfer(_userAddy, _num2Trans),\r\n        'unable to send user their harvested tokens'\r\n      );\r\n      pool.curRewardsSupply = pool.curRewardsSupply.sub(_num2Trans);\r\n    }\r\n    _staker.rewardDebt = _staker.amountStaked.mul(pool.accERC20PerShare).div(\r\n      1e36\r\n    );\r\n    _staker.blockLastHarvested = block.number;\r\n    return _num2Trans;\r\n  }\r\n\r\n  // update the amount currently staked after a user harvests\r\n  function _updNumStaked(uint256 _amount, string memory _operation) private {\r\n    if (_compareStr(_operation, 'remove')) {\r\n      pool.totalTokensStaked = pool.totalTokensStaked.sub(_amount);\r\n    } else {\r\n      pool.totalTokensStaked = pool.totalTokensStaked.add(_amount);\r\n    }\r\n  }\r\n\r\n  function _compareStr(string memory a, string memory b)\r\n    private\r\n    pure\r\n    returns (bool)\r\n  {\r\n    return (keccak256(abi.encodePacked((a))) ==\r\n      keccak256(abi.encodePacked((b))));\r\n  }\r\n}",
  "sourcePath": "D:\\Working\\Freelancing\\6.heal\\Project\\backend\\contracts\\HEALFaaSToken.sol",
  "compiler": {
    "name": "solc",
    "version": "0.8.4+commit.c7e474f2.Emscripten.clang"
  },
  "schemaVersion": "3.4.4",
  "updatedAt": "2022-03-13T20:04:35.403Z",
  "devdoc": {
    "kind": "dev",
    "methods": {
      "allowance(address,address)": {
        "details": "See {IERC20-allowance}."
      },
      "approve(address,uint256)": {
        "details": "See {IERC20-approve}. NOTE: If `amount` is the maximum `uint256`, the allowance is not updated on `transferFrom`. This is semantically equivalent to an infinite approval. Requirements: - `spender` cannot be the zero address."
      },
      "balanceOf(address)": {
        "details": "See {IERC20-balanceOf}."
      },
      "constructor": {
        "params": {
          "_isStakedNft": "is this an NFT staking pool",
          "_lockedUntilDate": "Unix timestamp that the staked tokens will be locked. 0 means locked forever until all tokens are staked",
          "_name": "Name of the staking token",
          "_originalTokenOwner": "Address of user putting up staking tokens to be staked",
          "_perBlockAmount": "Amount of tokens to be rewarded per block",
          "_rewardSupply": "The amount of tokens to mint on construction, this should be the same as the tokens provided by the creating user.",
          "_rewardsTokenAddy": "Contract address of token to be rewarded to users",
          "_stakeTimeLockSec": "number of seconds a user is required to stake, or 0 if none",
          "_stakedTokenAddy": "Contract address of token to be staked by users",
          "_symbol": "Name of the staking token symbol"
        }
      },
      "decimals()": {
        "details": "Returns the number of decimals used to get its user representation. For example, if `decimals` equals `2`, a balance of `505` tokens should be displayed to a user as `5.05` (`505 / 10 ** 2`). Tokens usually opt for a value of 18, imitating the relationship between Ether and Wei. This is the value {ERC20} uses, unless this function is overridden; NOTE: This information is only used for _display_ purposes: it in no way affects any of the arithmetic of the contract, including {IERC20-balanceOf} and {IERC20-transfer}."
      },
      "decreaseAllowance(address,uint256)": {
        "details": "Atomically decreases the allowance granted to `spender` by the caller. This is an alternative to {approve} that can be used as a mitigation for problems described in {IERC20-approve}. Emits an {Approval} event indicating the updated allowance. Requirements: - `spender` cannot be the zero address. - `spender` must have allowance for the caller of at least `subtractedValue`."
      },
      "increaseAllowance(address,uint256)": {
        "details": "Atomically increases the allowance granted to `spender` by the caller. This is an alternative to {approve} that can be used as a mitigation for problems described in {IERC20-approve}. Emits an {Approval} event indicating the updated allowance. Requirements: - `spender` cannot be the zero address."
      },
      "name()": {
        "details": "Returns the name of the token."
      },
      "symbol()": {
        "details": "Returns the symbol of the token, usually a shorter version of the name."
      },
      "totalSupply()": {
        "details": "See {IERC20-totalSupply}."
      },
      "transfer(address,uint256)": {
        "details": "See {IERC20-transfer}. Requirements: - `to` cannot be the zero address. - the caller must have a balance of at least `amount`."
      },
      "transferFrom(address,address,uint256)": {
        "details": "See {IERC20-transferFrom}. Emits an {Approval} event indicating the updated allowance. This is not required by the EIP. See the note at the beginning of {ERC20}. NOTE: Does not update the allowance if the current allowance is the maximum `uint256`. Requirements: - `from` and `to` cannot be the zero address. - `from` must have a balance of at least `amount`. - the caller must have allowance for ``from``'s tokens of at least `amount`."
      }
    },
    "title": "HEALFaaSToken (sHEAL)",
    "version": 1
  },
  "userdoc": {
    "kind": "user",
    "methods": {
      "constructor": {
        "notice": "The constructor for the Staking Token."
      }
    },
    "notice": "Represents a contract where a token owner has put her tokens up for others to stake and earn said tokens.",
    "version": 1
  }
}