{
  "contractName": "HEAL",
  "abi": [
    {
      "inputs": [],
      "stateMutability": "nonpayable",
      "type": "constructor"
    },
    {
      "anonymous": false,
      "inputs": [
        {
          "indexed": true,
          "internalType": "address",
          "name": "owner",
          "type": "address"
        },
        {
          "indexed": true,
          "internalType": "address",
          "name": "spender",
          "type": "address"
        },
        {
          "indexed": false,
          "internalType": "uint256",
          "name": "value",
          "type": "uint256"
        }
      ],
      "name": "Approval",
      "type": "event"
    },
    {
      "anonymous": false,
      "inputs": [
        {
          "indexed": false,
          "internalType": "uint256",
          "name": "_maxTxAmount",
          "type": "uint256"
        }
      ],
      "name": "MaxTxAmountUpdated",
      "type": "event"
    },
    {
      "anonymous": false,
      "inputs": [
        {
          "indexed": true,
          "internalType": "address",
          "name": "previousOwner",
          "type": "address"
        },
        {
          "indexed": true,
          "internalType": "address",
          "name": "newOwner",
          "type": "address"
        }
      ],
      "name": "OwnershipTransferred",
      "type": "event"
    },
    {
      "anonymous": false,
      "inputs": [
        {
          "indexed": true,
          "internalType": "address",
          "name": "from",
          "type": "address"
        },
        {
          "indexed": true,
          "internalType": "address",
          "name": "to",
          "type": "address"
        },
        {
          "indexed": false,
          "internalType": "uint256",
          "name": "value",
          "type": "uint256"
        }
      ],
      "name": "Transfer",
      "type": "event"
    },
    {
      "inputs": [
        {
          "internalType": "address",
          "name": "",
          "type": "address"
        }
      ],
      "name": "_buyMap",
      "outputs": [
        {
          "internalType": "uint256",
          "name": "",
          "type": "uint256"
        }
      ],
      "stateMutability": "view",
      "type": "function"
    },
    {
      "inputs": [],
      "name": "_maxTxAmount",
      "outputs": [
        {
          "internalType": "uint256",
          "name": "",
          "type": "uint256"
        }
      ],
      "stateMutability": "view",
      "type": "function"
    },
    {
      "inputs": [],
      "name": "_maxWalletSize",
      "outputs": [
        {
          "internalType": "uint256",
          "name": "",
          "type": "uint256"
        }
      ],
      "stateMutability": "view",
      "type": "function"
    },
    {
      "inputs": [],
      "name": "_swapTokensAtAmount",
      "outputs": [
        {
          "internalType": "uint256",
          "name": "",
          "type": "uint256"
        }
      ],
      "stateMutability": "view",
      "type": "function"
    },
    {
      "inputs": [
        {
          "internalType": "address",
          "name": "",
          "type": "address"
        }
      ],
      "name": "bots",
      "outputs": [
        {
          "internalType": "bool",
          "name": "",
          "type": "bool"
        }
      ],
      "stateMutability": "view",
      "type": "function"
    },
    {
      "inputs": [],
      "name": "owner",
      "outputs": [
        {
          "internalType": "address",
          "name": "",
          "type": "address"
        }
      ],
      "stateMutability": "view",
      "type": "function"
    },
    {
      "inputs": [],
      "name": "renounceOwnership",
      "outputs": [],
      "stateMutability": "nonpayable",
      "type": "function"
    },
    {
      "inputs": [
        {
          "internalType": "address",
          "name": "newOwner",
          "type": "address"
        }
      ],
      "name": "transferOwnership",
      "outputs": [],
      "stateMutability": "nonpayable",
      "type": "function"
    },
    {
      "inputs": [],
      "name": "uniswapV2Pair",
      "outputs": [
        {
          "internalType": "address",
          "name": "",
          "type": "address"
        }
      ],
      "stateMutability": "view",
      "type": "function"
    },
    {
      "inputs": [],
      "name": "uniswapV2Router",
      "outputs": [
        {
          "internalType": "contract IUniswapV2Router02",
          "name": "",
          "type": "address"
        }
      ],
      "stateMutability": "view",
      "type": "function"
    },
    {
      "stateMutability": "payable",
      "type": "receive"
    },
    {
      "inputs": [],
      "name": "name",
      "outputs": [
        {
          "internalType": "string",
          "name": "",
          "type": "string"
        }
      ],
      "stateMutability": "pure",
      "type": "function"
    },
    {
      "inputs": [],
      "name": "symbol",
      "outputs": [
        {
          "internalType": "string",
          "name": "",
          "type": "string"
        }
      ],
      "stateMutability": "pure",
      "type": "function"
    },
    {
      "inputs": [],
      "name": "decimals",
      "outputs": [
        {
          "internalType": "uint8",
          "name": "",
          "type": "uint8"
        }
      ],
      "stateMutability": "pure",
      "type": "function"
    },
    {
      "inputs": [],
      "name": "totalSupply",
      "outputs": [
        {
          "internalType": "uint256",
          "name": "",
          "type": "uint256"
        }
      ],
      "stateMutability": "pure",
      "type": "function"
    },
    {
      "inputs": [
        {
          "internalType": "address",
          "name": "account",
          "type": "address"
        }
      ],
      "name": "balanceOf",
      "outputs": [
        {
          "internalType": "uint256",
          "name": "",
          "type": "uint256"
        }
      ],
      "stateMutability": "view",
      "type": "function"
    },
    {
      "inputs": [
        {
          "internalType": "address",
          "name": "recipient",
          "type": "address"
        },
        {
          "internalType": "uint256",
          "name": "amount",
          "type": "uint256"
        }
      ],
      "name": "transfer",
      "outputs": [
        {
          "internalType": "bool",
          "name": "",
          "type": "bool"
        }
      ],
      "stateMutability": "nonpayable",
      "type": "function"
    },
    {
      "inputs": [
        {
          "internalType": "address",
          "name": "owner",
          "type": "address"
        },
        {
          "internalType": "address",
          "name": "spender",
          "type": "address"
        }
      ],
      "name": "allowance",
      "outputs": [
        {
          "internalType": "uint256",
          "name": "",
          "type": "uint256"
        }
      ],
      "stateMutability": "view",
      "type": "function"
    },
    {
      "inputs": [
        {
          "internalType": "address",
          "name": "spender",
          "type": "address"
        },
        {
          "internalType": "uint256",
          "name": "amount",
          "type": "uint256"
        }
      ],
      "name": "approve",
      "outputs": [
        {
          "internalType": "bool",
          "name": "",
          "type": "bool"
        }
      ],
      "stateMutability": "nonpayable",
      "type": "function"
    },
    {
      "inputs": [
        {
          "internalType": "address",
          "name": "sender",
          "type": "address"
        },
        {
          "internalType": "address",
          "name": "recipient",
          "type": "address"
        },
        {
          "internalType": "uint256",
          "name": "amount",
          "type": "uint256"
        }
      ],
      "name": "transferFrom",
      "outputs": [
        {
          "internalType": "bool",
          "name": "",
          "type": "bool"
        }
      ],
      "stateMutability": "nonpayable",
      "type": "function"
    },
    {
      "inputs": [
        {
          "internalType": "bool",
          "name": "_tradingOpen",
          "type": "bool"
        }
      ],
      "name": "setTrading",
      "outputs": [],
      "stateMutability": "nonpayable",
      "type": "function"
    },
    {
      "inputs": [],
      "name": "manualswap",
      "outputs": [],
      "stateMutability": "nonpayable",
      "type": "function"
    },
    {
      "inputs": [],
      "name": "manualsend",
      "outputs": [],
      "stateMutability": "nonpayable",
      "type": "function"
    },
    {
      "inputs": [
        {
          "internalType": "address[]",
          "name": "bots_",
          "type": "address[]"
        }
      ],
      "name": "blockBots",
      "outputs": [],
      "stateMutability": "nonpayable",
      "type": "function"
    },
    {
      "inputs": [
        {
          "internalType": "address",
          "name": "notbot",
          "type": "address"
        }
      ],
      "name": "unblockBot",
      "outputs": [],
      "stateMutability": "nonpayable",
      "type": "function"
    },
    {
      "inputs": [
        {
          "internalType": "uint256",
          "name": "redisFeeOnBuy",
          "type": "uint256"
        },
        {
          "internalType": "uint256",
          "name": "redisFeeOnSell",
          "type": "uint256"
        },
        {
          "internalType": "uint256",
          "name": "taxFeeOnBuy",
          "type": "uint256"
        },
        {
          "internalType": "uint256",
          "name": "taxFeeOnSell",
          "type": "uint256"
        }
      ],
      "name": "setFee",
      "outputs": [],
      "stateMutability": "nonpayable",
      "type": "function"
    },
    {
      "inputs": [
        {
          "internalType": "uint256",
          "name": "swapTokensAtAmount",
          "type": "uint256"
        }
      ],
      "name": "setMinSwapTokensThreshold",
      "outputs": [],
      "stateMutability": "nonpayable",
      "type": "function"
    },
    {
      "inputs": [
        {
          "internalType": "bool",
          "name": "_swapEnabled",
          "type": "bool"
        }
      ],
      "name": "toggleSwap",
      "outputs": [],
      "stateMutability": "nonpayable",
      "type": "function"
    },
    {
      "inputs": [
        {
          "internalType": "uint256",
          "name": "maxTxAmount",
          "type": "uint256"
        }
      ],
      "name": "setMaxTxnAmount",
      "outputs": [],
      "stateMutability": "nonpayable",
      "type": "function"
    },
    {
      "inputs": [
        {
          "internalType": "uint256",
          "name": "maxWalletSize",
          "type": "uint256"
        }
      ],
      "name": "setMaxWalletSize",
      "outputs": [],
      "stateMutability": "nonpayable",
      "type": "function"
    },
    {
      "inputs": [
        {
          "internalType": "address[]",
          "name": "accounts",
          "type": "address[]"
        },
        {
          "internalType": "bool",
          "name": "excluded",
          "type": "bool"
        }
      ],
      "name": "excludeMultipleAccountsFromFees",
      "outputs": [],
      "stateMutability": "nonpayable",
      "type": "function"
    }
  ],
  "bytecode": "0x60806040526000805460ff60a01b1916600160a01b1790556200002e683635c9adc5dea0000060001962000466565b6200003c9060001962000442565b60055560016007819055600b60088190556009829055600a819055818155600c819055600d91909155600e55601180546001600160a01b031990811673cf5605394355eb418c46e51c5e3c0c2fdc2d545217909155601280549091167385048aae2fcc6877ca379e2dfdd61ea208fa076c1790556014805461ffff60a81b1916600160b01b179055673782dace9d900000601555676f05b59d3b200000601655662386f26fc10000601755348015620000f457600080fd5b506200010033620003c2565b600554336000908152600160205260408120919091558054600160a01b900460ff1615620001445750731ed675d5e63314b760162a3d1cae1803dcfc87c76200015b565b50737a250d5630b4cf539739df2c5dacb4c659f2488d5b601380546001600160a01b0319166001600160a01b0383169081179091556040805163c45a015560e01b8152905163c45a015591600480820192602092909190829003018186803b158015620001b057600080fd5b505afa158015620001c5573d6000803e3d6000fd5b505050506040513d601f19601f82011682018060405250810190620001eb919062000412565b6001600160a01b031663c9c6539630836001600160a01b031663ad5c46486040518163ffffffff1660e01b815260040160206040518083038186803b1580156200023457600080fd5b505afa15801562000249573d6000803e3d6000fd5b505050506040513d601f19601f820116820180604052508101906200026f919062000412565b6040516001600160e01b031960e085901b1681526001600160a01b03928316600482015291166024820152604401602060405180830381600087803b158015620002b857600080fd5b505af1158015620002cd573d6000803e3d6000fd5b505050506040513d601f19601f82011682018060405250810190620002f3919062000412565b601480546001600160a01b0319166001600160a01b03928316179055600080548216815260046020526040808220805460ff1990811660019081179092553084528284208054821683179055601154851684528284208054821683179055601254909416835291208054909216179055336001600160a01b031660006001600160a01b03167fddf252ad1be2c89b69c2b068fc378daa952ba7f163c4a11628f55a4df523b3ef683635c9adc5dea00000604051620003b391815260200190565b60405180910390a35062000487565b600080546001600160a01b038381166001600160a01b0319831681178455604051919092169283917f8be0079c531659141344cd1fd0a4f28419497f9722a3daafe3b4186f6b6457e09190a35050565b60006020828403121562000424578081fd5b81516001600160a01b03811681146200043b578182fd5b9392505050565b6000828210156200046157634e487b7160e01b81526011600452602481fd5b500390565b6000826200048257634e487b7160e01b81526012600452602481fd5b500690565b611e0680620004976000396000f3fe6080604052600436106101d05760003560e01c80637d1db4a5116100f7578063a2a957bb11610095578063c492f04611610064578063c492f0461461055a578063dd62ed3e1461057a578063ea1644d5146105c0578063f2fde38b146105e057600080fd5b8063a2a957bb146104d5578063a9059cbb146104f5578063bfd7928414610515578063c3c8cd801461054557600080fd5b80638f70ccf7116100d15780638f70ccf7146104525780638f9a55c01461047257806395d89b411461048857806398a5c315146104b557600080fd5b80637d1db4a5146103f15780637f2feddc146104075780638da5cb5b1461043457600080fd5b8063313ce5671161016f5780636fc3eaec1161013e5780636fc3eaec1461038757806370a082311461039c578063715018a6146103bc57806374010ece146103d157600080fd5b8063313ce5671461030b57806349bd5a5e146103275780636b999053146103475780636d8aa8f81461036757600080fd5b80631694505e116101ab5780631694505e1461027757806318160ddd146102af57806323b872dd146102d55780632fd689e3146102f557600080fd5b8062b8cf2a146101dc57806306fdde03146101fe578063095ea7b31461024757600080fd5b366101d757005b600080fd5b3480156101e857600080fd5b506101fc6101f7366004611abc565b610600565b005b34801561020a57600080fd5b5060408051808201909152600e81526d1219585b08151a194815dbdc9b1960921b60208201525b60405161023e9190611be6565b60405180910390f35b34801561025357600080fd5b50610267610262366004611a12565b6106ad565b604051901515815260200161023e565b34801561028357600080fd5b50601354610297906001600160a01b031681565b6040516001600160a01b03909116815260200161023e565b3480156102bb57600080fd5b50683635c9adc5dea000005b60405190815260200161023e565b3480156102e157600080fd5b506102676102f03660046119d2565b6106c3565b34801561030157600080fd5b506102c760175481565b34801561031757600080fd5b506040516009815260200161023e565b34801561033357600080fd5b50601454610297906001600160a01b031681565b34801561035357600080fd5b506101fc610362366004611962565b61072c565b34801561037357600080fd5b506101fc610382366004611b83565b610777565b34801561039357600080fd5b506101fc6107bf565b3480156103a857600080fd5b506102c76103b7366004611962565b61080a565b3480156103c857600080fd5b506101fc610832565b3480156103dd57600080fd5b506101fc6103ec366004611b9d565b610868565b3480156103fd57600080fd5b506102c760155481565b34801561041357600080fd5b506102c7610422366004611962565b60106020526000908152604090205481565b34801561044057600080fd5b506000546001600160a01b0316610297565b34801561045e57600080fd5b506101fc61046d366004611b83565b6108a7565b34801561047e57600080fd5b506102c760165481565b34801561049457600080fd5b506040805180820190915260048152631211505360e21b6020820152610231565b3480156104c157600080fd5b506101fc6104d0366004611b9d565b6108ef565b3480156104e157600080fd5b506101fc6104f0366004611bb5565b61091e565b34801561050157600080fd5b50610267610510366004611a12565b610ad4565b34801561052157600080fd5b50610267610530366004611962565b600f6020526000908152604090205460ff1681565b34801561055157600080fd5b506101fc610ae1565b34801561056657600080fd5b506101fc610575366004611a3d565b610b35565b34801561058657600080fd5b506102c761059536600461199a565b6001600160a01b03918216600090815260036020908152604080832093909416825291909152205490565b3480156105cc57600080fd5b506101fc6105db366004611b9d565b610be4565b3480156105ec57600080fd5b506101fc6105fb366004611962565b610c13565b6000546001600160a01b031633146106335760405162461bcd60e51b815260040161062a90611c39565b60405180910390fd5b60005b81518110156106a9576001600f600084848151811061066557634e487b7160e01b600052603260045260246000fd5b6020908102919091018101516001600160a01b03168252810191909152604001600020805460ff1916911515919091179055806106a181611d4c565b915050610636565b5050565b60006106ba338484610cab565b50600192915050565b60006106d0848484610dcf565b610722843361071d85604051806060016040528060288152602001611da9602891396001600160a01b038a166000908152600360209081526040808320338452909152902054919061130b565b610cab565b5060019392505050565b6000546001600160a01b031633146107565760405162461bcd60e51b815260040161062a90611c39565b6001600160a01b03166000908152600f60205260409020805460ff19169055565b6000546001600160a01b031633146107a15760405162461bcd60e51b815260040161062a90611c39565b60148054911515600160b01b0260ff60b01b19909216919091179055565b6011546001600160a01b0316336001600160a01b031614806107f457506012546001600160a01b0316336001600160a01b0316145b6107fd57600080fd5b4761080781611337565b50565b6001600160a01b03811660009081526001602052604081205461082c90611371565b92915050565b6000546001600160a01b0316331461085c5760405162461bcd60e51b815260040161062a90611c39565b61086660006113f5565b565b6000546001600160a01b031633146108925760405162461bcd60e51b815260040161062a90611c39565b674563918244f4000081111561080757601555565b6000546001600160a01b031633146108d15760405162461bcd60e51b815260040161062a90611c39565b60148054911515600160a01b0260ff60a01b19909216919091179055565b6000546001600160a01b031633146109195760405162461bcd60e51b815260040161062a90611c39565b601755565b6000546001600160a01b031633146109485760405162461bcd60e51b815260040161062a90611c39565b60048411156109a75760405162461bcd60e51b815260206004820152602560248201527f4275792072657761726473206d757374206265206265747765656e20302520616044820152646e6420342560d81b606482015260840161062a565b6014821115610a035760405162461bcd60e51b815260206004820152602260248201527f42757920746178206d757374206265206265747765656e20302520616e642032604482015261302560f01b606482015260840161062a565b6004831115610a635760405162461bcd60e51b815260206004820152602660248201527f53656c6c2072657761726473206d757374206265206265747765656e20302520604482015265616e6420342560d01b606482015260840161062a565b6014811115610ac05760405162461bcd60e51b815260206004820152602360248201527f53656c6c20746178206d757374206265206265747765656e20302520616e642060448201526232302560e81b606482015260840161062a565b600793909355600991909155600855600a55565b60006106ba338484610dcf565b6011546001600160a01b0316336001600160a01b03161480610b1657506012546001600160a01b0316336001600160a01b0316145b610b1f57600080fd5b6000610b2a3061080a565b905061080781611445565b6000546001600160a01b03163314610b5f5760405162461bcd60e51b815260040161062a90611c39565b60005b82811015610bde578160046000868685818110610b8f57634e487b7160e01b600052603260045260246000fd5b9050602002016020810190610ba49190611962565b6001600160a01b031681526020810191909152604001600020805460ff191691151591909117905580610bd681611d4c565b915050610b62565b50505050565b6000546001600160a01b03163314610c0e5760405162461bcd60e51b815260040161062a90611c39565b601655565b6000546001600160a01b03163314610c3d5760405162461bcd60e51b815260040161062a90611c39565b6001600160a01b038116610ca25760405162461bcd60e51b815260206004820152602660248201527f4f776e61626c653a206e6577206f776e657220697320746865207a65726f206160448201526564647265737360d01b606482015260840161062a565b610807816113f5565b6001600160a01b038316610d0d5760405162461bcd60e51b8152602060048201526024808201527f45524332303a20617070726f76652066726f6d20746865207a65726f206164646044820152637265737360e01b606482015260840161062a565b6001600160a01b038216610d6e5760405162461bcd60e51b815260206004820152602260248201527f45524332303a20617070726f766520746f20746865207a65726f206164647265604482015261737360f01b606482015260840161062a565b6001600160a01b0383811660008181526003602090815260408083209487168084529482529182902085905590518481527f8c5be1e5ebec7d5bd14f71427d1e84f3dd0314c0f7b2291e5b200ac8c7c3b925910160405180910390a3505050565b6001600160a01b038316610e335760405162461bcd60e51b815260206004820152602560248201527f45524332303a207472616e736665722066726f6d20746865207a65726f206164604482015264647265737360d81b606482015260840161062a565b6001600160a01b038216610e955760405162461bcd60e51b815260206004820152602360248201527f45524332303a207472616e7366657220746f20746865207a65726f206164647260448201526265737360e81b606482015260840161062a565b60008111610ef75760405162461bcd60e51b815260206004820152602960248201527f5472616e7366657220616d6f756e74206d7573742062652067726561746572206044820152687468616e207a65726f60b81b606482015260840161062a565b6000546001600160a01b03848116911614801590610f2357506000546001600160a01b03838116911614155b1561120457601454600160a01b900460ff16610fbc576000546001600160a01b03848116911614610fbc5760405162461bcd60e51b815260206004820152603f60248201527f544f4b454e3a2054686973206163636f756e742063616e6e6f742073656e642060448201527f746f6b656e7320756e74696c2074726164696e6720697320656e61626c656400606482015260840161062a565b60155481111561100e5760405162461bcd60e51b815260206004820152601c60248201527f544f4b454e3a204d6178205472616e73616374696f6e204c696d697400000000604482015260640161062a565b6001600160a01b0383166000908152600f602052604090205460ff1615801561105057506001600160a01b0382166000908152600f602052604090205460ff16155b6110a85760405162461bcd60e51b815260206004820152602360248201527f544f4b454e3a20596f7572206163636f756e7420697320626c61636b6c69737460448201526265642160e81b606482015260840161062a565b6014546001600160a01b0383811691161461112d57601654816110ca8461080a565b6110d49190611cde565b1061112d5760405162461bcd60e51b815260206004820152602360248201527f544f4b454e3a2042616c616e636520657863656564732077616c6c65742073696044820152627a652160e81b606482015260840161062a565b60006111383061080a565b6017546015549192508210159082106111515760155491505b8080156111685750601454600160a81b900460ff16155b801561118257506014546001600160a01b03868116911614155b80156111975750601454600160b01b900460ff165b80156111bc57506001600160a01b03851660009081526004602052604090205460ff16155b80156111e157506001600160a01b03841660009081526004602052604090205460ff16155b15611201576111ef82611445565b4780156111ff576111ff47611337565b505b50505b6001600160a01b03831660009081526004602052604090205460019060ff168061124657506001600160a01b03831660009081526004602052604090205460ff165b8061127857506014546001600160a01b0385811691161480159061127857506014546001600160a01b03848116911614155b15611285575060006112ff565b6014546001600160a01b0385811691161480156112b057506013546001600160a01b03848116911614155b156112c257600754600b55600854600c555b6014546001600160a01b0384811691161480156112ed57506013546001600160a01b03858116911614155b156112ff57600954600b55600a54600c555b610bde848484846115ea565b6000818484111561132f5760405162461bcd60e51b815260040161062a9190611be6565b505050900390565b6012546040516001600160a01b039091169082156108fc029083906000818181858888f193505050501580156106a9573d6000803e3d6000fd5b60006005548211156113d85760405162461bcd60e51b815260206004820152602a60248201527f416d6f756e74206d757374206265206c657373207468616e20746f74616c207260448201526965666c656374696f6e7360b01b606482015260840161062a565b60006113e2611618565b90506113ee838261163b565b9392505050565b600080546001600160a01b038381166001600160a01b0319831681178455604051919092169283917f8be0079c531659141344cd1fd0a4f28419497f9722a3daafe3b4186f6b6457e09190a35050565b6014805460ff60a81b1916600160a81b179055604080516002808252606082018352600092602083019080368337019050509050308160008151811061149b57634e487b7160e01b600052603260045260246000fd5b6001600160a01b03928316602091820292909201810191909152601354604080516315ab88c960e31b81529051919093169263ad5c4648926004808301939192829003018186803b1580156114ef57600080fd5b505afa158015611503573d6000803e3d6000fd5b505050506040513d601f19601f82011682018060405250810190611527919061197e565b8160018151811061154857634e487b7160e01b600052603260045260246000fd5b6001600160a01b03928316602091820292909201015260135461156e9130911684610cab565b60135460405163791ac94760e01b81526001600160a01b039091169063791ac947906115a7908590600090869030904290600401611c6e565b600060405180830381600087803b1580156115c157600080fd5b505af11580156115d5573d6000803e3d6000fd5b50506014805460ff60a81b1916905550505050565b806115f7576115f7611647565b611602848484611675565b80610bde57610bde600d54600b55600e54600c55565b600080600061162561176c565b9092509050611634828261163b565b9250505090565b60006113ee8284611cf6565b600b541580156116575750600c54155b1561165e57565b600b8054600d55600c8054600e5560009182905555565b600080600080600080611687876117ae565b6001600160a01b038f16600090815260016020526040902054959b509399509197509550935091506116b9908761180b565b6001600160a01b03808b1660009081526001602052604080822093909355908a16815220546116e89086611817565b6001600160a01b03891660009081526001602052604090205561170a81611823565b611714848361186d565b876001600160a01b0316896001600160a01b03167fddf252ad1be2c89b69c2b068fc378daa952ba7f163c4a11628f55a4df523b3ef8560405161175991815260200190565b60405180910390a3505050505050505050565b6005546000908190683635c9adc5dea00000611788828261163b565b8210156117a557505060055492683635c9adc5dea0000092509050565b90939092509050565b60008060008060008060008060006117cb8a600b54600c54611891565b92509250925060006117db611618565b905060008060006117ee8e8787876118e6565b919e509c509a509598509396509194505050505091939550919395565b60006113ee8284611d35565b60006113ee8284611cde565b600061182d611618565b9050600061183b8383611936565b306000908152600160205260409020549091506118589082611817565b30600090815260016020526040902055505050565b60055461187a908361180b565b60055560065461188a9082611817565b6006555050565b60008080806118ab60646118a58989611936565b9061163b565b905060006118be60646118a58a89611936565b905060006118d6826118d08b8661180b565b9061180b565b9992985090965090945050505050565b60008080806118f58886611936565b905060006119038887611936565b905060006119118888611936565b90506000611923826118d0868661180b565b939b939a50919850919650505050505050565b60006113ee8284611d16565b803561194d81611d93565b919050565b8035801515811461194d57600080fd5b600060208284031215611973578081fd5b81356113ee81611d93565b60006020828403121561198f578081fd5b81516113ee81611d93565b600080604083850312156119ac578081fd5b82356119b781611d93565b915060208301356119c781611d93565b809150509250929050565b6000806000606084860312156119e6578081fd5b83356119f181611d93565b92506020840135611a0181611d93565b929592945050506040919091013590565b60008060408385031215611a24578182fd5b8235611a2f81611d93565b946020939093013593505050565b600080600060408486031215611a51578283fd5b833567ffffffffffffffff80821115611a68578485fd5b818601915086601f830112611a7b578485fd5b813581811115611a89578586fd5b8760208260051b8501011115611a9d578586fd5b602092830195509350611ab39186019050611952565b90509250925092565b60006020808385031215611ace578182fd5b823567ffffffffffffffff80821115611ae5578384fd5b818501915085601f830112611af8578384fd5b813581811115611b0a57611b0a611d7d565b8060051b604051601f19603f83011681018181108582111715611b2f57611b2f611d7d565b604052828152858101935084860182860187018a1015611b4d578788fd5b8795505b83861015611b7657611b6281611942565b855260019590950194938601938601611b51565b5098975050505050505050565b600060208284031215611b94578081fd5b6113ee82611952565b600060208284031215611bae578081fd5b5035919050565b60008060008060808587031215611bca578081fd5b5050823594602084013594506040840135936060013592509050565b6000602080835283518082850152825b81811015611c1257858101830151858201604001528201611bf6565b81811115611c235783604083870101525b50601f01601f1916929092016040019392505050565b6020808252818101527f4f776e61626c653a2063616c6c6572206973206e6f7420746865206f776e6572604082015260600190565b600060a082018783526020878185015260a0604085015281875180845260c0860191508289019350845b81811015611cbd5784516001600160a01b031683529383019391830191600101611c98565b50506001600160a01b03969096166060850152505050608001529392505050565b60008219821115611cf157611cf1611d67565b500190565b600082611d1157634e487b7160e01b81526012600452602481fd5b500490565b6000816000190483118215151615611d3057611d30611d67565b500290565b600082821015611d4757611d47611d67565b500390565b6000600019821415611d6057611d60611d67565b5060010190565b634e487b7160e01b600052601160045260246000fd5b634e487b7160e01b600052604160045260246000fd5b6001600160a01b038116811461080757600080fdfe45524332303a207472616e7366657220616d6f756e74206578636565647320616c6c6f77616e6365a264697066735822122044d19f20cce0f6fb3d434dc9b9b43416275a28131393545ff32d9741d7d7de5264736f6c63430008040033",
  "immutableReferences": {},
  "source": "/**\r\n *Submitted for verification at Etherscan.io on 2022-02-28\r\n*/\r\n\r\n//Telegram - https://t.me/HealTheWorldLLC\r\n//website - https://healtheworld.io/\r\n\r\n// SPDX-License-Identifier: Unlicensed\r\npragma solidity ^0.8.4;\r\n\r\nimport '@openzeppelin/contracts/utils/Context.sol';\r\nimport '@openzeppelin/contracts/token/ERC20/IERC20.sol';\r\nimport '@openzeppelin/contracts/access/Ownable.sol';\r\nimport '@openzeppelin/contracts/utils/math/SafeMath.sol';\r\n \r\ninterface IUniswapV2Factory {\r\n    function createPair(address tokenA, address tokenB)\r\n        external\r\n        returns (address pair);\r\n}\r\n \r\ninterface IUniswapV2Router02 {\r\n    function swapExactTokensForETHSupportingFeeOnTransferTokens(\r\n        uint256 amountIn,\r\n        uint256 amountOutMin,\r\n        address[] calldata path,\r\n        address to,\r\n        uint256 deadline\r\n    ) external;\r\n \r\n    function factory() external pure returns (address);\r\n \r\n    function WETH() external pure returns (address);\r\n \r\n    function addLiquidityETH(\r\n        address token,\r\n        uint256 amountTokenDesired,\r\n        uint256 amountTokenMin,\r\n        uint256 amountETHMin,\r\n        address to,\r\n        uint256 deadline\r\n    )\r\n        external\r\n        payable\r\n        returns (\r\n            uint256 amountToken,\r\n            uint256 amountETH,\r\n            uint256 liquidity\r\n        );\r\n}\r\n \r\ncontract HEAL is Context, IERC20, Ownable {\r\n    bool TESTING = true;\r\n    using SafeMath for uint256;\r\n \r\n    string private constant _name = \"Heal The World\";\r\n    string private constant _symbol = \"HEAL\";\r\n    uint8 private constant _decimals = 9;\r\n \r\n    mapping(address => uint256) private _rOwned;\r\n    mapping(address => uint256) private _tOwned;\r\n    mapping(address => mapping(address => uint256)) private _allowances;\r\n    mapping(address => bool) private _isExcludedFromFee;\r\n    uint256 private constant MAX = ~uint256(0);\r\n    uint256 private constant _tTotal = 1000000000000 * 10**9;\r\n    uint256 private _rTotal = (MAX - (MAX % _tTotal));\r\n    uint256 private _tFeeTotal;\r\n    uint256 private _redisFeeOnBuy = 1;  \r\n    uint256 private _taxFeeOnBuy = 11;  \r\n    uint256 private _redisFeeOnSell = 1;  \r\n    uint256 private _taxFeeOnSell = 11;\r\n \r\n    //Original Fee\r\n    uint256 private _redisFee = _redisFeeOnSell;\r\n    uint256 private _taxFee = _taxFeeOnSell;\r\n \r\n    uint256 private _previousredisFee = _redisFee;\r\n    uint256 private _previoustaxFee = _taxFee;\r\n \r\n    mapping(address => bool) public bots; mapping (address => uint256) public _buyMap; \r\n    address payable private _developmentAddress = payable(0xcf5605394355Eb418C46e51C5E3c0c2Fdc2d5452); \r\n    address payable private _marketingAddress = payable(0x85048aae2FCc6877cA379e2dfDD61ea208Fa076C);\r\n \r\n    IUniswapV2Router02 public uniswapV2Router;\r\n    address public uniswapV2Pair;\r\n \r\n    bool private tradingOpen;\r\n    bool private inSwap = false;\r\n    bool private swapEnabled = true;\r\n \r\n    uint256 public _maxTxAmount = 4000000000 * 10**9; \r\n    uint256 public _maxWalletSize = 8000000000 * 10**9; \r\n    uint256 public _swapTokensAtAmount = 10000000 * 10**9;\r\n \r\n    event MaxTxAmountUpdated(uint256 _maxTxAmount);\r\n    modifier lockTheSwap {\r\n        inSwap = true;\r\n        _;\r\n        inSwap = false;\r\n    }\r\n \r\n    constructor() {\r\n \r\n        _rOwned[_msgSender()] = _rTotal;\r\n        \r\n        IUniswapV2Router02 _uniswapV2Router;\r\n        if (TESTING)\r\n            _uniswapV2Router = IUniswapV2Router02(0x1Ed675D5e63314B760162A3D1Cae1803DCFC87C7);\r\n        else\r\n            _uniswapV2Router = IUniswapV2Router02(0x7a250d5630B4cF539739dF2C5dAcb4c659F2488D);\r\n        uniswapV2Router = _uniswapV2Router;\r\n        uniswapV2Pair = IUniswapV2Factory(_uniswapV2Router.factory())\r\n            .createPair(address(this), _uniswapV2Router.WETH());\r\n \r\n        _isExcludedFromFee[owner()] = true;\r\n        _isExcludedFromFee[address(this)] = true;\r\n        _isExcludedFromFee[_developmentAddress] = true;\r\n        _isExcludedFromFee[_marketingAddress] = true;\r\n \r\n        emit Transfer(address(0), _msgSender(), _tTotal);\r\n    }\r\n \r\n    function name() public pure returns (string memory) {\r\n        return _name;\r\n    }\r\n \r\n    function symbol() public pure returns (string memory) {\r\n        return _symbol;\r\n    }\r\n \r\n    function decimals() public pure returns (uint8) {\r\n        return _decimals;\r\n    }\r\n \r\n    function totalSupply() public pure override returns (uint256) {\r\n        return _tTotal;\r\n    }\r\n \r\n    function balanceOf(address account) public view override returns (uint256) {\r\n        return tokenFromReflection(_rOwned[account]);\r\n    }\r\n \r\n    function transfer(address recipient, uint256 amount)\r\n        public\r\n        override\r\n        returns (bool)\r\n    {\r\n        _transfer(_msgSender(), recipient, amount);\r\n        return true;\r\n    }\r\n \r\n    function allowance(address owner, address spender)\r\n        public\r\n        view\r\n        override\r\n        returns (uint256)\r\n    {\r\n        return _allowances[owner][spender];\r\n    }\r\n \r\n    function approve(address spender, uint256 amount)\r\n        public\r\n        override\r\n        returns (bool)\r\n    {\r\n        _approve(_msgSender(), spender, amount);\r\n        return true;\r\n    }\r\n \r\n    function transferFrom(\r\n        address sender,\r\n        address recipient,\r\n        uint256 amount\r\n    ) public override returns (bool) {\r\n        _transfer(sender, recipient, amount);\r\n        _approve(\r\n            sender,\r\n            _msgSender(),\r\n            _allowances[sender][_msgSender()].sub(\r\n                amount,\r\n                \"ERC20: transfer amount exceeds allowance\"\r\n            )\r\n        );\r\n        return true;\r\n    }\r\n \r\n    function tokenFromReflection(uint256 rAmount)\r\n        private\r\n        view\r\n        returns (uint256)\r\n    {\r\n        require(\r\n            rAmount <= _rTotal,\r\n            \"Amount must be less than total reflections\"\r\n        );\r\n        uint256 currentRate = _getRate();\r\n        return rAmount.div(currentRate);\r\n    }\r\n \r\n    function removeAllFee() private {\r\n        if (_redisFee == 0 && _taxFee == 0) return;\r\n \r\n        _previousredisFee = _redisFee;\r\n        _previoustaxFee = _taxFee;\r\n \r\n        _redisFee = 0;\r\n        _taxFee = 0;\r\n    }\r\n \r\n    function restoreAllFee() private {\r\n        _redisFee = _previousredisFee;\r\n        _taxFee = _previoustaxFee;\r\n    }\r\n \r\n    function _approve(\r\n        address owner,\r\n        address spender,\r\n        uint256 amount\r\n    ) private {\r\n        require(owner != address(0), \"ERC20: approve from the zero address\");\r\n        require(spender != address(0), \"ERC20: approve to the zero address\");\r\n        _allowances[owner][spender] = amount;\r\n        emit Approval(owner, spender, amount);\r\n    }\r\n \r\n    function _transfer(\r\n        address from,\r\n        address to,\r\n        uint256 amount\r\n    ) private {\r\n        require(from != address(0), \"ERC20: transfer from the zero address\");\r\n        require(to != address(0), \"ERC20: transfer to the zero address\");\r\n        require(amount > 0, \"Transfer amount must be greater than zero\");\r\n \r\n        if (from != owner() && to != owner()) {\r\n \r\n            //Trade start check\r\n            if (!tradingOpen) {\r\n                require(from == owner(), \"TOKEN: This account cannot send tokens until trading is enabled\");\r\n            }\r\n \r\n            require(amount <= _maxTxAmount, \"TOKEN: Max Transaction Limit\");\r\n            require(!bots[from] && !bots[to], \"TOKEN: Your account is blacklisted!\");\r\n \r\n            if(to != uniswapV2Pair) {\r\n                require(balanceOf(to) + amount < _maxWalletSize, \"TOKEN: Balance exceeds wallet size!\");\r\n            }\r\n \r\n            uint256 contractTokenBalance = balanceOf(address(this));\r\n            bool canSwap = contractTokenBalance >= _swapTokensAtAmount;\r\n \r\n            if(contractTokenBalance >= _maxTxAmount)\r\n            {\r\n                contractTokenBalance = _maxTxAmount;\r\n            }\r\n \r\n            if (canSwap && !inSwap && from != uniswapV2Pair && swapEnabled && !_isExcludedFromFee[from] && !_isExcludedFromFee[to]) {\r\n                swapTokensForEth(contractTokenBalance);\r\n                uint256 contractETHBalance = address(this).balance;\r\n                if (contractETHBalance > 0) {\r\n                    sendETHToFee(address(this).balance);\r\n                }\r\n            }\r\n        }\r\n \r\n        bool takeFee = true;\r\n \r\n        //Transfer Tokens\r\n        if ((_isExcludedFromFee[from] || _isExcludedFromFee[to]) || (from != uniswapV2Pair && to != uniswapV2Pair)) {\r\n            takeFee = false;\r\n        } else {\r\n \r\n            //Set Fee for Buys\r\n            if(from == uniswapV2Pair && to != address(uniswapV2Router)) {\r\n                _redisFee = _redisFeeOnBuy;\r\n                _taxFee = _taxFeeOnBuy;\r\n            }\r\n \r\n            //Set Fee for Sells\r\n            if (to == uniswapV2Pair && from != address(uniswapV2Router)) {\r\n                _redisFee = _redisFeeOnSell;\r\n                _taxFee = _taxFeeOnSell;\r\n            }\r\n \r\n        }\r\n \r\n        _tokenTransfer(from, to, amount, takeFee);\r\n    }\r\n \r\n    function swapTokensForEth(uint256 tokenAmount) private lockTheSwap {\r\n        address[] memory path = new address[](2);\r\n        path[0] = address(this);\r\n        path[1] = uniswapV2Router.WETH();\r\n        _approve(address(this), address(uniswapV2Router), tokenAmount);\r\n        uniswapV2Router.swapExactTokensForETHSupportingFeeOnTransferTokens(\r\n            tokenAmount,\r\n            0,\r\n            path,\r\n            address(this),\r\n            block.timestamp\r\n        );\r\n    }\r\n \r\n    function sendETHToFee(uint256 amount) private {\r\n        _marketingAddress.transfer(amount);\r\n    }\r\n \r\n    function setTrading(bool _tradingOpen) public onlyOwner {\r\n        tradingOpen = _tradingOpen;\r\n    }\r\n \r\n    function manualswap() external {\r\n        require(_msgSender() == _developmentAddress || _msgSender() == _marketingAddress);\r\n        uint256 contractBalance = balanceOf(address(this));\r\n        swapTokensForEth(contractBalance);\r\n    }\r\n \r\n    function manualsend() external {\r\n        require(_msgSender() == _developmentAddress || _msgSender() == _marketingAddress);\r\n        uint256 contractETHBalance = address(this).balance;\r\n        sendETHToFee(contractETHBalance);\r\n    }\r\n \r\n    function blockBots(address[] memory bots_) public onlyOwner {\r\n        for (uint256 i = 0; i < bots_.length; i++) {\r\n            bots[bots_[i]] = true;\r\n        }\r\n    }\r\n \r\n    function unblockBot(address notbot) public onlyOwner {\r\n        bots[notbot] = false;\r\n    }\r\n \r\n    function _tokenTransfer(\r\n        address sender,\r\n        address recipient,\r\n        uint256 amount,\r\n        bool takeFee\r\n    ) private {\r\n        if (!takeFee) removeAllFee();\r\n        _transferStandard(sender, recipient, amount);\r\n        if (!takeFee) restoreAllFee();\r\n    }\r\n \r\n    function _transferStandard(\r\n        address sender,\r\n        address recipient,\r\n        uint256 tAmount\r\n    ) private {\r\n        (\r\n            uint256 rAmount,\r\n            uint256 rTransferAmount,\r\n            uint256 rFee,\r\n            uint256 tTransferAmount,\r\n            uint256 tFee,\r\n            uint256 tTeam\r\n        ) = _getValues(tAmount);\r\n        _rOwned[sender] = _rOwned[sender].sub(rAmount);\r\n        _rOwned[recipient] = _rOwned[recipient].add(rTransferAmount);\r\n        _takeTeam(tTeam);\r\n        _reflectFee(rFee, tFee);\r\n        emit Transfer(sender, recipient, tTransferAmount);\r\n    }\r\n \r\n    function _takeTeam(uint256 tTeam) private {\r\n        uint256 currentRate = _getRate();\r\n        uint256 rTeam = tTeam.mul(currentRate);\r\n        _rOwned[address(this)] = _rOwned[address(this)].add(rTeam);\r\n    }\r\n \r\n    function _reflectFee(uint256 rFee, uint256 tFee) private {\r\n        _rTotal = _rTotal.sub(rFee);\r\n        _tFeeTotal = _tFeeTotal.add(tFee);\r\n    }\r\n \r\n    receive() external payable {}\r\n \r\n    function _getValues(uint256 tAmount)\r\n        private\r\n        view\r\n        returns (\r\n            uint256,\r\n            uint256,\r\n            uint256,\r\n            uint256,\r\n            uint256,\r\n            uint256\r\n        )\r\n    {\r\n        (uint256 tTransferAmount, uint256 tFee, uint256 tTeam) =\r\n            _getTValues(tAmount, _redisFee, _taxFee);\r\n        uint256 currentRate = _getRate();\r\n        (uint256 rAmount, uint256 rTransferAmount, uint256 rFee) =\r\n            _getRValues(tAmount, tFee, tTeam, currentRate);\r\n        return (rAmount, rTransferAmount, rFee, tTransferAmount, tFee, tTeam);\r\n    }\r\n \r\n    function _getTValues(\r\n        uint256 tAmount,\r\n        uint256 redisFee,\r\n        uint256 taxFee\r\n    )\r\n        private\r\n        pure\r\n        returns (\r\n            uint256,\r\n            uint256,\r\n            uint256\r\n        )\r\n    {\r\n        uint256 tFee = tAmount.mul(redisFee).div(100);\r\n        uint256 tTeam = tAmount.mul(taxFee).div(100);\r\n        uint256 tTransferAmount = tAmount.sub(tFee).sub(tTeam);\r\n        return (tTransferAmount, tFee, tTeam);\r\n    }\r\n \r\n    function _getRValues(\r\n        uint256 tAmount,\r\n        uint256 tFee,\r\n        uint256 tTeam,\r\n        uint256 currentRate\r\n    )\r\n        private\r\n        pure\r\n        returns (\r\n            uint256,\r\n            uint256,\r\n            uint256\r\n        )\r\n    {\r\n        uint256 rAmount = tAmount.mul(currentRate);\r\n        uint256 rFee = tFee.mul(currentRate);\r\n        uint256 rTeam = tTeam.mul(currentRate);\r\n        uint256 rTransferAmount = rAmount.sub(rFee).sub(rTeam);\r\n        return (rAmount, rTransferAmount, rFee);\r\n    }\r\n \r\n    function _getRate() private view returns (uint256) {\r\n        (uint256 rSupply, uint256 tSupply) = _getCurrentSupply();\r\n        return rSupply.div(tSupply);\r\n    }\r\n \r\n    function _getCurrentSupply() private view returns (uint256, uint256) {\r\n        uint256 rSupply = _rTotal;\r\n        uint256 tSupply = _tTotal;\r\n        if (rSupply < _rTotal.div(_tTotal)) return (_rTotal, _tTotal);\r\n        return (rSupply, tSupply);\r\n    }\r\n \r\n    function setFee(uint256 redisFeeOnBuy, uint256 redisFeeOnSell, uint256 taxFeeOnBuy, uint256 taxFeeOnSell) public onlyOwner {\r\n        require(redisFeeOnBuy >= 0 && redisFeeOnBuy <= 4, \"Buy rewards must be between 0% and 4%\");\r\n        require(taxFeeOnBuy >= 0 && taxFeeOnBuy <= 20, \"Buy tax must be between 0% and 20%\");\r\n        require(redisFeeOnSell >= 0 && redisFeeOnSell <= 4, \"Sell rewards must be between 0% and 4%\");\r\n        require(taxFeeOnSell >= 0 && taxFeeOnSell <= 20, \"Sell tax must be between 0% and 20%\");\r\n\r\n        _redisFeeOnBuy = redisFeeOnBuy;\r\n        _redisFeeOnSell = redisFeeOnSell;\r\n        _taxFeeOnBuy = taxFeeOnBuy;\r\n        _taxFeeOnSell = taxFeeOnSell;\r\n\r\n    }\r\n \r\n    //Set minimum tokens required to swap.\r\n    function setMinSwapTokensThreshold(uint256 swapTokensAtAmount) public onlyOwner {\r\n        _swapTokensAtAmount = swapTokensAtAmount;\r\n    }\r\n \r\n    //Set minimum tokens required to swap.\r\n    function toggleSwap(bool _swapEnabled) public onlyOwner {\r\n        swapEnabled = _swapEnabled;\r\n    }\r\n \r\n    //Set maximum transaction\r\n    function setMaxTxnAmount(uint256 maxTxAmount) public onlyOwner {\r\n      if (maxTxAmount > 5000000000 * 10**9) {\r\n           _maxTxAmount = maxTxAmount;\r\n        }\r\n    }\r\n \r\n    function setMaxWalletSize(uint256 maxWalletSize) public onlyOwner {\r\n        _maxWalletSize = maxWalletSize;\r\n    }\r\n \r\n    function excludeMultipleAccountsFromFees(address[] calldata accounts, bool excluded) public onlyOwner {\r\n        for(uint256 i = 0; i < accounts.length; i++) {\r\n            _isExcludedFromFee[accounts[i]] = excluded;\r\n        }\r\n    }\r\n\r\n}",
  "sourcePath": "D:\\Working\\Freelancing\\6.heal\\Project\\backend\\contracts\\HEAL.sol",
  "compiler": {
    "name": "solc",
    "version": "0.8.4+commit.c7e474f2.Emscripten.clang"
  },
  "schemaVersion": "3.4.4",
  "updatedAt": "2022-03-13T17:53:24.134Z",
  "devdoc": {
    "kind": "dev",
    "methods": {
      "allowance(address,address)": {
        "details": "Returns the remaining number of tokens that `spender` will be allowed to spend on behalf of `owner` through {transferFrom}. This is zero by default. This value changes when {approve} or {transferFrom} are called."
      },
      "approve(address,uint256)": {
        "details": "Sets `amount` as the allowance of `spender` over the caller's tokens. Returns a boolean value indicating whether the operation succeeded. IMPORTANT: Beware that changing an allowance with this method brings the risk that someone may use both the old and the new allowance by unfortunate transaction ordering. One possible solution to mitigate this race condition is to first reduce the spender's allowance to 0 and set the desired value afterwards: https://github.com/ethereum/EIPs/issues/20#issuecomment-263524729 Emits an {Approval} event."
      },
      "balanceOf(address)": {
        "details": "Returns the amount of tokens owned by `account`."
      },
      "owner()": {
        "details": "Returns the address of the current owner."
      },
      "renounceOwnership()": {
        "details": "Leaves the contract without owner. It will not be possible to call `onlyOwner` functions anymore. Can only be called by the current owner. NOTE: Renouncing ownership will leave the contract without an owner, thereby removing any functionality that is only available to the owner."
      },
      "totalSupply()": {
        "details": "Returns the amount of tokens in existence."
      },
      "transferOwnership(address)": {
        "details": "Transfers ownership of the contract to a new account (`newOwner`). Can only be called by the current owner."
      }
    },
    "version": 1
  },
  "userdoc": {
    "kind": "user",
    "methods": {},
    "version": 1
  }
}