{
  "contractName": "HEAL",
  "abi": [
    {
      "inputs": [
        {
          "internalType": "address",
          "name": "_uniswapFactory",
          "type": "address"
        },
        {
          "internalType": "address",
          "name": "_uniswapRouter",
          "type": "address"
        },
        {
          "internalType": "address payable",
          "name": "_buybackWallet",
          "type": "address"
        },
        {
          "internalType": "address payable",
          "name": "_treasuryWallet",
          "type": "address"
        },
        {
          "internalType": "address payable",
          "name": "_charityWallet",
          "type": "address"
        }
      ],
      "stateMutability": "nonpayable",
      "type": "constructor"
    },
    {
      "anonymous": false,
      "inputs": [
        {
          "indexed": true,
          "internalType": "address",
          "name": "owner",
          "type": "address"
        },
        {
          "indexed": true,
          "internalType": "address",
          "name": "spender",
          "type": "address"
        },
        {
          "indexed": false,
          "internalType": "uint256",
          "name": "value",
          "type": "uint256"
        }
      ],
      "name": "Approval",
      "type": "event"
    },
    {
      "anonymous": false,
      "inputs": [
        {
          "indexed": true,
          "internalType": "address",
          "name": "previousOwner",
          "type": "address"
        },
        {
          "indexed": true,
          "internalType": "address",
          "name": "newOwner",
          "type": "address"
        }
      ],
      "name": "OwnershipTransferred",
      "type": "event"
    },
    {
      "anonymous": false,
      "inputs": [
        {
          "indexed": true,
          "internalType": "address",
          "name": "from",
          "type": "address"
        },
        {
          "indexed": true,
          "internalType": "address",
          "name": "to",
          "type": "address"
        },
        {
          "indexed": false,
          "internalType": "uint256",
          "name": "value",
          "type": "uint256"
        }
      ],
      "name": "Transfer",
      "type": "event"
    },
    {
      "inputs": [],
      "name": "MAX_SUPPLY",
      "outputs": [
        {
          "internalType": "uint256",
          "name": "",
          "type": "uint256"
        }
      ],
      "stateMutability": "view",
      "type": "function",
      "constant": true
    },
    {
      "inputs": [
        {
          "internalType": "address",
          "name": "owner",
          "type": "address"
        },
        {
          "internalType": "address",
          "name": "spender",
          "type": "address"
        }
      ],
      "name": "allowance",
      "outputs": [
        {
          "internalType": "uint256",
          "name": "",
          "type": "uint256"
        }
      ],
      "stateMutability": "view",
      "type": "function",
      "constant": true
    },
    {
      "inputs": [
        {
          "internalType": "address",
          "name": "spender",
          "type": "address"
        },
        {
          "internalType": "uint256",
          "name": "amount",
          "type": "uint256"
        }
      ],
      "name": "approve",
      "outputs": [
        {
          "internalType": "bool",
          "name": "",
          "type": "bool"
        }
      ],
      "stateMutability": "nonpayable",
      "type": "function"
    },
    {
      "inputs": [],
      "name": "buybackWallet",
      "outputs": [
        {
          "internalType": "address payable",
          "name": "",
          "type": "address"
        }
      ],
      "stateMutability": "view",
      "type": "function",
      "constant": true
    },
    {
      "inputs": [],
      "name": "charityRate",
      "outputs": [
        {
          "internalType": "uint256",
          "name": "",
          "type": "uint256"
        }
      ],
      "stateMutability": "view",
      "type": "function",
      "constant": true
    },
    {
      "inputs": [],
      "name": "charityWallet",
      "outputs": [
        {
          "internalType": "address payable",
          "name": "",
          "type": "address"
        }
      ],
      "stateMutability": "view",
      "type": "function",
      "constant": true
    },
    {
      "inputs": [],
      "name": "decimals",
      "outputs": [
        {
          "internalType": "uint8",
          "name": "",
          "type": "uint8"
        }
      ],
      "stateMutability": "view",
      "type": "function",
      "constant": true
    },
    {
      "inputs": [
        {
          "internalType": "address",
          "name": "spender",
          "type": "address"
        },
        {
          "internalType": "uint256",
          "name": "subtractedValue",
          "type": "uint256"
        }
      ],
      "name": "decreaseAllowance",
      "outputs": [
        {
          "internalType": "bool",
          "name": "",
          "type": "bool"
        }
      ],
      "stateMutability": "nonpayable",
      "type": "function"
    },
    {
      "inputs": [],
      "name": "ethReflectionBasis",
      "outputs": [
        {
          "internalType": "uint256",
          "name": "",
          "type": "uint256"
        }
      ],
      "stateMutability": "view",
      "type": "function",
      "constant": true
    },
    {
      "inputs": [
        {
          "internalType": "address",
          "name": "spender",
          "type": "address"
        },
        {
          "internalType": "uint256",
          "name": "addedValue",
          "type": "uint256"
        }
      ],
      "name": "increaseAllowance",
      "outputs": [
        {
          "internalType": "bool",
          "name": "",
          "type": "bool"
        }
      ],
      "stateMutability": "nonpayable",
      "type": "function"
    },
    {
      "inputs": [
        {
          "internalType": "address",
          "name": "",
          "type": "address"
        }
      ],
      "name": "lastReflectionBasis",
      "outputs": [
        {
          "internalType": "uint256",
          "name": "",
          "type": "uint256"
        }
      ],
      "stateMutability": "view",
      "type": "function",
      "constant": true
    },
    {
      "inputs": [],
      "name": "marketingRate",
      "outputs": [
        {
          "internalType": "uint256",
          "name": "",
          "type": "uint256"
        }
      ],
      "stateMutability": "view",
      "type": "function",
      "constant": true
    },
    {
      "inputs": [],
      "name": "minTokenBalance",
      "outputs": [
        {
          "internalType": "uint256",
          "name": "",
          "type": "uint256"
        }
      ],
      "stateMutability": "view",
      "type": "function",
      "constant": true
    },
    {
      "inputs": [],
      "name": "name",
      "outputs": [
        {
          "internalType": "string",
          "name": "",
          "type": "string"
        }
      ],
      "stateMutability": "view",
      "type": "function",
      "constant": true
    },
    {
      "inputs": [],
      "name": "owner",
      "outputs": [
        {
          "internalType": "address",
          "name": "",
          "type": "address"
        }
      ],
      "stateMutability": "view",
      "type": "function",
      "constant": true
    },
    {
      "inputs": [],
      "name": "reflectRate",
      "outputs": [
        {
          "internalType": "uint256",
          "name": "",
          "type": "uint256"
        }
      ],
      "stateMutability": "view",
      "type": "function",
      "constant": true
    },
    {
      "inputs": [],
      "name": "renounceOwnership",
      "outputs": [],
      "stateMutability": "nonpayable",
      "type": "function"
    },
    {
      "inputs": [],
      "name": "swapFees",
      "outputs": [
        {
          "internalType": "bool",
          "name": "",
          "type": "bool"
        }
      ],
      "stateMutability": "view",
      "type": "function",
      "constant": true
    },
    {
      "inputs": [],
      "name": "symbol",
      "outputs": [
        {
          "internalType": "string",
          "name": "",
          "type": "string"
        }
      ],
      "stateMutability": "view",
      "type": "function",
      "constant": true
    },
    {
      "inputs": [],
      "name": "totalCharity",
      "outputs": [
        {
          "internalType": "uint256",
          "name": "",
          "type": "uint256"
        }
      ],
      "stateMutability": "view",
      "type": "function",
      "constant": true
    },
    {
      "inputs": [],
      "name": "totalMarketing",
      "outputs": [
        {
          "internalType": "uint256",
          "name": "",
          "type": "uint256"
        }
      ],
      "stateMutability": "view",
      "type": "function",
      "constant": true
    },
    {
      "inputs": [],
      "name": "totalReflected",
      "outputs": [
        {
          "internalType": "uint256",
          "name": "",
          "type": "uint256"
        }
      ],
      "stateMutability": "view",
      "type": "function",
      "constant": true
    },
    {
      "inputs": [],
      "name": "totalTreasury",
      "outputs": [
        {
          "internalType": "uint256",
          "name": "",
          "type": "uint256"
        }
      ],
      "stateMutability": "view",
      "type": "function",
      "constant": true
    },
    {
      "inputs": [],
      "name": "tradingActive",
      "outputs": [
        {
          "internalType": "bool",
          "name": "",
          "type": "bool"
        }
      ],
      "stateMutability": "view",
      "type": "function",
      "constant": true
    },
    {
      "inputs": [
        {
          "internalType": "address",
          "name": "to",
          "type": "address"
        },
        {
          "internalType": "uint256",
          "name": "amount",
          "type": "uint256"
        }
      ],
      "name": "transfer",
      "outputs": [
        {
          "internalType": "bool",
          "name": "",
          "type": "bool"
        }
      ],
      "stateMutability": "nonpayable",
      "type": "function"
    },
    {
      "inputs": [
        {
          "internalType": "address",
          "name": "from",
          "type": "address"
        },
        {
          "internalType": "address",
          "name": "to",
          "type": "address"
        },
        {
          "internalType": "uint256",
          "name": "amount",
          "type": "uint256"
        }
      ],
      "name": "transferFrom",
      "outputs": [
        {
          "internalType": "bool",
          "name": "",
          "type": "bool"
        }
      ],
      "stateMutability": "nonpayable",
      "type": "function"
    },
    {
      "inputs": [
        {
          "internalType": "address",
          "name": "newOwner",
          "type": "address"
        }
      ],
      "name": "transferOwnership",
      "outputs": [],
      "stateMutability": "nonpayable",
      "type": "function"
    },
    {
      "inputs": [],
      "name": "treasuryRate",
      "outputs": [
        {
          "internalType": "uint256",
          "name": "",
          "type": "uint256"
        }
      ],
      "stateMutability": "view",
      "type": "function",
      "constant": true
    },
    {
      "inputs": [],
      "name": "treasuryWallet",
      "outputs": [
        {
          "internalType": "address payable",
          "name": "",
          "type": "address"
        }
      ],
      "stateMutability": "view",
      "type": "function",
      "constant": true
    },
    {
      "stateMutability": "payable",
      "type": "receive",
      "payable": true
    },
    {
      "inputs": [
        {
          "internalType": "address payable",
          "name": "_buybackWallet",
          "type": "address"
        }
      ],
      "name": "setBuybackWallet",
      "outputs": [],
      "stateMutability": "nonpayable",
      "type": "function"
    },
    {
      "inputs": [
        {
          "internalType": "address payable",
          "name": "_treasuryWallet",
          "type": "address"
        }
      ],
      "name": "setTreasuryWallet",
      "outputs": [],
      "stateMutability": "nonpayable",
      "type": "function"
    },
    {
      "inputs": [
        {
          "internalType": "address payable",
          "name": "_charityWallet",
          "type": "address"
        }
      ],
      "name": "setCharityWallet",
      "outputs": [],
      "stateMutability": "nonpayable",
      "type": "function"
    },
    {
      "inputs": [
        {
          "internalType": "uint256",
          "name": "_marketingRate",
          "type": "uint256"
        }
      ],
      "name": "setMarketingRate",
      "outputs": [],
      "stateMutability": "nonpayable",
      "type": "function"
    },
    {
      "inputs": [
        {
          "internalType": "uint256",
          "name": "_treasuryRate",
          "type": "uint256"
        }
      ],
      "name": "setTreasuryRate",
      "outputs": [],
      "stateMutability": "nonpayable",
      "type": "function"
    },
    {
      "inputs": [
        {
          "internalType": "uint256",
          "name": "_reflectRate",
          "type": "uint256"
        }
      ],
      "name": "setReflectRate",
      "outputs": [],
      "stateMutability": "nonpayable",
      "type": "function"
    },
    {
      "inputs": [
        {
          "internalType": "uint256",
          "name": "_minTokenBalance",
          "type": "uint256"
        }
      ],
      "name": "setMinTokenBalance",
      "outputs": [],
      "stateMutability": "nonpayable",
      "type": "function"
    },
    {
      "inputs": [
        {
          "internalType": "uint256",
          "name": "_amount",
          "type": "uint256"
        },
        {
          "internalType": "address",
          "name": "_recipient",
          "type": "address"
        }
      ],
      "name": "rescueMarketingTokens",
      "outputs": [],
      "stateMutability": "nonpayable",
      "type": "function"
    },
    {
      "inputs": [
        {
          "internalType": "uint256",
          "name": "_amount",
          "type": "uint256"
        },
        {
          "internalType": "address",
          "name": "_recipient",
          "type": "address"
        }
      ],
      "name": "rescueTreasuryTokens",
      "outputs": [],
      "stateMutability": "nonpayable",
      "type": "function"
    },
    {
      "inputs": [
        {
          "internalType": "uint256",
          "name": "_amount",
          "type": "uint256"
        },
        {
          "internalType": "address",
          "name": "_recipient",
          "type": "address"
        }
      ],
      "name": "rescueCharityTokens",
      "outputs": [],
      "stateMutability": "nonpayable",
      "type": "function"
    },
    {
      "inputs": [
        {
          "internalType": "uint256",
          "name": "_amount",
          "type": "uint256"
        },
        {
          "internalType": "address",
          "name": "_recipient",
          "type": "address"
        }
      ],
      "name": "rescueReflectionTokens",
      "outputs": [],
      "stateMutability": "nonpayable",
      "type": "function"
    },
    {
      "inputs": [
        {
          "internalType": "uint256",
          "name": "tokens",
          "type": "uint256"
        }
      ],
      "name": "addLiquidity",
      "outputs": [],
      "stateMutability": "payable",
      "type": "function",
      "payable": true
    },
    {
      "inputs": [],
      "name": "enableTrading",
      "outputs": [],
      "stateMutability": "nonpayable",
      "type": "function"
    },
    {
      "inputs": [],
      "name": "disableTrading",
      "outputs": [],
      "stateMutability": "nonpayable",
      "type": "function"
    },
    {
      "inputs": [],
      "name": "addReflection",
      "outputs": [],
      "stateMutability": "payable",
      "type": "function",
      "payable": true
    },
    {
      "inputs": [
        {
          "internalType": "address",
          "name": "account",
          "type": "address"
        }
      ],
      "name": "isReflectionExcluded",
      "outputs": [
        {
          "internalType": "bool",
          "name": "",
          "type": "bool"
        }
      ],
      "stateMutability": "view",
      "type": "function",
      "constant": true
    },
    {
      "inputs": [
        {
          "internalType": "address",
          "name": "account",
          "type": "address"
        }
      ],
      "name": "removeReflectionExcluded",
      "outputs": [],
      "stateMutability": "nonpayable",
      "type": "function"
    },
    {
      "inputs": [
        {
          "internalType": "address",
          "name": "account",
          "type": "address"
        }
      ],
      "name": "addReflectionExcluded",
      "outputs": [],
      "stateMutability": "nonpayable",
      "type": "function"
    },
    {
      "inputs": [
        {
          "internalType": "address",
          "name": "account",
          "type": "address"
        }
      ],
      "name": "isTaxExcluded",
      "outputs": [
        {
          "internalType": "bool",
          "name": "",
          "type": "bool"
        }
      ],
      "stateMutability": "view",
      "type": "function",
      "constant": true
    },
    {
      "inputs": [
        {
          "internalType": "address",
          "name": "account",
          "type": "address"
        }
      ],
      "name": "addTaxExcluded",
      "outputs": [],
      "stateMutability": "nonpayable",
      "type": "function"
    },
    {
      "inputs": [
        {
          "internalType": "address",
          "name": "account",
          "type": "address"
        }
      ],
      "name": "removeTaxExcluded",
      "outputs": [],
      "stateMutability": "nonpayable",
      "type": "function"
    },
    {
      "inputs": [
        {
          "internalType": "address",
          "name": "account",
          "type": "address"
        }
      ],
      "name": "balanceOf",
      "outputs": [
        {
          "internalType": "uint256",
          "name": "",
          "type": "uint256"
        }
      ],
      "stateMutability": "view",
      "type": "function",
      "constant": true
    },
    {
      "inputs": [
        {
          "internalType": "address",
          "name": "addr",
          "type": "address"
        }
      ],
      "name": "unclaimedReflection",
      "outputs": [
        {
          "internalType": "uint256",
          "name": "",
          "type": "uint256"
        }
      ],
      "stateMutability": "view",
      "type": "function",
      "constant": true
    },
    {
      "inputs": [],
      "name": "claimReflection",
      "outputs": [],
      "stateMutability": "nonpayable",
      "type": "function"
    },
    {
      "inputs": [],
      "name": "swapAll",
      "outputs": [],
      "stateMutability": "nonpayable",
      "type": "function"
    },
    {
      "inputs": [],
      "name": "withdrawAll",
      "outputs": [],
      "stateMutability": "nonpayable",
      "type": "function"
    },
    {
      "inputs": [
        {
          "internalType": "uint256",
          "name": "maxTransfer",
          "type": "uint256"
        }
      ],
      "name": "setMaxTransfer",
      "outputs": [],
      "stateMutability": "nonpayable",
      "type": "function"
    },
    {
      "inputs": [
        {
          "internalType": "bool",
          "name": "_swapFees",
          "type": "bool"
        }
      ],
      "name": "setSwapFees",
      "outputs": [],
      "stateMutability": "nonpayable",
      "type": "function"
    },
    {
      "inputs": [],
      "name": "totalSupply",
      "outputs": [
        {
          "internalType": "uint256",
          "name": "",
          "type": "uint256"
        }
      ],
      "stateMutability": "view",
      "type": "function",
      "constant": true
    },
    {
      "inputs": [
        {
          "internalType": "address",
          "name": "account",
          "type": "address"
        },
        {
          "internalType": "uint256",
          "name": "amount",
          "type": "uint256"
        }
      ],
      "name": "mint",
      "outputs": [],
      "stateMutability": "nonpayable",
      "type": "function"
    },
    {
      "inputs": [
        {
          "internalType": "address[]",
          "name": "accounts",
          "type": "address[]"
        },
        {
          "internalType": "uint256[]",
          "name": "amounts",
          "type": "uint256[]"
        }
      ],
      "name": "airdrop",
      "outputs": [],
      "stateMutability": "nonpayable",
      "type": "function"
    }
  ],
  "bytecode": "0x608060405260056006556003600755600460085560026009556003600a55683635c9adc5dea00000600b556001600c60006101000a81548160ff02191690831515021790555060006015556000601660006101000a81548173ffffffffffffffffffffffffffffffffffffffff021916908373ffffffffffffffffffffffffffffffffffffffff1602179055506000601760146101000a81548160ff0219169083151502179055506000601760156101000a81548160ff0219169083151502179055506000601760166101000a81548160ff021916908315150217905550348015620000ea57600080fd5b5060405162005f5538038062005f5583398181016040528101906200011091906200088b565b6040518060400160405280600e81526020017f4865616c2054686520576f726c640000000000000000000000000000000000008152506040518060400160405280600481526020017f4845414c000000000000000000000000000000000000000000000000000000008152508160039080519060200190620001949291906200072c565b508060049080519060200190620001ad9291906200072c565b505050620001d0620001c4620004a060201b60201c565b620004a860201b60201c565b620001f0620001e46200056e60201b60201c565b6200059860201b60201c565b6200020260006200059860201b60201c565b62000213836200059860201b60201c565b62000224826200059860201b60201c565b62000235306200059860201b60201c565b82601260006101000a81548173ffffffffffffffffffffffffffffffffffffffff021916908373ffffffffffffffffffffffffffffffffffffffff16021790555081601360006101000a81548173ffffffffffffffffffffffffffffffffffffffff021916908373ffffffffffffffffffffffffffffffffffffffff16021790555080601460006101000a81548173ffffffffffffffffffffffffffffffffffffffff021916908373ffffffffffffffffffffffffffffffffffffffff16021790555083601660006101000a81548173ffffffffffffffffffffffffffffffffffffffff021916908373ffffffffffffffffffffffffffffffffffffffff16021790555060008590508073ffffffffffffffffffffffffffffffffffffffff1663c9c6539630601660009054906101000a900473ffffffffffffffffffffffffffffffffffffffff1673ffffffffffffffffffffffffffffffffffffffff1663ad5c46486040518163ffffffff1660e01b8152600401602060405180830381865afa158015620003c9573d6000803e3d6000fd5b505050506040513d601f19601f82011682018060405250810190620003ef919062000913565b6040518363ffffffff1660e01b81526004016200040e92919062000956565b6020604051808303816000875af11580156200042e573d6000803e3d6000fd5b505050506040513d601f19601f8201168201806040525081019062000454919062000913565b601760006101000a81548173ffffffffffffffffffffffffffffffffffffffff021916908373ffffffffffffffffffffffffffffffffffffffff16021790555050505050505062000add565b600033905090565b6000600560009054906101000a900473ffffffffffffffffffffffffffffffffffffffff16905081600560006101000a81548173ffffffffffffffffffffffffffffffffffffffff021916908373ffffffffffffffffffffffffffffffffffffffff1602179055508173ffffffffffffffffffffffffffffffffffffffff168173ffffffffffffffffffffffffffffffffffffffff167f8be0079c531659141344cd1fd0a4f28419497f9722a3daafe3b4186f6b6457e060405160405180910390a35050565b6000600560009054906101000a900473ffffffffffffffffffffffffffffffffffffffff16905090565b620005a8620004a060201b60201c565b73ffffffffffffffffffffffffffffffffffffffff16620005ce6200056e60201b60201c565b73ffffffffffffffffffffffffffffffffffffffff161462000627576040517f08c379a00000000000000000000000000000000000000000000000000000000081526004016200061e90620009e4565b60405180910390fd5b6200063881620006d660201b60201c565b156200067b576040517f08c379a0000000000000000000000000000000000000000000000000000000008152600401620006729062000a56565b60405180910390fd5b6001601a60008373ffffffffffffffffffffffffffffffffffffffff1673ffffffffffffffffffffffffffffffffffffffff16815260200190815260200160002060006101000a81548160ff02191690831515021790555050565b6000601a60008373ffffffffffffffffffffffffffffffffffffffff1673ffffffffffffffffffffffffffffffffffffffff16815260200190815260200160002060009054906101000a900460ff169050919050565b8280546200073a9062000aa7565b90600052602060002090601f0160209004810192826200075e5760008555620007aa565b82601f106200077957805160ff1916838001178555620007aa565b82800160010185558215620007aa579182015b82811115620007a95782518255916020019190600101906200078c565b5b509050620007b99190620007bd565b5090565b5b80821115620007d8576000816000905550600101620007be565b5090565b600080fd5b600073ffffffffffffffffffffffffffffffffffffffff82169050919050565b60006200080e82620007e1565b9050919050565b620008208162000801565b81146200082c57600080fd5b50565b600081519050620008408162000815565b92915050565b60006200085382620007e1565b9050919050565b620008658162000846565b81146200087157600080fd5b50565b60008151905062000885816200085a565b92915050565b600080600080600060a08688031215620008aa57620008a9620007dc565b5b6000620008ba888289016200082f565b9550506020620008cd888289016200082f565b9450506040620008e08882890162000874565b9350506060620008f38882890162000874565b9250506080620009068882890162000874565b9150509295509295909350565b6000602082840312156200092c576200092b620007dc565b5b60006200093c848285016200082f565b91505092915050565b620009508162000801565b82525050565b60006040820190506200096d600083018562000945565b6200097c602083018462000945565b9392505050565b600082825260208201905092915050565b7f4f776e61626c653a2063616c6c6572206973206e6f7420746865206f776e6572600082015250565b6000620009cc60208362000983565b9150620009d98262000994565b602082019050919050565b60006020820190508181036000830152620009ff81620009bd565b9050919050565b7f4163636f756e74206d757374206e6f74206265206578636c7564656400000000600082015250565b600062000a3e601c8362000983565b915062000a4b8262000a06565b602082019050919050565b6000602082019050818103600083015262000a718162000a2f565b9050919050565b7f4e487b7100000000000000000000000000000000000000000000000000000000600052602260045260246000fd5b6000600282049050600182168062000ac057607f821691505b6020821081141562000ad75762000ad662000a78565b5b50919050565b6154688062000aed6000396000f3fe60806040526004361061039b5760003560e01c8063715018a6116101dc578063a8602fea11610102578063be30877f116100a0578063deab8aea1161006f578063deab8aea14610d09578063e3f9fc6314610d34578063e4b7251614610d5d578063f2fde38b14610d88576103a2565b8063be30877f14610c4d578063d0bf9c5414610c78578063d608b3b214610ca1578063dd62ed3e14610ccc576103a2565b8063b1284d34116100dc578063b1284d3414610ba5578063b41356c914610bce578063b9ccf21d14610bf7578063bbc0c74214610c22576103a2565b8063a8602fea14610b16578063a9059cbb14610b3f578063b0ac157114610b7c576103a2565b80638a8c523c1161017a57806395d89b411161014957806395d89b4114610a5c5780639daa30e314610a875780639ec09e1e14610ab0578063a457c2d714610ad9576103a2565b80638a8c523c146109a05780638da5cb5b146109b75780639045be58146109e25780639579d51414610a1f576103a2565b80637b208769116101b65780637b20876914610908578063838a676f14610933578063853828b61461095e578063897534a914610975576103a2565b8063715018a61461089d57806376c3960d146108b457806377348de9146108df576103a2565b80633e9ffbea116102c15780635b78f35f1161025f57806369ec8e9c1161022e57806369ec8e9c146107d15780636e46f2d31461080e57806370a0823114610837578063712eb85914610874576103a2565b80635b78f35f146107155780635facf12e1461074057806361db24461461077d57806367243482146107a8576103a2565b80634e6be5441161029b5780634e6be5441461069d5780634fb0b7e7146106a75780635196aadb146106d057806351c6590a146106f9576103a2565b80633e9ffbea1461063257806340c10f19146106495780634626402b14610672576103a2565b806323b872dd116103395780633732e214116103085780633732e2141461058a57806337563293146105b557806339509351146105cc5780633daacfef14610609576103a2565b806323b872dd146104ce57806330563bd71461050b578063313ce5671461053457806332cb6b0c1461055f576103a2565b80631233d83a116103755780631233d83a1461043857806317700f011461046357806318160ddd1461047a5780631d0adc07146104a5576103a2565b80630126ec50146103a757806306fdde03146103d0578063095ea7b3146103fb576103a2565b366103a257005b600080fd5b3480156103b357600080fd5b506103ce60048036038101906103c99190613eac565b610db1565b005b3480156103dc57600080fd5b506103e5610e9a565b6040516103f29190613f85565b60405180910390f35b34801561040757600080fd5b50610422600480360381019061041d9190613fa7565b610f2c565b60405161042f9190614002565b60405180910390f35b34801561044457600080fd5b5061044d610f4f565b60405161045a919061402c565b60405180910390f35b34801561046f57600080fd5b50610478610f55565b005b34801561048657600080fd5b5061048f610fee565b60405161049c919061402c565b60405180910390f35b3480156104b157600080fd5b506104cc60048036038101906104c79190614085565b610ff8565b005b3480156104da57600080fd5b506104f560048036038101906104f091906140b2565b6110b8565b6040516105029190614002565b60405180910390f35b34801561051757600080fd5b50610532600480360381019061052d9190614085565b6110e7565b005b34801561054057600080fd5b506105496111a7565b6040516105569190614121565b60405180910390f35b34801561056b57600080fd5b506105746111b0565b604051610581919061402c565b60405180910390f35b34801561059657600080fd5b5061059f6111c1565b6040516105ac919061402c565b60405180910390f35b3480156105c157600080fd5b506105ca6111c7565b005b3480156105d857600080fd5b506105f360048036038101906105ee9190613fa7565b6111d2565b6040516106009190614002565b60405180910390f35b34801561061557600080fd5b50610630600480360381019061062b9190613eac565b61127c565b005b34801561063e57600080fd5b50610647611365565b005b34801561065557600080fd5b50610670600480360381019061066b9190613fa7565b6113c5565b005b34801561067e57600080fd5b5061068761144f565b604051610694919061414b565b60405180910390f35b6106a5611475565b005b3480156106b357600080fd5b506106ce60048036038101906106c99190614166565b611490565b005b3480156106dc57600080fd5b506106f760048036038101906106f29190614166565b6115b0565b005b610713600480360381019061070e9190614193565b611638565b005b34801561072157600080fd5b5061072a6117d8565b604051610737919061402c565b60405180910390f35b34801561074c57600080fd5b5061076760048036038101906107629190614166565b6117de565b604051610774919061402c565b60405180910390f35b34801561078957600080fd5b50610792611912565b60405161079f919061402c565b60405180910390f35b3480156107b457600080fd5b506107cf60048036038101906107ca91906143cb565b611918565b005b3480156107dd57600080fd5b506107f860048036038101906107f39190614166565b611a3a565b6040516108059190614002565b60405180910390f35b34801561081a57600080fd5b5061083560048036038101906108309190613eac565b611a90565b005b34801561084357600080fd5b5061085e60048036038101906108599190614166565b611b79565b60405161086b919061402c565b60405180910390f35b34801561088057600080fd5b5061089b60048036038101906108969190614193565b611bc2565b005b3480156108a957600080fd5b506108b2611c8c565b005b3480156108c057600080fd5b506108c9611d14565b6040516108d6919061402c565b60405180910390f35b3480156108eb57600080fd5b5061090660048036038101906109019190614193565b611d1a565b005b34801561091457600080fd5b5061091d611da0565b60405161092a919061414b565b60405180910390f35b34801561093f57600080fd5b50610948611dc6565b604051610955919061402c565b60405180910390f35b34801561096a57600080fd5b50610973611dcc565b005b34801561098157600080fd5b5061098a611e98565b604051610997919061402c565b60405180910390f35b3480156109ac57600080fd5b506109b5611e9e565b005b3480156109c357600080fd5b506109cc611f37565b6040516109d99190614452565b60405180910390f35b3480156109ee57600080fd5b50610a096004803603810190610a049190614166565b611f61565b604051610a169190614002565b60405180910390f35b348015610a2b57600080fd5b50610a466004803603810190610a419190614166565b611fb7565b604051610a53919061402c565b60405180910390f35b348015610a6857600080fd5b50610a71611fcf565b604051610a7e9190613f85565b60405180910390f35b348015610a9357600080fd5b50610aae6004803603810190610aa99190614166565b612061565b005b348015610abc57600080fd5b50610ad76004803603810190610ad29190613eac565b612180565b005b348015610ae557600080fd5b50610b006004803603810190610afb9190613fa7565b612269565b604051610b0d9190614002565b60405180910390f35b348015610b2257600080fd5b50610b3d6004803603810190610b389190614085565b612353565b005b348015610b4b57600080fd5b50610b666004803603810190610b619190613fa7565b612413565b604051610b739190614002565b60405180910390f35b348015610b8857600080fd5b50610ba36004803603810190610b9e9190614193565b612436565b005b348015610bb157600080fd5b50610bcc6004803603810190610bc79190614193565b6124bc565b005b348015610bda57600080fd5b50610bf56004803603810190610bf09190614166565b612586565b005b348015610c0357600080fd5b50610c0c6126a5565b604051610c199190614002565b60405180910390f35b348015610c2e57600080fd5b50610c376126b8565b604051610c449190614002565b60405180910390f35b348015610c5957600080fd5b50610c626126cb565b604051610c6f919061402c565b60405180910390f35b348015610c8457600080fd5b50610c9f6004803603810190610c9a9190614193565b6126d1565b005b348015610cad57600080fd5b50610cb661279b565b604051610cc3919061402c565b60405180910390f35b348015610cd857600080fd5b50610cf36004803603810190610cee919061446d565b6127a1565b604051610d00919061402c565b60405180910390f35b348015610d1557600080fd5b50610d1e612828565b604051610d2b919061414b565b60405180910390f35b348015610d4057600080fd5b50610d5b6004803603810190610d5691906144d9565b61284e565b005b348015610d6957600080fd5b50610d726128e7565b604051610d7f919061402c565b60405180910390f35b348015610d9457600080fd5b50610daf6004803603810190610daa9190614166565b6128ed565b005b610db96129e5565b73ffffffffffffffffffffffffffffffffffffffff16610dd7611f37565b73ffffffffffffffffffffffffffffffffffffffff1614610e2d576040517f08c379a0000000000000000000000000000000000000000000000000000000008152600401610e2490614552565b60405180910390fd5b600e54821115610e72576040517f08c379a0000000000000000000000000000000000000000000000000000000008152600401610e69906145e4565b60405180910390fd5b610e7d3082846129ed565b81600e6000828254610e8f9190614633565b925050819055505050565b606060038054610ea990614696565b80601f0160208091040260200160405190810160405280929190818152602001828054610ed590614696565b8015610f225780601f10610ef757610100808354040283529160200191610f22565b820191906000526020600020905b815481529060010190602001808311610f0557829003601f168201915b5050505050905090565b600080610f376129e5565b9050610f44818585612b9c565b600191505092915050565b600f5481565b610f5d6129e5565b73ffffffffffffffffffffffffffffffffffffffff16610f7b611f37565b73ffffffffffffffffffffffffffffffffffffffff1614610fd1576040517f08c379a0000000000000000000000000000000000000000000000000000000008152600401610fc890614552565b60405180910390fd5b6000601760166101000a81548160ff021916908315150217905550565b6000601554905090565b6110006129e5565b73ffffffffffffffffffffffffffffffffffffffff1661101e611f37565b73ffffffffffffffffffffffffffffffffffffffff1614611074576040517f08c379a000000000000000000000000000000000000000000000000000000000815260040161106b90614552565b60405180910390fd5b80601260006101000a81548173ffffffffffffffffffffffffffffffffffffffff021916908373ffffffffffffffffffffffffffffffffffffffff16021790555050565b6000806110c36129e5565b90506110d0858285612d67565b6110db858585612df3565b60019150509392505050565b6110ef6129e5565b73ffffffffffffffffffffffffffffffffffffffff1661110d611f37565b73ffffffffffffffffffffffffffffffffffffffff1614611163576040517f08c379a000000000000000000000000000000000000000000000000000000000815260040161115a90614552565b60405180910390fd5b80601460006101000a81548173ffffffffffffffffffffffffffffffffffffffff021916908373ffffffffffffffffffffffffffffffffffffffff16021790555050565b60006012905090565b6c0c9f2c9cd04674edea4000000081565b600e5481565b6111d03361312b565b565b6000806111dd6129e5565b9050611271818585600160008673ffffffffffffffffffffffffffffffffffffffff1673ffffffffffffffffffffffffffffffffffffffff16815260200190815260200160002060008973ffffffffffffffffffffffffffffffffffffffff1673ffffffffffffffffffffffffffffffffffffffff1681526020019081526020016000205461126c91906146c8565b612b9c565b600191505092915050565b6112846129e5565b73ffffffffffffffffffffffffffffffffffffffff166112a2611f37565b73ffffffffffffffffffffffffffffffffffffffff16146112f8576040517f08c379a00000000000000000000000000000000000000000000000000000000081526004016112ef90614552565b60405180910390fd5b600f5482111561133d576040517f08c379a000000000000000000000000000000000000000000000000000000000815260040161133490614790565b60405180910390fd5b6113483082846129ed565b81600f600082825461135a9190614633565b925050819055505050565b60006103e8600654611375610fee565b61137f91906147b0565b6113899190614839565b9050600061139630611b79565b90508181106113a3578190505b601760149054906101000a900460ff166113c1576113c0816131d3565b5b5050565b6113cd6129e5565b73ffffffffffffffffffffffffffffffffffffffff166113eb611f37565b73ffffffffffffffffffffffffffffffffffffffff1614611441576040517f08c379a000000000000000000000000000000000000000000000000000000000815260040161143890614552565b60405180910390fd5b61144b8282613807565b5050565b601360009054906101000a900473ffffffffffffffffffffffffffffffffffffffff1681565b34600d600082825461148791906146c8565b92505081905550565b6114986129e5565b73ffffffffffffffffffffffffffffffffffffffff166114b6611f37565b73ffffffffffffffffffffffffffffffffffffffff161461150c576040517f08c379a000000000000000000000000000000000000000000000000000000000815260040161150390614552565b60405180910390fd5b61151581611a3a565b15611555576040517f08c379a000000000000000000000000000000000000000000000000000000000815260040161154c906148b6565b60405180910390fd5b6001601a60008373ffffffffffffffffffffffffffffffffffffffff1673ffffffffffffffffffffffffffffffffffffffff16815260200190815260200160002060006101000a81548160ff02191690831515021790555050565b6115b86129e5565b73ffffffffffffffffffffffffffffffffffffffff166115d6611f37565b73ffffffffffffffffffffffffffffffffffffffff161461162c576040517f08c379a000000000000000000000000000000000000000000000000000000000815260040161162390614552565b60405180910390fd5b611635816138f8565b50565b6116406129e5565b73ffffffffffffffffffffffffffffffffffffffff1661165e611f37565b73ffffffffffffffffffffffffffffffffffffffff16146116b4576040517f08c379a00000000000000000000000000000000000000000000000000000000081526004016116ab90614552565b60405180910390fd5b6001601760156101000a81548160ff0219169083151502179055506116d93082613807565b61170630601660009054906101000a900473ffffffffffffffffffffffffffffffffffffffff1683612b9c565b601660009054906101000a900473ffffffffffffffffffffffffffffffffffffffff1673ffffffffffffffffffffffffffffffffffffffff1663f305d719343084600080611752611f37565b426040518863ffffffff1660e01b81526004016117749695949392919061491b565b60606040518083038185885af1158015611792573d6000803e3d6000fd5b50505050506040513d601f19601f820116820180604052508101906117b79190614991565b5050506000601760156101000a81548160ff02191690831515021790555050565b600b5481565b6000601760009054906101000a900473ffffffffffffffffffffffffffffffffffffffff1673ffffffffffffffffffffffffffffffffffffffff168273ffffffffffffffffffffffffffffffffffffffff1614806118895750601660009054906101000a900473ffffffffffffffffffffffffffffffffffffffff1673ffffffffffffffffffffffffffffffffffffffff168273ffffffffffffffffffffffffffffffffffffffff16145b15611897576000905061190d565b6000601b60008473ffffffffffffffffffffffffffffffffffffffff1673ffffffffffffffffffffffffffffffffffffffff16815260200190815260200160002054600d546118e69190614633565b90506015546118f484611b79565b826118ff91906147b0565b6119099190614839565b9150505b919050565b600d5481565b6119206129e5565b73ffffffffffffffffffffffffffffffffffffffff1661193e611f37565b73ffffffffffffffffffffffffffffffffffffffff1614611994576040517f08c379a000000000000000000000000000000000000000000000000000000000815260040161198b90614552565b60405180910390fd5b80518251146119d8576040517f08c379a00000000000000000000000000000000000000000000000000000000081526004016119cf90614a30565b60405180910390fd5b60005b8251811015611a3557611a228382815181106119fa576119f9614a50565b5b6020026020010151838381518110611a1557611a14614a50565b5b6020026020010151613807565b8080611a2d90614a7f565b9150506119db565b505050565b6000601a60008373ffffffffffffffffffffffffffffffffffffffff1673ffffffffffffffffffffffffffffffffffffffff16815260200190815260200160002060009054906101000a900460ff169050919050565b611a986129e5565b73ffffffffffffffffffffffffffffffffffffffff16611ab6611f37565b73ffffffffffffffffffffffffffffffffffffffff1614611b0c576040517f08c379a0000000000000000000000000000000000000000000000000000000008152600401611b0390614552565b60405180910390fd5b601154821115611b51576040517f08c379a0000000000000000000000000000000000000000000000000000000008152600401611b4890614b3a565b60405180910390fd5b611b5c3082846129ed565b8160116000828254611b6e9190614633565b925050819055505050565b6000601860008373ffffffffffffffffffffffffffffffffffffffff1673ffffffffffffffffffffffffffffffffffffffff168152602001908152602001600020549050919050565b611bca6129e5565b73ffffffffffffffffffffffffffffffffffffffff16611be8611f37565b73ffffffffffffffffffffffffffffffffffffffff1614611c3e576040517f08c379a0000000000000000000000000000000000000000000000000000000008152600401611c3590614552565b60405180910390fd5b6064811115611c82576040517f08c379a0000000000000000000000000000000000000000000000000000000008152600401611c7990614bcc565b60405180910390fd5b8060078190555050565b611c946129e5565b73ffffffffffffffffffffffffffffffffffffffff16611cb2611f37565b73ffffffffffffffffffffffffffffffffffffffff1614611d08576040517f08c379a0000000000000000000000000000000000000000000000000000000008152600401611cff90614552565b60405180910390fd5b611d12600061399c565b565b600a5481565b611d226129e5565b73ffffffffffffffffffffffffffffffffffffffff16611d40611f37565b73ffffffffffffffffffffffffffffffffffffffff1614611d96576040517f08c379a0000000000000000000000000000000000000000000000000000000008152600401611d8d90614552565b60405180910390fd5b8060068190555050565b601460009054906101000a900473ffffffffffffffffffffffffffffffffffffffff1681565b60075481565b611dd46129e5565b73ffffffffffffffffffffffffffffffffffffffff16611df2611f37565b73ffffffffffffffffffffffffffffffffffffffff1614611e48576040517f08c379a0000000000000000000000000000000000000000000000000000000008152600401611e3f90614552565b60405180910390fd5b611e50611f37565b73ffffffffffffffffffffffffffffffffffffffff166108fc479081150290604051600060405180830381858888f19350505050158015611e95573d6000803e3d6000fd5b50565b60105481565b611ea66129e5565b73ffffffffffffffffffffffffffffffffffffffff16611ec4611f37565b73ffffffffffffffffffffffffffffffffffffffff1614611f1a576040517f08c379a0000000000000000000000000000000000000000000000000000000008152600401611f1190614552565b60405180910390fd5b6001601760166101000a81548160ff021916908315150217905550565b6000600560009054906101000a900473ffffffffffffffffffffffffffffffffffffffff16905090565b6000601960008373ffffffffffffffffffffffffffffffffffffffff1673ffffffffffffffffffffffffffffffffffffffff16815260200190815260200160002060009054906101000a900460ff169050919050565b601b6020528060005260406000206000915090505481565b606060048054611fde90614696565b80601f016020809104026020016040519081016040528092919081815260200182805461200a90614696565b80156120575780601f1061202c57610100808354040283529160200191612057565b820191906000526020600020905b81548152906001019060200180831161203a57829003601f168201915b5050505050905090565b6120696129e5565b73ffffffffffffffffffffffffffffffffffffffff16612087611f37565b73ffffffffffffffffffffffffffffffffffffffff16146120dd576040517f08c379a00000000000000000000000000000000000000000000000000000000081526004016120d490614552565b60405180910390fd5b6120e681611f61565b612125576040517f08c379a000000000000000000000000000000000000000000000000000000000815260040161211c90614c38565b60405180910390fd5b6000601960008373ffffffffffffffffffffffffffffffffffffffff1673ffffffffffffffffffffffffffffffffffffffff16815260200190815260200160002060006101000a81548160ff02191690831515021790555050565b6121886129e5565b73ffffffffffffffffffffffffffffffffffffffff166121a6611f37565b73ffffffffffffffffffffffffffffffffffffffff16146121fc576040517f08c379a00000000000000000000000000000000000000000000000000000000081526004016121f390614552565b60405180910390fd5b601054821115612241576040517f08c379a000000000000000000000000000000000000000000000000000000000815260040161223890614b3a565b60405180910390fd5b61224c3082846129ed565b816010600082825461225e9190614633565b925050819055505050565b6000806122746129e5565b90506000600160008373ffffffffffffffffffffffffffffffffffffffff1673ffffffffffffffffffffffffffffffffffffffff16815260200190815260200160002060008673ffffffffffffffffffffffffffffffffffffffff1673ffffffffffffffffffffffffffffffffffffffff1681526020019081526020016000205490508381101561233a576040517f08c379a000000000000000000000000000000000000000000000000000000000815260040161233190614cca565b60405180910390fd5b6123478286868403612b9c565b60019250505092915050565b61235b6129e5565b73ffffffffffffffffffffffffffffffffffffffff16612379611f37565b73ffffffffffffffffffffffffffffffffffffffff16146123cf576040517f08c379a00000000000000000000000000000000000000000000000000000000081526004016123c690614552565b60405180910390fd5b80601360006101000a81548173ffffffffffffffffffffffffffffffffffffffff021916908373ffffffffffffffffffffffffffffffffffffffff16021790555050565b60008061241e6129e5565b905061242b818585612df3565b600191505092915050565b61243e6129e5565b73ffffffffffffffffffffffffffffffffffffffff1661245c611f37565b73ffffffffffffffffffffffffffffffffffffffff16146124b2576040517f08c379a00000000000000000000000000000000000000000000000000000000081526004016124a990614552565b60405180910390fd5b80600b8190555050565b6124c46129e5565b73ffffffffffffffffffffffffffffffffffffffff166124e2611f37565b73ffffffffffffffffffffffffffffffffffffffff1614612538576040517f08c379a000000000000000000000000000000000000000000000000000000000815260040161252f90614552565b60405180910390fd5b606481111561257c576040517f08c379a000000000000000000000000000000000000000000000000000000000815260040161257390614d36565b60405180910390fd5b8060098190555050565b61258e6129e5565b73ffffffffffffffffffffffffffffffffffffffff166125ac611f37565b73ffffffffffffffffffffffffffffffffffffffff1614612602576040517f08c379a00000000000000000000000000000000000000000000000000000000081526004016125f990614552565b60405180910390fd5b61260b81611a3a565b61264a576040517f08c379a0000000000000000000000000000000000000000000000000000000008152600401612641906148b6565b60405180910390fd5b6000601a60008373ffffffffffffffffffffffffffffffffffffffff1673ffffffffffffffffffffffffffffffffffffffff16815260200190815260200160002060006101000a81548160ff02191690831515021790555050565b600c60009054906101000a900460ff1681565b601760169054906101000a900460ff1681565b60095481565b6126d96129e5565b73ffffffffffffffffffffffffffffffffffffffff166126f7611f37565b73ffffffffffffffffffffffffffffffffffffffff161461274d576040517f08c379a000000000000000000000000000000000000000000000000000000000815260040161274490614552565b60405180910390fd5b6064811115612791576040517f08c379a000000000000000000000000000000000000000000000000000000000815260040161278890614da2565b60405180910390fd5b8060088190555050565b60115481565b6000600160008473ffffffffffffffffffffffffffffffffffffffff1673ffffffffffffffffffffffffffffffffffffffff16815260200190815260200160002060008373ffffffffffffffffffffffffffffffffffffffff1673ffffffffffffffffffffffffffffffffffffffff16815260200190815260200160002054905092915050565b601260009054906101000a900473ffffffffffffffffffffffffffffffffffffffff1681565b6128566129e5565b73ffffffffffffffffffffffffffffffffffffffff16612874611f37565b73ffffffffffffffffffffffffffffffffffffffff16146128ca576040517f08c379a00000000000000000000000000000000000000000000000000000000081526004016128c190614552565b60405180910390fd5b80600c60006101000a81548160ff02191690831515021790555050565b60085481565b6128f56129e5565b73ffffffffffffffffffffffffffffffffffffffff16612913611f37565b73ffffffffffffffffffffffffffffffffffffffff1614612969576040517f08c379a000000000000000000000000000000000000000000000000000000000815260040161296090614552565b60405180910390fd5b600073ffffffffffffffffffffffffffffffffffffffff168173ffffffffffffffffffffffffffffffffffffffff1614156129d9576040517f08c379a00000000000000000000000000000000000000000000000000000000081526004016129d090614e34565b60405180910390fd5b6129e28161399c565b50565b600033905090565b600073ffffffffffffffffffffffffffffffffffffffff168373ffffffffffffffffffffffffffffffffffffffff161415612a5d576040517f08c379a0000000000000000000000000000000000000000000000000000000008152600401612a5490614ea0565b60405180910390fd5b600073ffffffffffffffffffffffffffffffffffffffff168273ffffffffffffffffffffffffffffffffffffffff161415612acd576040517f08c379a0000000000000000000000000000000000000000000000000000000008152600401612ac490614f0c565b60405180910390fd5b6000612ad884611b79565b905081811015612b1d576040517f08c379a0000000000000000000000000000000000000000000000000000000008152600401612b1490614f78565b60405180910390fd5b612b278483613a62565b612b318383613af4565b8273ffffffffffffffffffffffffffffffffffffffff168473ffffffffffffffffffffffffffffffffffffffff167fddf252ad1be2c89b69c2b068fc378daa952ba7f163c4a11628f55a4df523b3ef84604051612b8e919061402c565b60405180910390a350505050565b600073ffffffffffffffffffffffffffffffffffffffff168373ffffffffffffffffffffffffffffffffffffffff161415612c0c576040517f08c379a0000000000000000000000000000000000000000000000000000000008152600401612c039061500a565b60405180910390fd5b600073ffffffffffffffffffffffffffffffffffffffff168273ffffffffffffffffffffffffffffffffffffffff161415612c7c576040517f08c379a0000000000000000000000000000000000000000000000000000000008152600401612c739061509c565b60405180910390fd5b80600160008573ffffffffffffffffffffffffffffffffffffffff1673ffffffffffffffffffffffffffffffffffffffff16815260200190815260200160002060008473ffffffffffffffffffffffffffffffffffffffff1673ffffffffffffffffffffffffffffffffffffffff168152602001908152602001600020819055508173ffffffffffffffffffffffffffffffffffffffff168373ffffffffffffffffffffffffffffffffffffffff167f8c5be1e5ebec7d5bd14f71427d1e84f3dd0314c0f7b2291e5b200ac8c7c3b92583604051612d5a919061402c565b60405180910390a3505050565b6000612d7384846127a1565b90507fffffffffffffffffffffffffffffffffffffffffffffffffffffffffffffffff8114612ded5781811015612ddf576040517f08c379a0000000000000000000000000000000000000000000000000000000008152600401612dd690615108565b60405180910390fd5b612dec8484848403612b9c565b5b50505050565b612dfc83611a3a565b80612e0c5750612e0b82611a3a565b5b15612e2157612e1c8383836129ed565b613126565b60006103e8600654612e31610fee565b612e3b91906147b0565b612e459190614839565b90508082111580612e625750601760159054906101000a900460ff165b80612e795750601760149054906101000a900460ff165b80612ed15750601660009054906101000a900473ffffffffffffffffffffffffffffffffffffffff1673ffffffffffffffffffffffffffffffffffffffff168373ffffffffffffffffffffffffffffffffffffffff16145b612f10576040517f08c379a0000000000000000000000000000000000000000000000000000000008152600401612f0790615174565b60405180910390fd5b6000612f1b30611b79565b90506000600b548210159050828210612f32578291505b808015612f4c5750601760149054906101000a900460ff16155b8015612fa65750601760009054906101000a900473ffffffffffffffffffffffffffffffffffffffff1673ffffffffffffffffffffffffffffffffffffffff168673ffffffffffffffffffffffffffffffffffffffff1614155b8015612fbe5750600c60009054906101000a900460ff165b15612fcd57612fcc826131d3565b5b612fd68661312b565b612fdf8561312b565b6000849050600080600080601760009054906101000a900473ffffffffffffffffffffffffffffffffffffffff1673ffffffffffffffffffffffffffffffffffffffff168b73ffffffffffffffffffffffffffffffffffffffff1614806130935750601760009054906101000a900473ffffffffffffffffffffffffffffffffffffffff1673ffffffffffffffffffffffffffffffffffffffff168a73ffffffffffffffffffffffffffffffffffffffff16145b1561310557601760169054906101000a900460ff166130e7576040517f08c379a00000000000000000000000000000000000000000000000000000000081526004016130de906151e0565b60405180910390fd5b6130f089613b86565b80955081965082975083985084995050505050505b6131108b8b876129ed565b61311d8b84848785613c8a565b50505050505050505b505050565b6000613136826117de565b9050600d54601b60008473ffffffffffffffffffffffffffffffffffffffff1673ffffffffffffffffffffffffffffffffffffffff1681526020019081526020016000208190555060008111156131cf578173ffffffffffffffffffffffffffffffffffffffff166108fc829081150290604051600060405180830381858888f193505050501580156131cd573d6000803e3d6000fd5b505b5050565b6001601760146101000a81548160ff0219169083151502179055506000600267ffffffffffffffff81111561320b5761320a6141c5565b5b6040519080825280602002602001820160405280156132395781602001602082028036833780820191505090505b509050308160008151811061325157613250614a50565b5b602002602001019073ffffffffffffffffffffffffffffffffffffffff16908173ffffffffffffffffffffffffffffffffffffffff1681525050601660009054906101000a900473ffffffffffffffffffffffffffffffffffffffff1673ffffffffffffffffffffffffffffffffffffffff1663ad5c46486040518163ffffffff1660e01b8152600401602060405180830381865afa1580156132f8573d6000803e3d6000fd5b505050506040513d601f19601f8201168201806040525081019061331c9190615215565b816001815181106133305761332f614a50565b5b602002602001019073ffffffffffffffffffffffffffffffffffffffff16908173ffffffffffffffffffffffffffffffffffffffff168152505061339730601660009054906101000a900473ffffffffffffffffffffffffffffffffffffffff1684612b9c565b6000479050601660009054906101000a900473ffffffffffffffffffffffffffffffffffffffff1673ffffffffffffffffffffffffffffffffffffffff1663791ac9478460008530426040518663ffffffff1660e01b8152600401613400959493929190615300565b600060405180830381600087803b15801561341a57600080fd5b505af115801561342e573d6000803e3d6000fd5b50505050600081476134409190614633565b90506000613483601154613475600e54613467601054600f54613dac90919063ffffffff16565b613dac90919063ffffffff16565b613dac90919063ffffffff16565b905060006134ae826134a0600f5489613dc290919063ffffffff16565b613dd890919063ffffffff16565b905060006134d9836134cb6010548a613dc290919063ffffffff16565b613dd890919063ffffffff16565b90506000613504846134f66011548b613dc290919063ffffffff16565b613dd890919063ffffffff16565b9050600061353f8261353185613523888e613dee90919063ffffffff16565b613dee90919063ffffffff16565b613dee90919063ffffffff16565b9050600061356a8661355c600f548a613dc290919063ffffffff16565b613dd890919063ffffffff16565b90506000613595876135876010548b613dc290919063ffffffff16565b613dd890919063ffffffff16565b905060006135c0886135b26011548c613dc290919063ffffffff16565b613dd890919063ffffffff16565b905060006135fb826135ed856135df888f613dee90919063ffffffff16565b613dee90919063ffffffff16565b613dee90919063ffffffff16565b9050600084111561367057601260009054906101000a900473ffffffffffffffffffffffffffffffffffffffff1673ffffffffffffffffffffffffffffffffffffffff166108fc859081150290604051600060405180830381858888f1935050505015801561366e573d6000803e3d6000fd5b505b60008311156136e357601360009054906101000a900473ffffffffffffffffffffffffffffffffffffffff1673ffffffffffffffffffffffffffffffffffffffff166108fc849081150290604051600060405180830381858888f193505050501580156136e1573d6000803e3d6000fd5b505b600082111561375657601460009054906101000a900473ffffffffffffffffffffffffffffffffffffffff1673ffffffffffffffffffffffffffffffffffffffff166108fc839081150290604051600060405180830381858888f19350505050158015613754573d6000803e3d6000fd5b505b61376b88600f54613dee90919063ffffffff16565b600f8190555061378687601054613dee90919063ffffffff16565b6010819055506137a186601154613dee90919063ffffffff16565b6011819055506137bc85600e54613dee90919063ffffffff16565b600e819055506137d781600d54613dac90919063ffffffff16565b600d819055505050505050505050505050506000601760146101000a81548160ff02191690831515021790555050565b6c0c9f2c9cd04674edea4000000061382a82601554613dac90919063ffffffff16565b111561386b576040517f08c379a0000000000000000000000000000000000000000000000000000000008152600401613862906153a6565b60405180910390fd5b806015600082825461387d91906146c8565b9250508190555061388e8282613af4565b8173ffffffffffffffffffffffffffffffffffffffff16600073ffffffffffffffffffffffffffffffffffffffff167fddf252ad1be2c89b69c2b068fc378daa952ba7f163c4a11628f55a4df523b3ef836040516138ec919061402c565b60405180910390a35050565b61390181611f61565b15613941576040517f08c379a0000000000000000000000000000000000000000000000000000000008152600401613938906148b6565b60405180910390fd5b6001601960008373ffffffffffffffffffffffffffffffffffffffff1673ffffffffffffffffffffffffffffffffffffffff16815260200190815260200160002060006101000a81548160ff02191690831515021790555050565b6000600560009054906101000a900473ffffffffffffffffffffffffffffffffffffffff16905081600560006101000a81548173ffffffffffffffffffffffffffffffffffffffff021916908373ffffffffffffffffffffffffffffffffffffffff1602179055508173ffffffffffffffffffffffffffffffffffffffff168173ffffffffffffffffffffffffffffffffffffffff167f8be0079c531659141344cd1fd0a4f28419497f9722a3daafe3b4186f6b6457e060405160405180910390a35050565b80601860008473ffffffffffffffffffffffffffffffffffffffff1673ffffffffffffffffffffffffffffffffffffffff16815260200190815260200160002054613aad9190614633565b601860008473ffffffffffffffffffffffffffffffffffffffff1673ffffffffffffffffffffffffffffffffffffffff168152602001908152602001600020819055505050565b80601860008473ffffffffffffffffffffffffffffffffffffffff1673ffffffffffffffffffffffffffffffffffffffff16815260200190815260200160002054613b3f91906146c8565b601860008473ffffffffffffffffffffffffffffffffffffffff1673ffffffffffffffffffffffffffffffffffffffff168152602001908152602001600020819055505050565b6000806000806000613bb66064613ba860095489613dc290919063ffffffff16565b613dd890919063ffffffff16565b9350613be06064613bd260075489613dc290919063ffffffff16565b613dd890919063ffffffff16565b9250613c0a6064613bfc60085489613dc290919063ffffffff16565b613dd890919063ffffffff16565b9150613c346064613c26600a5489613dc290919063ffffffff16565b613dd890919063ffffffff16565b9050613c7f81613c7184613c6387613c558a8d613dee90919063ffffffff16565b613dee90919063ffffffff16565b613dee90919063ffffffff16565b613dee90919063ffffffff16565b945091939590929450565b600073ffffffffffffffffffffffffffffffffffffffff168573ffffffffffffffffffffffffffffffffffffffff161415613cfa576040517f08c379a0000000000000000000000000000000000000000000000000000000008152600401613cf190615412565b60405180910390fd5b6000613d3382613d2585613d17888a613dac90919063ffffffff16565b613dac90919063ffffffff16565b613dac90919063ffffffff16565b9050613d408630836129ed565b84600f6000828254613d5291906146c8565b925050819055508360106000828254613d6b91906146c8565b9250508190555082600e6000828254613d8491906146c8565b925050819055508160116000828254613d9d91906146c8565b92505081905550505050505050565b60008183613dba91906146c8565b905092915050565b60008183613dd091906147b0565b905092915050565b60008183613de69190614839565b905092915050565b60008183613dfc9190614633565b905092915050565b6000604051905090565b600080fd5b600080fd5b6000819050919050565b613e2b81613e18565b8114613e3657600080fd5b50565b600081359050613e4881613e22565b92915050565b600073ffffffffffffffffffffffffffffffffffffffff82169050919050565b6000613e7982613e4e565b9050919050565b613e8981613e6e565b8114613e9457600080fd5b50565b600081359050613ea681613e80565b92915050565b60008060408385031215613ec357613ec2613e0e565b5b6000613ed185828601613e39565b9250506020613ee285828601613e97565b9150509250929050565b600081519050919050565b600082825260208201905092915050565b60005b83811015613f26578082015181840152602081019050613f0b565b83811115613f35576000848401525b50505050565b6000601f19601f8301169050919050565b6000613f5782613eec565b613f618185613ef7565b9350613f71818560208601613f08565b613f7a81613f3b565b840191505092915050565b60006020820190508181036000830152613f9f8184613f4c565b905092915050565b60008060408385031215613fbe57613fbd613e0e565b5b6000613fcc85828601613e97565b9250506020613fdd85828601613e39565b9150509250929050565b60008115159050919050565b613ffc81613fe7565b82525050565b60006020820190506140176000830184613ff3565b92915050565b61402681613e18565b82525050565b6000602082019050614041600083018461401d565b92915050565b600061405282613e4e565b9050919050565b61406281614047565b811461406d57600080fd5b50565b60008135905061407f81614059565b92915050565b60006020828403121561409b5761409a613e0e565b5b60006140a984828501614070565b91505092915050565b6000806000606084860312156140cb576140ca613e0e565b5b60006140d986828701613e97565b93505060206140ea86828701613e97565b92505060406140fb86828701613e39565b9150509250925092565b600060ff82169050919050565b61411b81614105565b82525050565b60006020820190506141366000830184614112565b92915050565b61414581614047565b82525050565b6000602082019050614160600083018461413c565b92915050565b60006020828403121561417c5761417b613e0e565b5b600061418a84828501613e97565b91505092915050565b6000602082840312156141a9576141a8613e0e565b5b60006141b784828501613e39565b91505092915050565b600080fd5b7f4e487b7100000000000000000000000000000000000000000000000000000000600052604160045260246000fd5b6141fd82613f3b565b810181811067ffffffffffffffff8211171561421c5761421b6141c5565b5b80604052505050565b600061422f613e04565b905061423b82826141f4565b919050565b600067ffffffffffffffff82111561425b5761425a6141c5565b5b602082029050602081019050919050565b600080fd5b600061428461427f84614240565b614225565b905080838252602082019050602084028301858111156142a7576142a661426c565b5b835b818110156142d057806142bc8882613e97565b8452602084019350506020810190506142a9565b5050509392505050565b600082601f8301126142ef576142ee6141c0565b5b81356142ff848260208601614271565b91505092915050565b600067ffffffffffffffff821115614323576143226141c5565b5b602082029050602081019050919050565b600061434761434284614308565b614225565b9050808382526020820190506020840283018581111561436a5761436961426c565b5b835b81811015614393578061437f8882613e39565b84526020840193505060208101905061436c565b5050509392505050565b600082601f8301126143b2576143b16141c0565b5b81356143c2848260208601614334565b91505092915050565b600080604083850312156143e2576143e1613e0e565b5b600083013567ffffffffffffffff811115614400576143ff613e13565b5b61440c858286016142da565b925050602083013567ffffffffffffffff81111561442d5761442c613e13565b5b6144398582860161439d565b9150509250929050565b61444c81613e6e565b82525050565b60006020820190506144676000830184614443565b92915050565b6000806040838503121561448457614483613e0e565b5b600061449285828601613e97565b92505060206144a385828601613e97565b9150509250929050565b6144b681613fe7565b81146144c157600080fd5b50565b6000813590506144d3816144ad565b92915050565b6000602082840312156144ef576144ee613e0e565b5b60006144fd848285016144c4565b91505092915050565b7f4f776e61626c653a2063616c6c6572206973206e6f7420746865206f776e6572600082015250565b600061453c602083613ef7565b915061454782614506565b602082019050919050565b6000602082019050818103600083015261456b8161452f565b9050919050565b7f416d6f756e742063616e6e6f742062652067726561746572207468616e20746f60008201527f74616c5265666c65637465640000000000000000000000000000000000000000602082015250565b60006145ce602c83613ef7565b91506145d982614572565b604082019050919050565b600060208201905081810360008301526145fd816145c1565b9050919050565b7f4e487b7100000000000000000000000000000000000000000000000000000000600052601160045260246000fd5b600061463e82613e18565b915061464983613e18565b92508282101561465c5761465b614604565b5b828203905092915050565b7f4e487b7100000000000000000000000000000000000000000000000000000000600052602260045260246000fd5b600060028204905060018216806146ae57607f821691505b602082108114156146c2576146c1614667565b5b50919050565b60006146d382613e18565b91506146de83613e18565b9250827fffffffffffffffffffffffffffffffffffffffffffffffffffffffffffffffff0382111561471357614712614604565b5b828201905092915050565b7f416d6f756e742063616e6e6f742062652067726561746572207468616e20746f60008201527f74616c4d61726b6574696e670000000000000000000000000000000000000000602082015250565b600061477a602c83613ef7565b91506147858261471e565b604082019050919050565b600060208201905081810360008301526147a98161476d565b9050919050565b60006147bb82613e18565b91506147c683613e18565b9250817fffffffffffffffffffffffffffffffffffffffffffffffffffffffffffffffff04831182151516156147ff576147fe614604565b5b828202905092915050565b7f4e487b7100000000000000000000000000000000000000000000000000000000600052601260045260246000fd5b600061484482613e18565b915061484f83613e18565b92508261485f5761485e61480a565b5b828204905092915050565b7f4163636f756e74206d757374206e6f74206265206578636c7564656400000000600082015250565b60006148a0601c83613ef7565b91506148ab8261486a565b602082019050919050565b600060208201905081810360008301526148cf81614893565b9050919050565b6000819050919050565b6000819050919050565b60006149056149006148fb846148d6565b6148e0565b613e18565b9050919050565b614915816148ea565b82525050565b600060c0820190506149306000830189614443565b61493d602083018861401d565b61494a604083018761490c565b614957606083018661490c565b6149646080830185614443565b61497160a083018461401d565b979650505050505050565b60008151905061498b81613e22565b92915050565b6000806000606084860312156149aa576149a9613e0e565b5b60006149b88682870161497c565b93505060206149c98682870161497c565b92505060406149da8682870161497c565b9150509250925092565b7f6172726179206c656e67746873206d757374206d617463680000000000000000600082015250565b6000614a1a601883613ef7565b9150614a25826149e4565b602082019050919050565b60006020820190508181036000830152614a4981614a0d565b9050919050565b7f4e487b7100000000000000000000000000000000000000000000000000000000600052603260045260246000fd5b6000614a8a82613e18565b91507fffffffffffffffffffffffffffffffffffffffffffffffffffffffffffffffff821415614abd57614abc614604565b5b600182019050919050565b7f416d6f756e742063616e6e6f742062652067726561746572207468616e20746f60008201527f74616c5472656173757279000000000000000000000000000000000000000000602082015250565b6000614b24602b83613ef7565b9150614b2f82614ac8565b604082019050919050565b60006020820190508181036000830152614b5381614b17565b9050919050565b7f5f6d61726b6574696e67526174652063616e6e6f74206578636565642031303060008201527f2500000000000000000000000000000000000000000000000000000000000000602082015250565b6000614bb6602183613ef7565b9150614bc182614b5a565b604082019050919050565b60006020820190508181036000830152614be581614ba9565b9050919050565b7f4163636f756e74206d757374206265206578636c756465640000000000000000600082015250565b6000614c22601883613ef7565b9150614c2d82614bec565b602082019050919050565b60006020820190508181036000830152614c5181614c15565b9050919050565b7f45524332303a2064656372656173656420616c6c6f77616e63652062656c6f7760008201527f207a65726f000000000000000000000000000000000000000000000000000000602082015250565b6000614cb4602583613ef7565b9150614cbf82614c58565b604082019050919050565b60006020820190508181036000830152614ce381614ca7565b9050919050565b7f5f7265666c656374526174652063616e6e6f7420657863656564203130302500600082015250565b6000614d20601f83613ef7565b9150614d2b82614cea565b602082019050919050565b60006020820190508181036000830152614d4f81614d13565b9050919050565b7f5f7472656173757279526174652063616e6e6f74206578636565642031303025600082015250565b6000614d8c602083613ef7565b9150614d9782614d56565b602082019050919050565b60006020820190508181036000830152614dbb81614d7f565b9050919050565b7f4f776e61626c653a206e6577206f776e657220697320746865207a65726f206160008201527f6464726573730000000000000000000000000000000000000000000000000000602082015250565b6000614e1e602683613ef7565b9150614e2982614dc2565b604082019050919050565b60006020820190508181036000830152614e4d81614e11565b9050919050565b7f7472616e736665722066726f6d20746865207a65726f20616464726573730000600082015250565b6000614e8a601e83613ef7565b9150614e9582614e54565b602082019050919050565b60006020820190508181036000830152614eb981614e7d565b9050919050565b7f7472616e7366657220746f20746865207a65726f206164647265737300000000600082015250565b6000614ef6601c83613ef7565b9150614f0182614ec0565b602082019050919050565b60006020820190508181036000830152614f2581614ee9565b9050919050565b7f7472616e7366657220616d6f756e7420657863656564732062616c616e636500600082015250565b6000614f62601f83613ef7565b9150614f6d82614f2c565b602082019050919050565b60006020820190508181036000830152614f9181614f55565b9050919050565b7f45524332303a20617070726f76652066726f6d20746865207a65726f2061646460008201527f7265737300000000000000000000000000000000000000000000000000000000602082015250565b6000614ff4602483613ef7565b9150614fff82614f98565b604082019050919050565b6000602082019050818103600083015261502381614fe7565b9050919050565b7f45524332303a20617070726f766520746f20746865207a65726f20616464726560008201527f7373000000000000000000000000000000000000000000000000000000000000602082015250565b6000615086602283613ef7565b91506150918261502a565b604082019050919050565b600060208201905081810360008301526150b581615079565b9050919050565b7f45524332303a20696e73756666696369656e7420616c6c6f77616e6365000000600082015250565b60006150f2601d83613ef7565b91506150fd826150bc565b602082019050919050565b60006020820190508181036000830152615121816150e5565b9050919050565b7f45786365656473206d6178207472616e73616374696f6e20616d6f756e740000600082015250565b600061515e601e83613ef7565b915061516982615128565b602082019050919050565b6000602082019050818103600083015261518d81615151565b9050919050565b7f54726164696e67206973206e6f74207965742061637469766500000000000000600082015250565b60006151ca601983613ef7565b91506151d582615194565b602082019050919050565b600060208201905081810360008301526151f9816151bd565b9050919050565b60008151905061520f81613e80565b92915050565b60006020828403121561522b5761522a613e0e565b5b600061523984828501615200565b91505092915050565b600081519050919050565b600082825260208201905092915050565b6000819050602082019050919050565b61527781613e6e565b82525050565b6000615289838361526e565b60208301905092915050565b6000602082019050919050565b60006152ad82615242565b6152b7818561524d565b93506152c28361525e565b8060005b838110156152f35781516152da888261527d565b97506152e583615295565b9250506001810190506152c6565b5085935050505092915050565b600060a082019050615315600083018861401d565b615322602083018761490c565b818103604083015261533481866152a2565b90506153436060830185614443565b615350608083018461401d565b9695505050505050565b7f4d617820737570706c7920657863656564656400000000000000000000000000600082015250565b6000615390601383613ef7565b915061539b8261535a565b602082019050919050565b600060208201905081810360008301526153bf81615383565b9050919050565b7f7461786174696f6e2066726f6d20746865207a65726f20616464726573730000600082015250565b60006153fc601e83613ef7565b9150615407826153c6565b602082019050919050565b6000602082019050818103600083015261542b816153ef565b905091905056fea26469706673582212209c542dff0c4c16d74ca15c3b88ba76cba01bc3bcce8722ee97735ab51fd7e05f64736f6c634300080b0033",
  "immutableReferences": {},
  "source": "// SPDX-License-Identifier: UNLICENSED\r\n\r\npragma solidity ^0.8.0;\r\n\r\nimport \"@openzeppelin/contracts/token/ERC20/ERC20.sol\";\r\nimport \"@openzeppelin/contracts/access/Ownable.sol\";\r\nimport \"@openzeppelin/contracts/utils/math/SafeMath.sol\";\r\nimport \"@uniswap/v2-core/contracts/interfaces/IUniswapV2Factory.sol\";\r\nimport \"@uniswap/v2-core/contracts/interfaces/IUniswapV2Pair.sol\";\r\nimport \"@uniswap/v2-periphery/contracts/interfaces/IUniswapV2Router02.sol\";\r\n\r\ncontract HEAL is ERC20, Ownable {\r\n    using SafeMath for uint256;\r\n\r\n    modifier lockSwap {\r\n        _inSwap = true;\r\n        _;\r\n        _inSwap = false;\r\n    }\r\n\r\n    modifier liquidityAdd {\r\n        _inLiquidityAdd = true;\r\n        _;\r\n        _inLiquidityAdd = false;\r\n    }\r\n\r\n    uint256 public constant MAX_SUPPLY = 1_000_000_000_000 ether;\r\n\r\n    uint256 internal _maxTransfer = 5; // 0.5 %\r\n    uint256 public marketingRate = 3;\r\n    uint256 public treasuryRate = 4;\r\n    uint256 public reflectRate = 2;\r\n    uint256 public charityRate = 3;\r\n    /// @notice Contract HEAL balance threshold before `_swap` is invoked\r\n    uint256 public minTokenBalance = 1000 ether;\r\n    bool public swapFees = true;\r\n\r\n    // total wei reflected ever\r\n    uint256 public ethReflectionBasis;\r\n    uint256 public totalReflected;\r\n    uint256 public totalMarketing;\r\n    uint256 public totalTreasury;\r\n    uint256 public totalCharity;\r\n\r\n    address payable public buybackWallet;\r\n    address payable public treasuryWallet;\r\n    address payable public charityWallet;\r\n\r\n    uint256 internal _totalSupply = 0;\r\n    IUniswapV2Router02 internal _router = IUniswapV2Router02(address(0));\r\n    address internal _pair;\r\n    bool internal _inSwap = false;\r\n    bool internal _inLiquidityAdd = false;\r\n    bool public tradingActive = false;\r\n\r\n    mapping(address => uint256) private _balances;\r\n    mapping(address => bool) private _reflectionExcluded;\r\n    mapping(address => bool) private _taxExcluded;\r\n    mapping(address => uint256) public lastReflectionBasis;\r\n    address[] internal _reflectionExcludedList;\r\n\r\n    constructor(\r\n        address _uniswapFactory,\r\n        address _uniswapRouter,\r\n        address payable _buybackWallet,\r\n        address payable _treasuryWallet,\r\n        address payable _charityWallet\r\n    ) ERC20(\"Heal The World\", \"HEAL\") Ownable() {\r\n        addTaxExcluded(owner());\r\n        addTaxExcluded(address(0));\r\n        addTaxExcluded(_buybackWallet);\r\n        addTaxExcluded(_treasuryWallet);\r\n        addTaxExcluded(address(this));\r\n\r\n        buybackWallet = _buybackWallet;\r\n        treasuryWallet = _treasuryWallet;\r\n        charityWallet = _charityWallet;\r\n\r\n        _router = IUniswapV2Router02(_uniswapRouter);\r\n        IUniswapV2Factory uniswapContract = IUniswapV2Factory(_uniswapFactory);\r\n        _pair = uniswapContract.createPair(address(this), _router.WETH());\r\n    }\r\n\r\n    /// @notice Change the address of the buyback wallet\r\n    /// @param _buybackWallet The new address of the buyback wallet\r\n    function setBuybackWallet(address payable _buybackWallet) external onlyOwner() {\r\n        buybackWallet = _buybackWallet;\r\n    }\r\n\r\n    /// @notice Change the address of the treasury wallet\r\n    /// @param _treasuryWallet The new address of the treasury wallet\r\n    function setTreasuryWallet(address payable _treasuryWallet) external onlyOwner() {\r\n        treasuryWallet = _treasuryWallet;\r\n    }\r\n\r\n    /// @notice Change the address of the charity wallet\r\n    /// @param _charityWallet The new address of the treasury wallet\r\n    function setCharityWallet(address payable _charityWallet) external onlyOwner() {\r\n        charityWallet = _charityWallet;\r\n    }\r\n\r\n    /// @notice Change the marketing tax rate\r\n    /// @param _marketingRate The new marketing tax rate\r\n    function setMarketingRate(uint256 _marketingRate) external onlyOwner() {\r\n        require(_marketingRate <= 100, \"_marketingRate cannot exceed 100%\");\r\n        marketingRate = _marketingRate;\r\n    }\r\n\r\n    /// @notice Change the treasury tax rate\r\n    /// @param _treasuryRate The new treasury tax rate\r\n    function setTreasuryRate(uint256 _treasuryRate) external onlyOwner() {\r\n        require(_treasuryRate <= 100, \"_treasuryRate cannot exceed 100%\");\r\n        treasuryRate = _treasuryRate;\r\n    }\r\n\r\n    /// @notice Change the reflection tax rate\r\n    /// @param _reflectRate The new reflection tax rate\r\n    function setReflectRate(uint256 _reflectRate) external onlyOwner() {\r\n        require(_reflectRate <= 100, \"_reflectRate cannot exceed 100%\");\r\n        reflectRate = _reflectRate;\r\n    }\r\n\r\n    /// @notice Change the minimum contract HEAL balance before `_swap` gets invoked\r\n    /// @param _minTokenBalance The new minimum balance\r\n    function setMinTokenBalance(uint256 _minTokenBalance) external onlyOwner() {\r\n        minTokenBalance = _minTokenBalance;\r\n    }\r\n\r\n    /// @notice Rescue HEAL from the marketing amount\r\n    /// @dev Should only be used in an emergency\r\n    /// @param _amount The amount of HEAL to rescue\r\n    /// @param _recipient The recipient of the rescued HEAL\r\n    function rescueMarketingTokens(uint256 _amount, address _recipient) external onlyOwner() {\r\n        require(_amount <= totalMarketing, \"Amount cannot be greater than totalMarketing\");\r\n        _rawTransfer(address(this), _recipient, _amount);\r\n        totalMarketing -= _amount;\r\n    }\r\n\r\n    /// @notice Rescue HEAL from the treasury amount\r\n    /// @dev Should only be used in an emergency\r\n    /// @param _amount The amount of HEAL to rescue\r\n    /// @param _recipient The recipient of the rescued HEAL\r\n    function rescueTreasuryTokens(uint256 _amount, address _recipient) external onlyOwner() {\r\n        require(_amount <= totalTreasury, \"Amount cannot be greater than totalTreasury\");\r\n        _rawTransfer(address(this), _recipient, _amount);\r\n        totalTreasury -= _amount;\r\n    }\r\n\r\n    /// @notice Rescue HEAL from the treasury amount\r\n    /// @dev Should only be used in an emergency\r\n    /// @param _amount The amount of HEAL to rescue\r\n    /// @param _recipient The recipient of the rescued HEAL\r\n    function rescueCharityTokens(uint256 _amount, address _recipient) external onlyOwner() {\r\n        require(_amount <= totalCharity, \"Amount cannot be greater than totalTreasury\");\r\n        _rawTransfer(address(this), _recipient, _amount);\r\n        totalCharity -= _amount;\r\n    }\r\n\r\n    /// @notice Rescue HEAL from the reflection amount\r\n    /// @dev Should only be used in an emergency\r\n    /// @param _amount The amount of HEAL to rescue\r\n    /// @param _recipient The recipient of the rescued HEAL\r\n    function rescueReflectionTokens(uint256 _amount, address _recipient) external onlyOwner() {\r\n        require(_amount <= totalReflected, \"Amount cannot be greater than totalReflected\");\r\n        _rawTransfer(address(this), _recipient, _amount);\r\n        totalReflected -= _amount;\r\n    }\r\n\r\n    function addLiquidity(uint256 tokens) external payable onlyOwner() liquidityAdd {\r\n        _mint(address(this), tokens);\r\n        _approve(address(this), address(_router), tokens);\r\n\r\n        _router.addLiquidityETH{value: msg.value}(\r\n            address(this),\r\n            tokens,\r\n            0,\r\n            0,\r\n            owner(),\r\n            // solhint-disable-next-line not-rely-on-time\r\n            block.timestamp\r\n        );\r\n    }\r\n\r\n    /// @notice Enables trading on Uniswap\r\n    function enableTrading() external onlyOwner {\r\n        tradingActive = true;\r\n    }\r\n\r\n    /// @notice Disables trading on Uniswap\r\n    function disableTrading() external onlyOwner {\r\n        tradingActive = false;\r\n    }\r\n\r\n    function addReflection() external payable {\r\n        ethReflectionBasis += msg.value;\r\n    }\r\n\r\n    function isReflectionExcluded(address account) public view returns (bool) {\r\n        return _reflectionExcluded[account];\r\n    }\r\n\r\n    function removeReflectionExcluded(address account) external onlyOwner() {\r\n        require(isReflectionExcluded(account), \"Account must be excluded\");\r\n\r\n        _reflectionExcluded[account] = false;\r\n    }\r\n\r\n    function addReflectionExcluded(address account) external onlyOwner() {\r\n        _addReflectionExcluded(account);\r\n    }\r\n\r\n    function _addReflectionExcluded(address account) internal {\r\n        require(!isReflectionExcluded(account), \"Account must not be excluded\");\r\n        _reflectionExcluded[account] = true;\r\n    }\r\n\r\n    function isTaxExcluded(address account) public view returns (bool) {\r\n        return _taxExcluded[account];\r\n    }\r\n\r\n    function addTaxExcluded(address account) public onlyOwner() {\r\n        require(!isTaxExcluded(account), \"Account must not be excluded\");\r\n\r\n        _taxExcluded[account] = true;\r\n    }\r\n\r\n    function removeTaxExcluded(address account) external onlyOwner() {\r\n        require(isTaxExcluded(account), \"Account must not be excluded\");\r\n\r\n        _taxExcluded[account] = false;\r\n    }\r\n\r\n    function balanceOf(address account)\r\n        public\r\n        view\r\n        virtual\r\n        override\r\n        returns (uint256)\r\n    {\r\n        return _balances[account];\r\n    }\r\n\r\n    function _addBalance(address account, uint256 amount) internal {\r\n        _balances[account] = _balances[account] + amount;\r\n    }\r\n\r\n    function _subtractBalance(address account, uint256 amount) internal {\r\n        _balances[account] = _balances[account] - amount;\r\n    }\r\n\r\n    function _transfer(\r\n        address sender,\r\n        address recipient,\r\n        uint256 amount\r\n    ) internal override {\r\n        if (isTaxExcluded(sender) || isTaxExcluded(recipient)) {\r\n            _rawTransfer(sender, recipient, amount);\r\n            return;\r\n        }\r\n\r\n        uint256 maxTxAmount = totalSupply() * _maxTransfer / 1000;\r\n        require(amount <= maxTxAmount || _inLiquidityAdd || _inSwap || recipient == address(_router), \"Exceeds max transaction amount\");\r\n\r\n        uint256 contractTokenBalance = balanceOf(address(this));\r\n        bool overMinTokenBalance = contractTokenBalance >= minTokenBalance;\r\n\r\n        if(contractTokenBalance >= maxTxAmount) {\r\n            contractTokenBalance = maxTxAmount;\r\n        }\r\n\r\n        if (\r\n            overMinTokenBalance &&\r\n            !_inSwap &&\r\n            sender != _pair &&\r\n            swapFees\r\n        ) {\r\n            _swap(contractTokenBalance);\r\n        }\r\n\r\n        _claimReflection(payable(sender));\r\n        _claimReflection(payable(recipient));\r\n\r\n        uint256 send = amount;\r\n        uint256 reflect;\r\n        uint256 marketing;\r\n        uint256 treasury;\r\n        uint256 charity;\r\n        if (sender == _pair || recipient == _pair) {\r\n            require(tradingActive, \"Trading is not yet active\");\r\n            (\r\n                send,\r\n                reflect,\r\n                marketing,\r\n                treasury,\r\n                charity\r\n            ) = _getTaxAmounts(amount);\r\n        } \r\n        _rawTransfer(sender, recipient, send);\r\n        _takeTaxes(sender, marketing, treasury, reflect, charity);\r\n    }\r\n\r\n    function unclaimedReflection(address addr) public view returns (uint256) {\r\n        if (addr == _pair || addr == address(_router)) return 0;\r\n\r\n        uint256 basisDifference = ethReflectionBasis - lastReflectionBasis[addr];\r\n        return basisDifference * balanceOf(addr) / _totalSupply;\r\n    }\r\n\r\n    /// @notice Claims reflection pool ETH\r\n    /// @param addr The address to claim the reflection for\r\n    function _claimReflection(address payable addr) internal {\r\n        uint256 unclaimed = unclaimedReflection(addr);\r\n        lastReflectionBasis[addr] = ethReflectionBasis;\r\n        if (unclaimed > 0) {\r\n            addr.transfer(unclaimed);\r\n        }\r\n    }\r\n\r\n    function claimReflection() external {\r\n        _claimReflection(payable(msg.sender));\r\n    }\r\n\r\n    /// @notice Perform a Uniswap v2 swap from HEAL to ETH and handle tax distribution\r\n    /// @param amount The amount of HEAL to swap in wei\r\n    /// @dev `amount` is always <= this contract's ETH balance. Calculate and distribute marketing and reflection taxes\r\n    function _swap(uint256 amount) internal lockSwap {\r\n        address[] memory path = new address[](2);\r\n        path[0] = address(this);\r\n        path[1] = _router.WETH();\r\n\r\n        _approve(address(this), address(_router), amount);\r\n\r\n        uint256 contractEthBalance = address(this).balance;\r\n\r\n        _router.swapExactTokensForETHSupportingFeeOnTransferTokens(\r\n            amount,\r\n            0,\r\n            path,\r\n            address(this),\r\n            block.timestamp\r\n        );\r\n\r\n        uint256 tradeValue = address(this).balance - contractEthBalance;\r\n\r\n        uint256 totalTaxes = totalMarketing.add(totalTreasury).add(totalReflected).add(totalCharity);\r\n        uint256 marketingAmount = amount.mul(totalMarketing).div(totalTaxes);\r\n        uint256 treasuryAmount = amount.mul(totalTreasury).div(totalTaxes);\r\n        uint256 charityAmount = amount.mul(totalCharity).div(totalTaxes);\r\n        uint256 reflectedAmount = amount.sub(marketingAmount).sub(treasuryAmount).sub(charityAmount);\r\n\r\n        uint256 marketingEth = tradeValue.mul(totalMarketing).div(totalTaxes);\r\n        uint256 treasuryEth = tradeValue.mul(totalTreasury).div(totalTaxes);\r\n        uint256 charityEth = tradeValue.mul(totalCharity).div(totalTaxes);\r\n        uint256 reflectedEth = tradeValue.sub(marketingEth).sub(treasuryEth).sub(charityEth);\r\n\r\n        if (marketingEth > 0) {\r\n            buybackWallet.transfer(marketingEth);\r\n        }\r\n        if (treasuryEth > 0) {\r\n            treasuryWallet.transfer(treasuryEth);\r\n        }\r\n        if (charityEth > 0) {\r\n            charityWallet.transfer(charityEth);\r\n        }\r\n        totalMarketing = totalMarketing.sub(marketingAmount);\r\n        totalTreasury = totalTreasury.sub(treasuryAmount);\r\n        totalCharity = totalCharity.sub(charityAmount);\r\n        totalReflected = totalReflected.sub(reflectedAmount);\r\n        ethReflectionBasis = ethReflectionBasis.add(reflectedEth);\r\n    }\r\n\r\n    function swapAll() external {\r\n        uint256 maxTxAmount = totalSupply() * _maxTransfer / 1000;\r\n        uint256 contractTokenBalance = balanceOf(address(this));\r\n\r\n        if(contractTokenBalance >= maxTxAmount)\r\n        {\r\n            contractTokenBalance = maxTxAmount;\r\n        }\r\n\r\n        if (\r\n            !_inSwap\r\n        ) {\r\n            _swap(contractTokenBalance);\r\n        }\r\n    }\r\n\r\n    function withdrawAll() external onlyOwner() {\r\n        payable(owner()).transfer(address(this).balance);\r\n    }\r\n\r\n    /// @notice Transfers HEAL from an account to this contract for taxes\r\n    /// @param _account The account to transfer HEAL from\r\n    /// @param _marketingAmount The amount of marketing tax to transfer\r\n    /// @param _treasuryAmount The amount of treasury tax to transfer\r\n    /// @param _reflectAmount The amount of reflection tax to transfer\r\n    /// @param _charityAmount The amount of charity tax to transfer\r\n    function _takeTaxes(\r\n        address _account,\r\n        uint256 _marketingAmount,\r\n        uint256 _treasuryAmount,\r\n        uint256 _reflectAmount,\r\n        uint256 _charityAmount\r\n   ) internal {\r\n        require(_account != address(0), \"taxation from the zero address\");\r\n\r\n        uint256 totalAmount = _marketingAmount.add(_treasuryAmount).add(_reflectAmount).add(_charityAmount);\r\n        _rawTransfer(_account, address(this), totalAmount);\r\n        totalMarketing += _marketingAmount;\r\n        totalTreasury += _treasuryAmount;\r\n        totalReflected += _reflectAmount;\r\n        totalCharity += _charityAmount;\r\n    }\r\n\r\n    /// @notice Get a breakdown of send and tax amounts\r\n    /// @param amount The amount to tax in wei\r\n    /// @return send The raw amount to send\r\n    /// @return reflect The raw reflection tax amount\r\n    /// @return marketing The raw marketing tax amount\r\n    /// @return treasury The raw treasury tax amount\r\n    function _getTaxAmounts(uint256 amount)\r\n        internal\r\n        view\r\n        returns (\r\n            uint256 send,\r\n            uint256 reflect,\r\n            uint256 marketing,\r\n            uint256 treasury,\r\n            uint256 charity\r\n        )\r\n    {\r\n        reflect = amount.mul(reflectRate).div(100);\r\n        marketing = amount.mul(marketingRate).div(100);\r\n        treasury = amount.mul(treasuryRate).div(100);\r\n        charity = amount.mul(charityRate).div(100);\r\n        send = amount.sub(reflect).sub(marketing).sub(treasury).sub(charity);\r\n    }\r\n\r\n    // modified from OpenZeppelin ERC20\r\n    function _rawTransfer(\r\n        address sender,\r\n        address recipient,\r\n        uint256 amount\r\n    ) internal {\r\n        require(sender != address(0), \"transfer from the zero address\");\r\n        require(recipient != address(0), \"transfer to the zero address\");\r\n\r\n        uint256 senderBalance = balanceOf(sender);\r\n        require(senderBalance >= amount, \"transfer amount exceeds balance\");\r\n        unchecked {\r\n            _subtractBalance(sender, amount);\r\n        }\r\n        _addBalance(recipient, amount);\r\n\r\n        emit Transfer(sender, recipient, amount);\r\n    }\r\n\r\n    function setMaxTransfer(uint256 maxTransfer) external onlyOwner() {\r\n        _maxTransfer = maxTransfer;\r\n    }\r\n\r\n    /// @notice Enable or disable whether swap occurs during `_transfer`\r\n    /// @param _swapFees If true, enables swap during `_transfer`\r\n    function setSwapFees(bool _swapFees) external onlyOwner() {\r\n        swapFees = _swapFees;\r\n    }\r\n\r\n    function totalSupply() public view override returns (uint256) {\r\n        return _totalSupply;\r\n    }\r\n\r\n    function _mint(address account, uint256 amount) internal override {\r\n        require(_totalSupply.add(amount) <= MAX_SUPPLY, \"Max supply exceeded\");\r\n        _totalSupply += amount;\r\n        _addBalance(account, amount);\r\n        emit Transfer(address(0), account, amount);\r\n    }\r\n\r\n    function mint(address account, uint256 amount) external onlyOwner() {\r\n        _mint(account, amount);\r\n    }\r\n\r\n    function airdrop(address[] memory accounts, uint256[] memory amounts) external onlyOwner() {\r\n        require(accounts.length == amounts.length, \"array lengths must match\");\r\n\r\n        for (uint256 i = 0; i < accounts.length; i++) {\r\n            _mint(accounts[i], amounts[i]);\r\n        }\r\n    }\r\n\r\n    receive() external payable {}\r\n}",
  "sourcePath": "D:\\Working\\Freelancing\\6.aplpha\\Project\\backend\\contracts\\HEAL.sol",
  "compiler": {
    "name": "solc",
    "version": "0.8.11+commit.d7f03943.Emscripten.clang"
  },
  "schemaVersion": "3.4.4",
  "updatedAt": "2022-03-05T21:01:17.644Z",
  "networkType": "ethereum",
  "devdoc": {
    "kind": "dev",
    "methods": {
      "allowance(address,address)": {
        "details": "See {IERC20-allowance}."
      },
      "approve(address,uint256)": {
        "details": "See {IERC20-approve}. NOTE: If `amount` is the maximum `uint256`, the allowance is not updated on `transferFrom`. This is semantically equivalent to an infinite approval. Requirements: - `spender` cannot be the zero address."
      },
      "balanceOf(address)": {
        "details": "See {IERC20-balanceOf}."
      },
      "decimals()": {
        "details": "Returns the number of decimals used to get its user representation. For example, if `decimals` equals `2`, a balance of `505` tokens should be displayed to a user as `5.05` (`505 / 10 ** 2`). Tokens usually opt for a value of 18, imitating the relationship between Ether and Wei. This is the value {ERC20} uses, unless this function is overridden; NOTE: This information is only used for _display_ purposes: it in no way affects any of the arithmetic of the contract, including {IERC20-balanceOf} and {IERC20-transfer}."
      },
      "decreaseAllowance(address,uint256)": {
        "details": "Atomically decreases the allowance granted to `spender` by the caller. This is an alternative to {approve} that can be used as a mitigation for problems described in {IERC20-approve}. Emits an {Approval} event indicating the updated allowance. Requirements: - `spender` cannot be the zero address. - `spender` must have allowance for the caller of at least `subtractedValue`."
      },
      "increaseAllowance(address,uint256)": {
        "details": "Atomically increases the allowance granted to `spender` by the caller. This is an alternative to {approve} that can be used as a mitigation for problems described in {IERC20-approve}. Emits an {Approval} event indicating the updated allowance. Requirements: - `spender` cannot be the zero address."
      },
      "name()": {
        "details": "Returns the name of the token."
      },
      "owner()": {
        "details": "Returns the address of the current owner."
      },
      "renounceOwnership()": {
        "details": "Leaves the contract without owner. It will not be possible to call `onlyOwner` functions anymore. Can only be called by the current owner. NOTE: Renouncing ownership will leave the contract without an owner, thereby removing any functionality that is only available to the owner."
      },
      "rescueCharityTokens(uint256,address)": {
        "details": "Should only be used in an emergency",
        "params": {
          "_amount": "The amount of HEAL to rescue",
          "_recipient": "The recipient of the rescued HEAL"
        }
      },
      "rescueMarketingTokens(uint256,address)": {
        "details": "Should only be used in an emergency",
        "params": {
          "_amount": "The amount of HEAL to rescue",
          "_recipient": "The recipient of the rescued HEAL"
        }
      },
      "rescueReflectionTokens(uint256,address)": {
        "details": "Should only be used in an emergency",
        "params": {
          "_amount": "The amount of HEAL to rescue",
          "_recipient": "The recipient of the rescued HEAL"
        }
      },
      "rescueTreasuryTokens(uint256,address)": {
        "details": "Should only be used in an emergency",
        "params": {
          "_amount": "The amount of HEAL to rescue",
          "_recipient": "The recipient of the rescued HEAL"
        }
      },
      "setBuybackWallet(address)": {
        "params": {
          "_buybackWallet": "The new address of the buyback wallet"
        }
      },
      "setCharityWallet(address)": {
        "params": {
          "_charityWallet": "The new address of the treasury wallet"
        }
      },
      "setMarketingRate(uint256)": {
        "params": {
          "_marketingRate": "The new marketing tax rate"
        }
      },
      "setMinTokenBalance(uint256)": {
        "params": {
          "_minTokenBalance": "The new minimum balance"
        }
      },
      "setReflectRate(uint256)": {
        "params": {
          "_reflectRate": "The new reflection tax rate"
        }
      },
      "setSwapFees(bool)": {
        "params": {
          "_swapFees": "If true, enables swap during `_transfer`"
        }
      },
      "setTreasuryRate(uint256)": {
        "params": {
          "_treasuryRate": "The new treasury tax rate"
        }
      },
      "setTreasuryWallet(address)": {
        "params": {
          "_treasuryWallet": "The new address of the treasury wallet"
        }
      },
      "symbol()": {
        "details": "Returns the symbol of the token, usually a shorter version of the name."
      },
      "totalSupply()": {
        "details": "See {IERC20-totalSupply}."
      },
      "transfer(address,uint256)": {
        "details": "See {IERC20-transfer}. Requirements: - `to` cannot be the zero address. - the caller must have a balance of at least `amount`."
      },
      "transferFrom(address,address,uint256)": {
        "details": "See {IERC20-transferFrom}. Emits an {Approval} event indicating the updated allowance. This is not required by the EIP. See the note at the beginning of {ERC20}. NOTE: Does not update the allowance if the current allowance is the maximum `uint256`. Requirements: - `from` and `to` cannot be the zero address. - `from` must have a balance of at least `amount`. - the caller must have allowance for ``from``'s tokens of at least `amount`."
      },
      "transferOwnership(address)": {
        "details": "Transfers ownership of the contract to a new account (`newOwner`). Can only be called by the current owner."
      }
    },
    "version": 1
  },
  "userdoc": {
    "kind": "user",
    "methods": {
      "disableTrading()": {
        "notice": "Disables trading on Uniswap"
      },
      "enableTrading()": {
        "notice": "Enables trading on Uniswap"
      },
      "minTokenBalance()": {
        "notice": "Contract HEAL balance threshold before `_swap` is invoked"
      },
      "rescueCharityTokens(uint256,address)": {
        "notice": "Rescue HEAL from the treasury amount"
      },
      "rescueMarketingTokens(uint256,address)": {
        "notice": "Rescue HEAL from the marketing amount"
      },
      "rescueReflectionTokens(uint256,address)": {
        "notice": "Rescue HEAL from the reflection amount"
      },
      "rescueTreasuryTokens(uint256,address)": {
        "notice": "Rescue HEAL from the treasury amount"
      },
      "setBuybackWallet(address)": {
        "notice": "Change the address of the buyback wallet"
      },
      "setCharityWallet(address)": {
        "notice": "Change the address of the charity wallet"
      },
      "setMarketingRate(uint256)": {
        "notice": "Change the marketing tax rate"
      },
      "setMinTokenBalance(uint256)": {
        "notice": "Change the minimum contract HEAL balance before `_swap` gets invoked"
      },
      "setReflectRate(uint256)": {
        "notice": "Change the reflection tax rate"
      },
      "setSwapFees(bool)": {
        "notice": "Enable or disable whether swap occurs during `_transfer`"
      },
      "setTreasuryRate(uint256)": {
        "notice": "Change the treasury tax rate"
      },
      "setTreasuryWallet(address)": {
        "notice": "Change the address of the treasury wallet"
      }
    },
    "version": 1
  }
}