{
  "contractName": "HEALFaaS",
  "abi": [
    {
      "inputs": [
        {
          "internalType": "address",
          "name": "_tokenAddress",
          "type": "address"
        },
        {
          "internalType": "address",
          "name": "_spendAddress",
          "type": "address"
        }
      ],
      "stateMutability": "nonpayable",
      "type": "constructor"
    },
    {
      "anonymous": false,
      "inputs": [
        {
          "indexed": true,
          "internalType": "address",
          "name": "previousOwner",
          "type": "address"
        },
        {
          "indexed": true,
          "internalType": "address",
          "name": "newOwner",
          "type": "address"
        }
      ],
      "name": "OwnershipTransferred",
      "type": "event"
    },
    {
      "inputs": [
        {
          "internalType": "uint256",
          "name": "",
          "type": "uint256"
        }
      ],
      "name": "allFarmingContracts",
      "outputs": [
        {
          "internalType": "address",
          "name": "",
          "type": "address"
        }
      ],
      "stateMutability": "view",
      "type": "function",
      "constant": true
    },
    {
      "inputs": [],
      "name": "getSpendAddress",
      "outputs": [
        {
          "internalType": "address",
          "name": "",
          "type": "address"
        }
      ],
      "stateMutability": "view",
      "type": "function",
      "constant": true
    },
    {
      "inputs": [],
      "name": "getTokenAddress",
      "outputs": [
        {
          "internalType": "address",
          "name": "",
          "type": "address"
        }
      ],
      "stateMutability": "view",
      "type": "function",
      "constant": true
    },
    {
      "inputs": [],
      "name": "owner",
      "outputs": [
        {
          "internalType": "address",
          "name": "",
          "type": "address"
        }
      ],
      "stateMutability": "view",
      "type": "function",
      "constant": true
    },
    {
      "inputs": [],
      "name": "productID",
      "outputs": [
        {
          "internalType": "uint8",
          "name": "",
          "type": "uint8"
        }
      ],
      "stateMutability": "view",
      "type": "function",
      "constant": true
    },
    {
      "inputs": [],
      "name": "renounceOwnership",
      "outputs": [],
      "stateMutability": "nonpayable",
      "type": "function"
    },
    {
      "inputs": [
        {
          "internalType": "uint8",
          "name": "_newId",
          "type": "uint8"
        }
      ],
      "name": "setProductID",
      "outputs": [],
      "stateMutability": "nonpayable",
      "type": "function"
    },
    {
      "inputs": [
        {
          "internalType": "address",
          "name": "_spendAddy",
          "type": "address"
        }
      ],
      "name": "setSpendAddy",
      "outputs": [],
      "stateMutability": "nonpayable",
      "type": "function"
    },
    {
      "inputs": [
        {
          "internalType": "address",
          "name": "_tokenAddy",
          "type": "address"
        }
      ],
      "name": "setTokenAddy",
      "outputs": [],
      "stateMutability": "nonpayable",
      "type": "function"
    },
    {
      "inputs": [
        {
          "internalType": "address",
          "name": "",
          "type": "address"
        },
        {
          "internalType": "uint256",
          "name": "",
          "type": "uint256"
        }
      ],
      "name": "tokensUpForStaking",
      "outputs": [
        {
          "internalType": "address",
          "name": "",
          "type": "address"
        }
      ],
      "stateMutability": "view",
      "type": "function",
      "constant": true
    },
    {
      "inputs": [],
      "name": "totalStakingContracts",
      "outputs": [
        {
          "internalType": "uint256",
          "name": "",
          "type": "uint256"
        }
      ],
      "stateMutability": "view",
      "type": "function",
      "constant": true
    },
    {
      "inputs": [
        {
          "internalType": "address",
          "name": "newOwner",
          "type": "address"
        }
      ],
      "name": "transferOwnership",
      "outputs": [],
      "stateMutability": "nonpayable",
      "type": "function"
    },
    {
      "inputs": [],
      "name": "withdrawETH",
      "outputs": [],
      "stateMutability": "nonpayable",
      "type": "function"
    },
    {
      "inputs": [
        {
          "internalType": "address",
          "name": "_tokenAddy",
          "type": "address"
        },
        {
          "internalType": "uint256",
          "name": "_amount",
          "type": "uint256"
        }
      ],
      "name": "withdrawTokens",
      "outputs": [],
      "stateMutability": "nonpayable",
      "type": "function"
    },
    {
      "inputs": [],
      "name": "getAllFarmingContracts",
      "outputs": [
        {
          "internalType": "address[]",
          "name": "",
          "type": "address[]"
        }
      ],
      "stateMutability": "view",
      "type": "function",
      "constant": true
    },
    {
      "inputs": [
        {
          "internalType": "address",
          "name": "_tokenAddress",
          "type": "address"
        }
      ],
      "name": "getTokensForStaking",
      "outputs": [
        {
          "internalType": "address[]",
          "name": "",
          "type": "address[]"
        }
      ],
      "stateMutability": "view",
      "type": "function",
      "constant": true
    },
    {
      "inputs": [
        {
          "internalType": "address",
          "name": "_rewardsTokenAddy",
          "type": "address"
        },
        {
          "internalType": "address",
          "name": "_stakedTokenAddy",
          "type": "address"
        },
        {
          "internalType": "uint256",
          "name": "_supply",
          "type": "uint256"
        },
        {
          "internalType": "uint256",
          "name": "_perBlockAllocation",
          "type": "uint256"
        },
        {
          "internalType": "uint256",
          "name": "_lockedUntilDate",
          "type": "uint256"
        },
        {
          "internalType": "uint256",
          "name": "_timelockSeconds",
          "type": "uint256"
        },
        {
          "internalType": "bool",
          "name": "_isStakedNft",
          "type": "bool"
        }
      ],
      "name": "createNewTokenContract",
      "outputs": [],
      "stateMutability": "payable",
      "type": "function",
      "payable": true
    },
    {
      "inputs": [
        {
          "internalType": "address",
          "name": "_faasTokenAddy",
          "type": "address"
        }
      ],
      "name": "removeTokenContract",
      "outputs": [],
      "stateMutability": "nonpayable",
      "type": "function"
    }
  ],
  "bytecode": "0x60806040523480156200001157600080fd5b5060405162003f1b38038062003f1b833981016040819052620000349162000101565b60088282620000433362000094565b60028054600180546001600160a01b03199081166001600160a01b03968716179091556001600160a81b0319909116600160a01b60ff96909616959095021693909317911617905550620001389050565b600080546001600160a01b038381166001600160a01b0319831681178455604051919092169283917f8be0079c531659141344cd1fd0a4f28419497f9722a3daafe3b4186f6b6457e09190a35050565b80516001600160a01b0381168114620000fc57600080fd5b919050565b6000806040838503121562000114578182fd5b6200011f83620000e4565b91506200012f60208401620000e4565b90509250929050565b613dd380620001486000396000f3fe6080604052600436106200011f5760003560e01c8063842a84bf11620000a1578063dc3aaab5116200006c578063dc3aaab5146200030b578063e086e5ec146200032b578063f2fde38b1462000343578063f3c8f7991462000368578063f9fb452f146200038057600080fd5b8063842a84bf146200027a5780638da5cb5b146200029f5780639e9f695d14620002bf578063b1e6cb8214620002e457600080fd5b806351dd8dd011620000ee57806351dd8dd014620001dc578063571d959d14620001f3578063715018a614620002185780637614d4e214620002305780637c0bf7bb146200025557600080fd5b806306b091f9146200012457806310fe9ae8146200014b5780631638a08514620001835780634bc10ccb14620001b7575b600080fd5b3480156200013157600080fd5b5062000149620001433660046200123b565b620003b6565b005b3480156200015857600080fd5b506001546001600160a01b03165b6040516001600160a01b0390911681526020015b60405180910390f35b3480156200019057600080fd5b50620001a8620001a23660046200117e565b62000591565b6040516200017a9190620012dd565b348015620001c457600080fd5b5062000149620001d63660046200117e565b62000609565b62000149620001ed366004620011c3565b62000658565b3480156200020057600080fd5b5062000149620002123660046200117e565b62000adc565b3480156200022557600080fd5b506200014962000dd2565b3480156200023d57600080fd5b50620001666200024f3660046200123b565b62000e0d565b3480156200026257600080fd5b5062000149620002743660046200117e565b62000e46565b3480156200028757600080fd5b50620001666200029936600462001288565b62000e95565b348015620002ac57600080fd5b506000546001600160a01b031662000166565b348015620002cc57600080fd5b5062000149620002de366004620012ba565b62000ec0565b348015620002f157600080fd5b50620002fc60055481565b6040519081526020016200017a565b3480156200031857600080fd5b506002546001600160a01b031662000166565b3480156200033857600080fd5b506200014962000f0d565b3480156200035057600080fd5b5062000149620003623660046200117e565b62000f96565b3480156200037557600080fd5b50620001a862001038565b3480156200038d57600080fd5b50600254620003a390600160a01b900460ff1681565b60405160ff90911681526020016200017a565b6000546001600160a01b03163314620003ec5760405162461bcd60e51b8152600401620003e390620013dc565b60405180910390fd5b818162000474576040516370a0823160e01b81523060048201526001600160a01b038216906370a082319060240160206040518083038186803b1580156200043357600080fd5b505afa15801562000448573d6000803e3d6000fd5b505050506040513d601f19601f820116820180604052508101906200046e9190620012a1565b62000476565b815b915060008211620004e55760405162461bcd60e51b815260206004820152603260248201527f6d616b65207375726520746865726520697320612062616c616e636520617661604482015271696c61626c6520746f20776974686472617760701b6064820152608401620003e3565b806001600160a01b031663a9059cbb620005076000546001600160a01b031690565b6040516001600160e01b031960e084901b1681526001600160a01b03909116600482015260248101859052604401602060405180830381600087803b1580156200055057600080fd5b505af115801562000565573d6000803e3d6000fd5b505050506040513d601f19601f820116820180604052508101906200058b919062001269565b50505050565b6001600160a01b038116600090815260036020908152604091829020805483518184028101840190945280845260609392830182828015620005fd57602002820191906000526020600020905b81546001600160a01b03168152600190910190602001808311620005de575b50505050509050919050565b6000546001600160a01b03163314620006365760405162461bcd60e51b8152600401620003e390620013dc565b600180546001600160a01b0319166001600160a01b0392909216919091179055565b6200066460006200109c565b6040516323b872dd60e01b81523360048201523060248201526044810186905287906001600160a01b038216906323b872dd90606401602060405180830381600087803b158015620006b557600080fd5b505af1158015620006ca573d6000803e3d6000fd5b505050506040513d601f19601f82011682018060405250810190620006f0919062001269565b506040516370a0823160e01b81523060048201526000906001600160a01b038316906370a082319060240160206040518083038186803b1580156200073457600080fd5b505afa15801562000749573d6000803e3d6000fd5b505050506040513d601f19601f820116820180604052508101906200076f9190620012a1565b871115620007f8576040516370a0823160e01b81523060048201526001600160a01b038316906370a082319060240160206040518083038186803b158015620007b757600080fd5b505afa158015620007cc573d6000803e3d6000fd5b505050506040513d601f19601f82011682018060405250810190620007f29190620012a1565b620007fa565b865b90506000818a8a338a8a8a8a604051620008149062001170565b620008279897969594939291906200132c565b604051809103906000f08015801562000844573d6000803e3d6000fd5b506004805460018181019092557f8a35acfbc15ff81a39ae7d344fd709f28e8600b4aa8c65c6b64bfe7fe36bd19b0180546001600160a01b038085166001600160a01b031992831681179093558d16600090815260036020908152604082208054958601815582528120909301805490911690911790556005805492935090620008ce8362001445565b909155505060405163a9059cbb60e01b81526001600160a01b0382811660048301526024820184905284169063a9059cbb90604401602060405180830381600087803b1580156200091e57600080fd5b505af115801562000933573d6000803e3d6000fd5b505050506040513d601f19601f8201168201806040525081019062000959919062001269565b506040516370a0823160e01b81526001600160a01b038281166004830152600091908516906370a082319060240160206040518083038186803b158015620009a057600080fd5b505afa158015620009b5573d6000803e3d6000fd5b505050506040513d601f19601f82011682018060405250810190620009db9190620012a1565b83111562000a66576040516370a0823160e01b81526001600160a01b0383811660048301528516906370a082319060240160206040518083038186803b15801562000a2557600080fd5b505afa15801562000a3a573d6000803e3d6000fd5b505050506040513d601f19601f8201168201806040525081019062000a609190620012a1565b62000a68565b825b905080831462000acf57604051636bd0804960e01b8152600481018290526001600160a01b03831690636bd0804990602401600060405180830381600087803b15801562000ab557600080fd5b505af115801562000aca573d6000803e3d6000fd5b505050505b5050505050505050505050565b6000819050806001600160a01b031663a3e676106040518163ffffffff1660e01b815260040160206040518083038186803b15801562000b1b57600080fd5b505afa15801562000b30573d6000803e3d6000fd5b505050506040513d601f19601f8201168201806040525081019062000b569190620011a4565b6001600160a01b0316336001600160a01b03161462000bd75760405162461bcd60e51b815260206004820152603660248201527f75736572206d75737420626520746865206f726967696e616c20746f6b656e206044820152756f776e657220746f2072656d6f766520746f6b656e7360501b6064820152608401620003e3565b806001600160a01b031663cadc6c596040518163ffffffff1660e01b815260040160206040518083038186803b15801562000c1157600080fd5b505afa15801562000c26573d6000803e3d6000fd5b505050506040513d601f19601f8201168201806040525081019062000c4c9190620012a1565b4211801562000cce5750806001600160a01b031663cadc6c596040518163ffffffff1660e01b815260040160206040518083038186803b15801562000c9057600080fd5b505afa15801562000ca5573d6000803e3d6000fd5b505050506040513d601f19601f8201168201806040525081019062000ccb9190620012a1565b15155b62000d615760405162461bcd60e51b815260206004820152605660248201527f6974206d75737420626520616674657220746865206c6f636b65642074696d6560448201527f207468652075736572206f726967696e616c6c7920636f6e666967757265642060648201527530b732103737ba103637b1b5b2b2103337b932bb32b960511b608482015260a401620003e3565b806001600160a01b031663e85c77bb6040518163ffffffff1660e01b8152600401600060405180830381600087803b15801562000d9d57600080fd5b505af115801562000db2573d6000803e3d6000fd5b50506005805492509050600062000dc9836200142b565b91905055505050565b6000546001600160a01b0316331462000dff5760405162461bcd60e51b8152600401620003e390620013dc565b62000e0b600062001120565b565b6003602052816000526040600020818154811062000e2a57600080fd5b6000918252602090912001546001600160a01b03169150829050565b6000546001600160a01b0316331462000e735760405162461bcd60e51b8152600401620003e390620013dc565b600280546001600160a01b0319166001600160a01b0392909216919091179055565b6004818154811062000ea657600080fd5b6000918252602090912001546001600160a01b0316905081565b6000546001600160a01b0316331462000eed5760405162461bcd60e51b8152600401620003e390620013dc565b6002805460ff909216600160a01b0260ff60a01b19909216919091179055565b6000546001600160a01b0316331462000f3a5760405162461bcd60e51b8152600401620003e390620013dc565b6000546001600160a01b03166001600160a01b03164760405160006040518083038185875af1925050503d806000811462000f91576040519150601f19603f3d011682016040523d82523d6000602084013e505050565b505050565b6000546001600160a01b0316331462000fc35760405162461bcd60e51b8152600401620003e390620013dc565b6001600160a01b0381166200102a5760405162461bcd60e51b815260206004820152602660248201527f4f776e61626c653a206e6577206f776e657220697320746865207a65726f206160448201526564647265737360d01b6064820152608401620003e3565b620010358162001120565b50565b606060048054806020026020016040519081016040528092919081815260200182805480156200109257602002820191906000526020600020905b81546001600160a01b0316815260019091019060200180831162001073575b5050505050905090565b6002546001600160a01b031663d9e30e55620010b9833462001411565b60025460405160e084901b6001600160e01b0319168152336004820152600160a01b90910460ff1660248201526044016000604051808303818588803b1580156200110357600080fd5b505af115801562001118573d6000803e3d6000fd5b505050505050565b600080546001600160a01b038381166001600160a01b0319831681178455604051919092169283917f8be0079c531659141344cd1fd0a4f28419497f9722a3daafe3b4186f6b6457e09190a35050565b6128ff806200149f83390190565b60006020828403121562001190578081fd5b81356200119d8162001479565b9392505050565b600060208284031215620011b6578081fd5b81516200119d8162001479565b600080600080600080600060e0888a031215620011de578283fd5b8735620011eb8162001479565b96506020880135620011fd8162001479565b955060408801359450606088013593506080880135925060a0880135915060c08801356200122b816200148f565b8091505092959891949750929550565b600080604083850312156200124e578182fd5b82356200125b8162001479565b946020939093013593505050565b6000602082840312156200127b578081fd5b81516200119d816200148f565b6000602082840312156200129a578081fd5b5035919050565b600060208284031215620012b3578081fd5b5051919050565b600060208284031215620012cc578081fd5b813560ff811681146200119d578182fd5b6020808252825182820181905260009190848201906040850190845b81811015620013205783516001600160a01b031683529284019291840191600101620012f9565b50909695505050505050565b610140808252601290820152712422a0a61029ba30b5b4b733902a37b5b2b760711b61016082015261018060208201819052600590820152641cd211505360da1b6101a0820152604081018990526001600160a01b03881660608201526101c081016001600160a01b03881660808301526001600160a01b03871660a08301528560c08301528460e083015283610100830152620013cf61012083018415159052565b9998505050505050505050565b6020808252818101527f4f776e61626c653a2063616c6c6572206973206e6f7420746865206f776e6572604082015260600190565b60008282101562001426576200142662001463565b500390565b6000816200143d576200143d62001463565b506000190190565b60006000198214156200145c576200145c62001463565b5060010190565b634e487b7160e01b600052601160045260246000fd5b6001600160a01b03811681146200103557600080fd5b80151581146200103557600080fdfe60806040526005805460ff191690553480156200001b57600080fd5b50604051620028ff380380620028ff8339810160408190526200003e9162000429565b89518a908a9062000057906003906020850190620002a2565b5080516200006d906004906020840190620002a2565b505050600084118015620000815750878411155b620000f95760405162461bcd60e51b815260206004820152603960248201527f70657220626c6f636b20616d6f756e74206d757374206265206d6f726520746860448201527f616e203020616e64206c657373207468616e20737570706c790000000000000060648201526084015b60405180910390fd5b4283118062000106575082155b6200015f5760405162461bcd60e51b815260206004820152602260248201527f6c6f636b65642074696d65206d757374206265206166746572206e6f77206f72604482015261020360f41b6064820152608401620000f0565b60058054610100600160a81b0319166101006001600160a01b038a16021790558015620001a757600780546001600160a01b0319166001600160a01b038816179055620001c3565b600680546001600160a01b0319166001600160a01b0388161790555b6040805161018081018252338082526001600160a01b0397909716602082018190529181018a9052606081018a905260006080820181905260a0820181905260c0820187905260e0820186905243610100830181905261012083018290526101408301869052931515610160909201829052600880546001600160a01b0319908116909917905560098054909816909217909655600a899055600b98909855600c889055600d889055600e93909355600f9190915560109190915560119490945560129390935550506013805460ff1916909117905550620005569050565b828054620002b09062000503565b90600052602060002090601f016020900481019282620002d457600085556200031f565b82601f10620002ef57805160ff19168380011785556200031f565b828001600101855582156200031f579182015b828111156200031f57825182559160200191906001019062000302565b506200032d92915062000331565b5090565b5b808211156200032d576000815560010162000332565b80516001600160a01b03811681146200036057600080fd5b919050565b805180151581146200036057600080fd5b600082601f83011262000387578081fd5b81516001600160401b0380821115620003a457620003a462000540565b604051601f8301601f19908116603f01168101908282118183101715620003cf57620003cf62000540565b81604052838152602092508683858801011115620003eb578485fd5b8491505b838210156200040e5785820183015181830184015290820190620003ef565b838211156200041f57848385830101525b9695505050505050565b6000806000806000806000806000806101408b8d03121562000449578586fd5b8a516001600160401b038082111562000460578788fd5b6200046e8e838f0162000376565b9b5060208d015191508082111562000484578788fd5b50620004938d828e0162000376565b99505060408b01519750620004ab60608c0162000348565b9650620004bb60808c0162000348565b9550620004cb60a08c0162000348565b945060c08b0151935060e08b015192506101008b01519150620004f26101208c0162000365565b90509295989b9194979a5092959850565b600181811c908216806200051857607f821691505b602082108114156200053a57634e487b7160e01b600052602260045260246000fd5b50919050565b634e487b7160e01b600052604160045260246000fd5b61239980620005666000396000f3fe608060405234801561001057600080fd5b506004361061018e5760003560e01c806395d89b41116100de578063cadc6c5911610097578063e85c77bb11610071578063e85c77bb14610453578063e93793f61461045b578063fd7db85414610471578063ff333a761461048457600080fd5b8063cadc6c591461040a578063dd62ed3e14610412578063e17c0f111461044b57600080fd5b806395d89b411461039757806396e231e91461039f578063a3e67610146103ac578063a457c2d7146103d1578063a9059cbb146103e4578063b7f1ef1e146103f757600080fd5b8063395093511161014b57806370a082311161012557806370a08231146102ee5780637589cf2f146103175780638bdfe9561461031f5780639168ae721461033257600080fd5b806339509351146102b35780634afcb537146102c65780636bd08049146102d957600080fd5b806306fdde0314610193578063095ea7b3146101b157806316f0115b146101d457806318160ddd1461027f57806323b872dd14610291578063313ce567146102a4575b600080fd5b61019b61048c565b6040516101a891906121c3565b60405180910390f35b6101c46101bf36600461201e565b61051e565b60405190151581526020016101a8565b600854600954600a54600b54600c54600d54600e54600f546010546011546012546013546102199b6001600160a01b039081169b169998979695949392919060ff168c565b604080516001600160a01b039d8e1681529c909b1660208d0152998b019890985260608a0196909652608089019490945260a088019290925260c087015260e08601526101008501526101208401526101408301521515610160820152610180016101a8565b6002545b6040519081526020016101a8565b6101c461029f366004611fad565b610536565b604051601281526020016101a8565b6101c46102c136600461201e565b61055a565b6102836102d4366004611f61565b610599565b6102ec6102e7366004612063565b61074a565b005b6102836102fc366004611f61565b6001600160a01b031660009081526020819052604090205490565b6102ec6107c7565b61028361032d366004611fe8565b610b1a565b61036f610340366004611f61565b601460205260009081526040902080546001820154600283015460038401546004909401549293919290919085565b604080519586526020860194909452928401919091526060830152608082015260a0016101a8565b61019b610c22565b6005546101c49060ff1681565b6009546001600160a01b03165b6040516001600160a01b0390911681526020016101a8565b6101c46103df36600461201e565b610c31565b6101c46103f236600461201e565b610cc3565b6102ec610405366004612093565b610cd1565b600f54610283565b610283610420366004611f7b565b6001600160a01b03918216600090815260016020908152604080832093909416825291909152205490565b61028361115e565b6102ec61119a565b60055461010090046001600160a01b03166103b9565b6102ec61047f36600461215f565b6112e4565b6103b961175c565b60606003805461049b906122d3565b80601f01602080910402602001604051908101604052809291908181526020018280546104c7906122d3565b80156105145780601f106104e957610100808354040283529160200191610514565b820191906000526020600020905b8154815290600101906020018083116104f757829003601f168201915b5050505050905090565b60003361052c818585611789565b5060019392505050565b6000336105448582856118ad565b61054f85858561193f565b506001949350505050565b3360008181526001602090815260408083206001600160a01b038716845290915281205490919061052c9082908690610594908790612239565b611789565b6001600160a01b0381166000908152601460209081526040808320815160c0810183528154815260018201548185015260028201548184015260038201546060820152600482015460808201526005820180548451818702810187019095528085528695929460a08601939092919083018282801561063757602002820191906000526020600020905b815481526020019060010190808311610623575b505050505081525050905043816060015110158061065757506020810151155b806106625750600c54155b156106705750600092915050565b601154601054431180156106855750600c5415155b1561070a57600061069461115e565b905060008143106106a557816106a7565b435b6010549091506000906106bb908390611b0d565b600e549091506000906106cf908390611b19565b600c54909150610703906106fc906106f6846ec097ce7bc90715b34b9f1000000000611b19565b90611b25565b8690611b31565b9450505050505b610742826080015161073c6ec097ce7bc90715b34b9f10000000006106f6858760000151611b1990919063ffffffff16565b90611b0d565b949350505050565b6008546001600160a01b031633146107bd5760405162461bcd60e51b815260206004820152602b60248201527f6f6e6c7920636f6e74726163742063726561746f722063616e2075706461746560448201526a2074686520737570706c7960a81b60648201526084015b60405180910390fd5b600a819055600b55565b336000908152601460209081526040808320815160c0810183528154815260018201548185015260028201548184015260038201546060820152600482015460808201526005820180548451818702810187019095528085529194929360a086019390929083018282801561085b57602002820191906000526020600020905b815481526020019060010190808311610847575b505050919092525050815191925050806108d55760405162461bcd60e51b815260206004820152603560248201527f757365722063616e206f6e6c7920756e7374616b6520696620746865792068616044820152741d99481d1bdad95b9cc81a5b881d1a19481c1bdbdb605a1b60648201526084016107b4565b3360009081526020819052604090205461090f9061dead905b83116108fa5782610cc3565b33600090815260208190526040902054610cc3565b5060135460ff16156109db5760005b8260a00151518110156109d55760075460a084015180516001600160a01b03909216916323b872dd9130913391908690811061096a57634e487b7160e01b600052603260045260246000fd5b60200260200101516040518463ffffffff1660e01b81526004016109909392919061219f565b600060405180830381600087803b1580156109aa57600080fd5b505af11580156109be573d6000803e3d6000fd5b5050505080806109cd9061230e565b91505061091e565b50610a7b565b60065460405163a9059cbb60e01b8152336004820152602481018390526001600160a01b039091169063a9059cbb90604401602060405180830381600087803b158015610a2757600080fd5b505af1158015610a3b573d6000803e3d6000fd5b505050506040513d601f19601f82011682018060405250810190610a5f9190612047565b610a7b5760405162461bcd60e51b81526004016107b4906121f6565b3360009081526014602052604081208181556001810182905560028101829055600381018290556004810182905590610ab76005830182611f0b565b5050610ae1816040518060400160405280600681526020016572656d6f766560d01b815250611b3d565b60405181815233907f884edad9ce6fa2440d8a54cc123490eb96d2768479d49ff9c7366125a94243649060200160405180910390a25050565b6008546000906001600160a01b0316331480610b3e5750336001600160a01b038416145b610bc25760405162461bcd60e51b815260206004820152604960248201527f63616e206f6e6c79206861727665737420746f6b656e7320666f7220736f6d6560448201527f6f6e6520656c73652069662074686973207761732074686520636f6e747261636064820152683a1031b932b0ba37b960b91b608482015260a4016107b4565b610bca611b8b565b6000610bd584611c23565b9050828015610be7575060135460ff16155b8015610c08575060065460055461010090046001600160a01b039081169116145b15610c1b576060610c198282610cd1565b505b9392505050565b60606004805461049b906122d3565b3360008181526001602090815260408083206001600160a01b038716845290915281205490919083811015610cb65760405162461bcd60e51b815260206004820152602560248201527f45524332303a2064656372656173656420616c6c6f77616e63652062656c6f77604482015264207a65726f60d81b60648201526084016107b4565b61054f8286868403611789565b60003361052c81858561193f565b43610cda61115e565b11610d455760405162461bcd60e51b815260206004820152603560248201527f74686973206661726d206973206578706972656420616e64206e6f206d6f7265604482015274081cdd185ad95c9cc818d85b881899481859191959605a1b60648201526084016107b4565b610d4d611b8b565b3360009081526020819052604090205415610d6d57610d6b33611c23565b505b60135460009060ff1615610ea0576000825111610de55760405162461bcd60e51b815260206004820152603060248201527f796f75206e65656420746f2070726f76696465204e465420746f6b656e20494460448201526f7320796f75277265207374616b696e6760801b60648201526084016107b4565b60005b8251811015610e975760075483516001600160a01b03909116906323b872dd9033903090879086908110610e2c57634e487b7160e01b600052603260045260246000fd5b60200260200101516040518463ffffffff1660e01b8152600401610e529392919061219f565b600060405180830381600087803b158015610e6c57600080fd5b505af1158015610e80573d6000803e3d6000fd5b505050508080610e8f9061230e565b915050610de8565b50508051611029565b6006546040516370a0823160e01b81523060048201526000916001600160a01b0316906370a082319060240160206040518083038186803b158015610ee457600080fd5b505afa158015610ef8573d6000803e3d6000fd5b505050506040513d601f19601f82011682018060405250810190610f1c919061207b565b6006546040516323b872dd60e01b81529192506001600160a01b0316906323b872dd90610f519033903090899060040161219f565b602060405180830381600087803b158015610f6b57600080fd5b505af1158015610f7f573d6000803e3d6000fd5b505050506040513d601f19601f82011682018060405250810190610fa39190612047565b506006546040516370a0823160e01b81523060048201526110259183916001600160a01b03909116906370a082319060240160206040518083038186803b158015610fed57600080fd5b505afa158015611001573d6000803e3d6000fd5b505050506040513d601f19601f8201168201806040525081019061073c919061207b565b9150505b60025461103a5743600d8190556010555b6110443382611dd3565b336000908152601460205260409020805461105f9083611b31565b80825543600183018190554260028401556003830155601154611097916ec097ce7bc90715b34b9f1000000000916106f69190611b19565b600482015560005b83518110156110fd57816005018482815181106110cc57634e487b7160e01b600052603260045260246000fd5b60209081029190910181015182546001810184556000938452919092200155806110f58161230e565b91505061109f565b50611123826040518060400160405280600381526020016218591960ea1b815250611b3d565b60405182815233907fe1fffcc4923d04b559f4d29a8bfc6cda04eb5b0d3c460751c2402c5c5cc9109c9060200160405180910390a250505050565b600d5460009081901561117357600d54611175565b435b600e54600a5491925061119491839161118e9190611b25565b90611b31565b91505090565b6008546001600160a01b03163314806111bd57506009546001600160a01b031633145b61123e5760405162461bcd60e51b815260206004820152604660248201527f63616c6c6572206d7573742062652074686520636f6e7472616374206372656160448201527f746f72206f72206f776e657220746f2072656d6f7665207374616b61626c6520606482015265746f6b656e7360d01b608482015260a4016107b4565b600554600954600b5460405163a9059cbb60e01b81526001600160a01b0392831660048201526024810191909152610100909204169063a9059cbb90604401602060405180830381600087803b15801561129757600080fd5b505af11580156112ab573d6000803e3d6000fd5b505050506040513d601f19601f820116820180604052508101906112cf9190612047565b506000600b556005805460ff19166001179055565b336000908152601460209081526040808320815160c0810183528154815260018201548185015260028201548184015260038201546060820152600482015460808201526005820180548451818702810187019095528085529194929360a086019390929083018282801561137857602002820191906000526020600020905b815481526020019060010190808311611364575b50505091909252505081516013549293509160ff16905061139c578084111561139f565b60015b6114115760405162461bcd60e51b815260206004820152603f60248201527f757365722063616e206f6e6c7920756e7374616b6520616d6f756e742074686560448201527f7920686176652063757272656e746c79207374616b6564206f72206c6573730060648201526084016107b4565b82158061142e5750601254604083015161142a91611b31565b4210155b8061143b575060055460ff165b8061144c575061144961115e565b43115b6114d05760405162461bcd60e51b815260206004820152604960248201527f796f752068617665206e6f74207374616b656420666f72206d696e696d756d2060448201527f74696d65206c6f636b2079657420616e642074686520706f6f6c206973206e6f6064820152681d08195e1c1a5c995960ba1b608482015260a4016107b4565b6114d8611b8b565b82156114e9576114e733611c23565b505b60135460009060ff166114fc57846114fe565b815b905061152561dead6108ee336001600160a01b031660009081526020819052604090205490565b5060135460ff16156115f15760005b8360a00151518110156115eb5760075460a085015180516001600160a01b03909216916323b872dd9130913391908690811061158057634e487b7160e01b600052603260045260246000fd5b60200260200101516040518463ffffffff1660e01b81526004016115a69392919061219f565b600060405180830381600087803b1580156115c057600080fd5b505af11580156115d4573d6000803e3d6000fd5b5050505080806115e39061230e565b915050611534565b50611691565b60065460405163a9059cbb60e01b8152336004820152602481018390526001600160a01b039091169063a9059cbb90604401602060405180830381600087803b15801561163d57600080fd5b505af1158015611651573d6000803e3d6000fd5b505050506040513d601f19601f820116820180604052508101906116759190612047565b6116915760405162461bcd60e51b81526004016107b4906121f6565b33600090815260208190526040812054116116e95733600090815260146020526040812081815560018101829055600281018290556003810182905560048101829055906116e26005830182611f0b565b50506116f8565b82516116f59082611b0d565b83525b611720816040518060400160405280600681526020016572656d6f766560d01b815250611b3d565b60405181815233907f884edad9ce6fa2440d8a54cc123490eb96d2768479d49ff9c7366125a94243649060200160405180910390a25050505050565b60135460009060ff1661177957506006546001600160a01b031690565b506007546001600160a01b031690565b6001600160a01b0383166117eb5760405162461bcd60e51b8152602060048201526024808201527f45524332303a20617070726f76652066726f6d20746865207a65726f206164646044820152637265737360e01b60648201526084016107b4565b6001600160a01b03821661184c5760405162461bcd60e51b815260206004820152602260248201527f45524332303a20617070726f766520746f20746865207a65726f206164647265604482015261737360f01b60648201526084016107b4565b6001600160a01b0383811660008181526001602090815260408083209487168084529482529182902085905590518481527f8c5be1e5ebec7d5bd14f71427d1e84f3dd0314c0f7b2291e5b200ac8c7c3b925910160405180910390a3505050565b6001600160a01b038381166000908152600160209081526040808320938616835292905220546000198114611939578181101561192c5760405162461bcd60e51b815260206004820152601d60248201527f45524332303a20696e73756666696369656e7420616c6c6f77616e636500000060448201526064016107b4565b6119398484848403611789565b50505050565b6001600160a01b0383166119a35760405162461bcd60e51b815260206004820152602560248201527f45524332303a207472616e736665722066726f6d20746865207a65726f206164604482015264647265737360d81b60648201526084016107b4565b6001600160a01b038216611a055760405162461bcd60e51b815260206004820152602360248201527f45524332303a207472616e7366657220746f20746865207a65726f206164647260448201526265737360e81b60648201526084016107b4565b6001600160a01b03831660009081526020819052604090205481811015611a7d5760405162461bcd60e51b815260206004820152602660248201527f45524332303a207472616e7366657220616d6f756e7420657863656564732062604482015265616c616e636560d01b60648201526084016107b4565b6001600160a01b03808516600090815260208190526040808220858503905591851681529081208054849290611ab4908490612239565b92505081905550826001600160a01b0316846001600160a01b03167fddf252ad1be2c89b69c2b068fc378daa952ba7f163c4a11628f55a4df523b3ef84604051611b0091815260200190565b60405180910390a3611939565b6000610c1b8284612290565b6000610c1b8284612271565b6000610c1b8284612251565b6000610c1b8284612239565b611b65816040518060400160405280600681526020016572656d6f766560d01b815250611eb2565b15611b7e57600c54611b779083611b0d565b600c555050565b600c54611b779083611b31565b6000611b9561115e565b90506000814310611ba65781611ba8565b435b6010549091508111611bb8575050565b600c5480611bc7575060105550565b601054600090611bd8908490611b0d565b600e54909150600090611bec908390611b19565b9050611c17611c0e846106f6846ec097ce7bc90715b34b9f1000000000611b19565b60115490611b31565b60115550505060105550565b6001600160a01b03811660009081526014602052604081206001810154611c8c5760405162461bcd60e51b815260206004820152601c60248201527f75736572206d757374206861766520746f6b656e73207374616b65640000000060448201526064016107b4565b6000611c9784610599565b90508015611d9b5760055460405163a9059cbb60e01b81526001600160a01b038681166004830152602482018490526101009092049091169063a9059cbb90604401602060405180830381600087803b158015611cf357600080fd5b505af1158015611d07573d6000803e3d6000fd5b505050506040513d601f19601f82011682018060405250810190611d2b9190612047565b611d8a5760405162461bcd60e51b815260206004820152602a60248201527f756e61626c6520746f2073656e6420757365722074686569722068617276657360448201526974656420746f6b656e7360b01b60648201526084016107b4565b600b54611d979082611b0d565b600b555b6011548254611dbe916ec097ce7bc90715b34b9f1000000000916106f691611b19565b60048301554360039092019190915592915050565b6001600160a01b038216611e295760405162461bcd60e51b815260206004820152601f60248201527f45524332303a206d696e7420746f20746865207a65726f20616464726573730060448201526064016107b4565b8060026000828254611e3b9190612239565b90915550506001600160a01b03821660009081526020819052604081208054839290611e68908490612239565b90915550506040518181526001600160a01b038316906000907fddf252ad1be2c89b69c2b068fc378daa952ba7f163c4a11628f55a4df523b3ef9060200160405180910390a35050565b600081604051602001611ec59190612183565b6040516020818303038152906040528051906020012083604051602001611eec9190612183565b6040516020818303038152906040528051906020012014905092915050565b5080546000825590600052602060002090810190611f299190611f2c565b50565b5b80821115611f415760008155600101611f2d565b5090565b80356001600160a01b0381168114611f5c57600080fd5b919050565b600060208284031215611f72578081fd5b610c1b82611f45565b60008060408385031215611f8d578081fd5b611f9683611f45565b9150611fa460208401611f45565b90509250929050565b600080600060608486031215611fc1578081fd5b611fca84611f45565b9250611fd860208501611f45565b9150604084013590509250925092565b60008060408385031215611ffa578182fd5b61200383611f45565b9150602083013561201381612355565b809150509250929050565b60008060408385031215612030578182fd5b61203983611f45565b946020939093013593505050565b600060208284031215612058578081fd5b8151610c1b81612355565b600060208284031215612074578081fd5b5035919050565b60006020828403121561208c578081fd5b5051919050565b600080604083850312156120a5578182fd5b8235915060208084013567ffffffffffffffff808211156120c4578384fd5b818601915086601f8301126120d7578384fd5b8135818111156120e9576120e961233f565b8060051b604051601f19603f8301168101818110858211171561210e5761210e61233f565b604052828152858101935084860182860187018b101561212c578788fd5b8795505b8386101561214e578035855260019590950194938601938601612130565b508096505050505050509250929050565b60008060408385031215612171578182fd5b82359150602083013561201381612355565b600082516121958184602087016122a7565b9190910192915050565b6001600160a01b039384168152919092166020820152604081019190915260600190565b60208152600082518060208401526121e28160408501602087016122a7565b601f01601f19169190910160400192915050565b60208082526023908201527f756e61626c6520746f2073656e642075736572206f726967696e616c20746f6b604082015262656e7360e81b606082015260800190565b6000821982111561224c5761224c612329565b500190565b60008261226c57634e487b7160e01b81526012600452602481fd5b500490565b600081600019048311821515161561228b5761228b612329565b500290565b6000828210156122a2576122a2612329565b500390565b60005b838110156122c25781810151838201526020016122aa565b838111156119395750506000910152565b600181811c908216806122e757607f821691505b6020821081141561230857634e487b7160e01b600052602260045260246000fd5b50919050565b600060001982141561232257612322612329565b5060010190565b634e487b7160e01b600052601160045260246000fd5b634e487b7160e01b600052604160045260246000fd5b8015158114611f2957600080fdfea2646970667358221220a91d53c2af50a0c417952d8f4dedee27a933c95d5650bce358127a6288ace9f564736f6c63430008040033a264697066735822122023bfbbd6c743595da516fe0c064222ed0282c1a38f204fdfc5c467efa475c93264736f6c63430008040033",
  "immutableReferences": {},
  "source": "// SPDX-License-Identifier: MIT\r\npragma solidity ^0.8.4;\r\n\r\nimport './HEALFaaSToken.sol';\r\nimport './HEALProduct.sol';\r\n\r\n/**\r\n * @title HEALFaaS (sHEAL)\r\n * @author Lance Whatley\r\n * @notice Implements the master FaaS contract to keep track of all tokens being added\r\n * to be staked and staking.\r\n */\r\ncontract HEALFaaS is HEALProduct {\r\n  // this is a mapping of tokenAddress => contractAddress[] that represents\r\n  // a particular address for the token that someone has put up\r\n  // to be staked and a list of contract addresses for the staking token\r\n  // contracts paying out stakers for the given token.\r\n  mapping(address => address[]) public tokensUpForStaking;\r\n  address[] public allFarmingContracts;\r\n  uint256 public totalStakingContracts;\r\n\r\n  /**\r\n   * @notice The constructor for the staking master contract.\r\n   */\r\n  constructor(address _tokenAddress, address _spendAddress)\r\n    HEALProduct(uint8(8), _tokenAddress, _spendAddress)\r\n  {}\r\n\r\n  function getAllFarmingContracts() external view returns (address[] memory) {\r\n    return allFarmingContracts;\r\n  }\r\n\r\n  function getTokensForStaking(address _tokenAddress)\r\n    external\r\n    view\r\n    returns (address[] memory)\r\n  {\r\n    return tokensUpForStaking[_tokenAddress];\r\n  }\r\n\r\n  function createNewTokenContract(\r\n    address _rewardsTokenAddy,\r\n    address _stakedTokenAddy,\r\n    uint256 _supply,\r\n    uint256 _perBlockAllocation,\r\n    uint256 _lockedUntilDate,\r\n    uint256 _timelockSeconds,\r\n    bool _isStakedNft\r\n  ) external payable {\r\n    _payForService(0);\r\n\r\n    // create new HEALFaaSToken contract which will serve as the core place for\r\n    // users to stake their tokens and earn rewards\r\n    ERC20 _rewToken = ERC20(_rewardsTokenAddy);\r\n\r\n    // Send the new contract all the tokens from the sending user to be staked and harvested\r\n    _rewToken.transferFrom(msg.sender, address(this), _supply);\r\n\r\n    // in order to handle tokens that take tax, are burned, etc. when transferring, need to get\r\n    // the user's balance after transferring in order to send the remainder of the tokens\r\n    // instead of the full original supply. Similar to slippage on a DEX\r\n    uint256 _updatedSupply = _supply <= _rewToken.balanceOf(address(this))\r\n      ? _supply\r\n      : _rewToken.balanceOf(address(this));\r\n\r\n    HEALFaaSToken _contract = new HEALFaaSToken(\r\n      'HEAL Staking Token',\r\n      'sHEAL',\r\n      _updatedSupply,\r\n      _rewardsTokenAddy,\r\n      _stakedTokenAddy,\r\n      msg.sender,\r\n      _perBlockAllocation,\r\n      _lockedUntilDate,\r\n      _timelockSeconds,\r\n      _isStakedNft\r\n    );\r\n    allFarmingContracts.push(address(_contract));\r\n    tokensUpForStaking[_stakedTokenAddy].push(address(_contract));\r\n    totalStakingContracts++;\r\n\r\n    _rewToken.transfer(address(_contract), _updatedSupply);\r\n\r\n    // do one more double check on balance of rewards token\r\n    // in the staking contract and update if need be\r\n    uint256 _finalSupply = _updatedSupply <=\r\n      _rewToken.balanceOf(address(_contract))\r\n      ? _updatedSupply\r\n      : _rewToken.balanceOf(address(_contract));\r\n    if (_updatedSupply != _finalSupply) {\r\n      _contract.updateSupply(_finalSupply);\r\n    }\r\n  }\r\n\r\n  function removeTokenContract(address _faasTokenAddy) external {\r\n    HEALFaaSToken _contract = HEALFaaSToken(_faasTokenAddy);\r\n    require(\r\n      msg.sender == _contract.tokenOwner(),\r\n      'user must be the original token owner to remove tokens'\r\n    );\r\n    require(\r\n      block.timestamp > _contract.getLockedUntilDate() &&\r\n        _contract.getLockedUntilDate() != 0,\r\n      'it must be after the locked time the user originally configured and not locked forever'\r\n    );\r\n\r\n    _contract.removeStakeableTokens();\r\n    totalStakingContracts--;\r\n  }\r\n}",
  "sourcePath": "D:\\Working\\Freelancing\\6.heal\\Project\\backend\\contracts\\HEALFaaS.sol",
  "compiler": {
    "name": "solc",
    "version": "0.8.4+commit.c7e474f2.Emscripten.clang"
  },
  "schemaVersion": "3.4.4",
  "updatedAt": "2022-03-13T17:53:52.574Z",
  "networkType": "ethereum",
  "devdoc": {
    "author": "Lance Whatley",
    "kind": "dev",
    "methods": {
      "owner()": {
        "details": "Returns the address of the current owner."
      },
      "renounceOwnership()": {
        "details": "Leaves the contract without owner. It will not be possible to call `onlyOwner` functions anymore. Can only be called by the current owner. NOTE: Renouncing ownership will leave the contract without an owner, thereby removing any functionality that is only available to the owner."
      },
      "transferOwnership(address)": {
        "details": "Transfers ownership of the contract to a new account (`newOwner`). Can only be called by the current owner."
      }
    },
    "title": "HEALFaaS (sHEAL)",
    "version": 1
  },
  "userdoc": {
    "kind": "user",
    "methods": {
      "constructor": {
        "notice": "The constructor for the staking master contract."
      }
    },
    "notice": "Implements the master FaaS contract to keep track of all tokens being added to be staked and staking.",
    "version": 1
  }
}