{
  "contractName": "RewardDistributor",
  "abi": [
    {
      "inputs": [
        {
          "internalType": "address",
          "name": "_dexRouter",
          "type": "address"
        },
        {
          "internalType": "address",
          "name": "_shareholderToken",
          "type": "address"
        },
        {
          "internalType": "address",
          "name": "_nftBoosterToken",
          "type": "address"
        },
        {
          "internalType": "address",
          "name": "_wrappedNative",
          "type": "address"
        }
      ],
      "stateMutability": "nonpayable",
      "type": "constructor"
    },
    {
      "anonymous": false,
      "inputs": [
        {
          "indexed": true,
          "internalType": "address",
          "name": "previousOwner",
          "type": "address"
        },
        {
          "indexed": true,
          "internalType": "address",
          "name": "newOwner",
          "type": "address"
        }
      ],
      "name": "OwnershipTransferred",
      "type": "event"
    },
    {
      "inputs": [],
      "name": "ACC_FACTOR",
      "outputs": [
        {
          "internalType": "uint256",
          "name": "",
          "type": "uint256"
        }
      ],
      "stateMutability": "view",
      "type": "function",
      "constant": true
    },
    {
      "inputs": [],
      "name": "DEAD",
      "outputs": [
        {
          "internalType": "address",
          "name": "",
          "type": "address"
        }
      ],
      "stateMutability": "view",
      "type": "function",
      "constant": true
    },
    {
      "inputs": [],
      "name": "maxNftsCanBoost",
      "outputs": [
        {
          "internalType": "uint256",
          "name": "",
          "type": "uint256"
        }
      ],
      "stateMutability": "view",
      "type": "function",
      "constant": true
    },
    {
      "inputs": [],
      "name": "minSecondsBeforeUnstake",
      "outputs": [
        {
          "internalType": "uint256",
          "name": "",
          "type": "uint256"
        }
      ],
      "stateMutability": "view",
      "type": "function",
      "constant": true
    },
    {
      "inputs": [],
      "name": "nftBoostPercentage",
      "outputs": [
        {
          "internalType": "uint256",
          "name": "",
          "type": "uint256"
        }
      ],
      "stateMutability": "view",
      "type": "function",
      "constant": true
    },
    {
      "inputs": [],
      "name": "nftBoosterToken",
      "outputs": [
        {
          "internalType": "address",
          "name": "",
          "type": "address"
        }
      ],
      "stateMutability": "view",
      "type": "function",
      "constant": true
    },
    {
      "inputs": [],
      "name": "owner",
      "outputs": [
        {
          "internalType": "address",
          "name": "",
          "type": "address"
        }
      ],
      "stateMutability": "view",
      "type": "function",
      "constant": true
    },
    {
      "inputs": [],
      "name": "renounceOwnership",
      "outputs": [],
      "stateMutability": "nonpayable",
      "type": "function"
    },
    {
      "inputs": [
        {
          "internalType": "address",
          "name": "",
          "type": "address"
        }
      ],
      "name": "rewards",
      "outputs": [
        {
          "internalType": "uint256",
          "name": "totalExcluded",
          "type": "uint256"
        },
        {
          "internalType": "uint256",
          "name": "totalRealised",
          "type": "uint256"
        },
        {
          "internalType": "uint256",
          "name": "lastClaim",
          "type": "uint256"
        }
      ],
      "stateMutability": "view",
      "type": "function",
      "constant": true
    },
    {
      "inputs": [],
      "name": "rewardsPerShare",
      "outputs": [
        {
          "internalType": "uint256",
          "name": "",
          "type": "uint256"
        }
      ],
      "stateMutability": "view",
      "type": "function",
      "constant": true
    },
    {
      "inputs": [],
      "name": "shareholderToken",
      "outputs": [
        {
          "internalType": "address",
          "name": "",
          "type": "address"
        }
      ],
      "stateMutability": "view",
      "type": "function",
      "constant": true
    },
    {
      "inputs": [],
      "name": "totalDistributed",
      "outputs": [
        {
          "internalType": "uint256",
          "name": "",
          "type": "uint256"
        }
      ],
      "stateMutability": "view",
      "type": "function",
      "constant": true
    },
    {
      "inputs": [],
      "name": "totalRewards",
      "outputs": [
        {
          "internalType": "uint256",
          "name": "",
          "type": "uint256"
        }
      ],
      "stateMutability": "view",
      "type": "function",
      "constant": true
    },
    {
      "inputs": [],
      "name": "totalSharesBoosted",
      "outputs": [
        {
          "internalType": "uint256",
          "name": "",
          "type": "uint256"
        }
      ],
      "stateMutability": "view",
      "type": "function",
      "constant": true
    },
    {
      "inputs": [],
      "name": "totalSharesDeposited",
      "outputs": [
        {
          "internalType": "uint256",
          "name": "",
          "type": "uint256"
        }
      ],
      "stateMutability": "view",
      "type": "function",
      "constant": true
    },
    {
      "inputs": [],
      "name": "totalStakedUsers",
      "outputs": [
        {
          "internalType": "uint256",
          "name": "",
          "type": "uint256"
        }
      ],
      "stateMutability": "view",
      "type": "function",
      "constant": true
    },
    {
      "inputs": [
        {
          "internalType": "address",
          "name": "newOwner",
          "type": "address"
        }
      ],
      "name": "transferOwnership",
      "outputs": [],
      "stateMutability": "nonpayable",
      "type": "function"
    },
    {
      "stateMutability": "payable",
      "type": "receive",
      "payable": true
    },
    {
      "inputs": [
        {
          "internalType": "uint256",
          "name": "amount",
          "type": "uint256"
        },
        {
          "internalType": "uint256[]",
          "name": "nftTokenIds",
          "type": "uint256[]"
        }
      ],
      "name": "stake",
      "outputs": [],
      "stateMutability": "nonpayable",
      "type": "function"
    },
    {
      "inputs": [
        {
          "internalType": "uint256",
          "name": "boostedAmount",
          "type": "uint256"
        },
        {
          "internalType": "bool",
          "name": "relinquishRewards",
          "type": "bool"
        }
      ],
      "name": "unstake",
      "outputs": [],
      "stateMutability": "nonpayable",
      "type": "function"
    },
    {
      "inputs": [],
      "name": "depositRewards",
      "outputs": [],
      "stateMutability": "payable",
      "type": "function",
      "payable": true
    },
    {
      "inputs": [
        {
          "internalType": "bool",
          "name": "compound",
          "type": "bool"
        }
      ],
      "name": "claimReward",
      "outputs": [],
      "stateMutability": "nonpayable",
      "type": "function"
    },
    {
      "inputs": [
        {
          "internalType": "address",
          "name": "shareholder",
          "type": "address"
        },
        {
          "internalType": "uint256",
          "name": "boostedAmount",
          "type": "uint256"
        }
      ],
      "name": "getBaseSharesFromBoosted",
      "outputs": [
        {
          "internalType": "uint256",
          "name": "",
          "type": "uint256"
        }
      ],
      "stateMutability": "view",
      "type": "function",
      "constant": true
    },
    {
      "inputs": [
        {
          "internalType": "address",
          "name": "wallet",
          "type": "address"
        }
      ],
      "name": "getBoostPercentage",
      "outputs": [
        {
          "internalType": "uint256",
          "name": "",
          "type": "uint256"
        }
      ],
      "stateMutability": "view",
      "type": "function",
      "constant": true
    },
    {
      "inputs": [
        {
          "internalType": "address",
          "name": "wallet",
          "type": "address"
        }
      ],
      "name": "eligibleForRewardBooster",
      "outputs": [
        {
          "internalType": "bool",
          "name": "",
          "type": "bool"
        }
      ],
      "stateMutability": "view",
      "type": "function",
      "constant": true
    },
    {
      "inputs": [
        {
          "internalType": "address",
          "name": "shareholder",
          "type": "address"
        }
      ],
      "name": "getUnpaid",
      "outputs": [
        {
          "internalType": "uint256",
          "name": "",
          "type": "uint256"
        }
      ],
      "stateMutability": "view",
      "type": "function",
      "constant": true
    },
    {
      "inputs": [
        {
          "internalType": "address",
          "name": "user",
          "type": "address"
        }
      ],
      "name": "getBaseShares",
      "outputs": [
        {
          "internalType": "uint256",
          "name": "",
          "type": "uint256"
        }
      ],
      "stateMutability": "view",
      "type": "function",
      "constant": true
    },
    {
      "inputs": [
        {
          "internalType": "address",
          "name": "user",
          "type": "address"
        }
      ],
      "name": "getShares",
      "outputs": [
        {
          "internalType": "uint256",
          "name": "",
          "type": "uint256"
        }
      ],
      "stateMutability": "view",
      "type": "function",
      "constant": true
    },
    {
      "inputs": [
        {
          "internalType": "address",
          "name": "user",
          "type": "address"
        }
      ],
      "name": "getBoostNfts",
      "outputs": [
        {
          "internalType": "uint256[]",
          "name": "",
          "type": "uint256[]"
        }
      ],
      "stateMutability": "view",
      "type": "function",
      "constant": true
    },
    {
      "inputs": [
        {
          "internalType": "address",
          "name": "_token",
          "type": "address"
        }
      ],
      "name": "setShareholderToken",
      "outputs": [],
      "stateMutability": "nonpayable",
      "type": "function"
    },
    {
      "inputs": [
        {
          "internalType": "uint256",
          "name": "_seconds",
          "type": "uint256"
        }
      ],
      "name": "setMinSecondsBeforeUnstake",
      "outputs": [],
      "stateMutability": "nonpayable",
      "type": "function"
    },
    {
      "inputs": [
        {
          "internalType": "address",
          "name": "_nft",
          "type": "address"
        }
      ],
      "name": "setNftBoosterToken",
      "outputs": [],
      "stateMutability": "nonpayable",
      "type": "function"
    },
    {
      "inputs": [
        {
          "internalType": "uint256",
          "name": "_percentage",
          "type": "uint256"
        }
      ],
      "name": "setNftBoostPercentage",
      "outputs": [],
      "stateMutability": "nonpayable",
      "type": "function"
    },
    {
      "inputs": [
        {
          "internalType": "uint256",
          "name": "_amount",
          "type": "uint256"
        }
      ],
      "name": "setMaxNftsToBoost",
      "outputs": [],
      "stateMutability": "nonpayable",
      "type": "function"
    }
  ],
  "bytecode": "0x608060405261a8c06001556002600455600a6005553480156200002157600080fd5b5060405162001ea638038062001ea6833981016040819052620000449162000110565b6200004f33620000a3565b600a80546001600160a01b039586166001600160a01b03199182161790915560028054948616948216949094179093556003805492851692841692909217909155600980549190931691161790556200016c565b600080546001600160a01b038381166001600160a01b0319831681178455604051919092169283917f8be0079c531659141344cd1fd0a4f28419497f9722a3daafe3b4186f6b6457e09190a35050565b80516001600160a01b03811681146200010b57600080fd5b919050565b6000806000806080858703121562000126578384fd5b6200013185620000f3565b93506200014160208601620000f3565b92506200015160408601620000f3565b91506200016160608601620000f3565b905092959194509250565b611d2a806200017c6000396000f3fe6080604052600436106101f25760003560e01c806389d969171161010d578063c5a0ffd7116100a0578063e13326991161006f578063e1332699146105a6578063efca2eed146105bc578063f04da65b146105d2578063f2e0c91514610608578063f2fde38b1461062857600080fd5b8063c5a0ffd71461052d578063c7e1d0b11461054d578063d6b796cf14610563578063df83bf6e1461058357600080fd5b80639f8c9b2e116100dc5780639f8c9b2e146104aa578063af17e3b7146104c0578063b99567a4146104e0578063beb68d051461050d57600080fd5b806389d969171461042c5780638da5cb5b1461044c5780639e75fd771461046a5780639ebea88c1461048a57600080fd5b80633c6e6789116101855780636ab7ffda116101545780636ab7ffda146103a8578063715018a6146103c857806380bb4055146103dd57806388b0e46f146103f357600080fd5b80633c6e6789146103465780633cbabf3f1461035c5780634da881a81461037257806361e4029b1461038857600080fd5b806316f60557116101c157806316f60557146102b65780631f0cff72146102d6578063294c494d14610306578063389d6cbe1461032657600080fd5b806303fd2a45146101fe5780630700037d146102315780630e15561a14610288578063152111f7146102ac57600080fd5b366101f957005b600080fd5b34801561020a57600080fd5b5061021461dead81565b6040516001600160a01b0390911681526020015b60405180910390f35b34801561023d57600080fd5b5061026d61024c366004611992565b600c6020526000908152604090208054600182015460029092015490919083565b60408051938452602084019290925290820152606001610228565b34801561029457600080fd5b5061029e600d5481565b604051908152602001610228565b6102b4610648565b005b3480156102c257600080fd5b506102b46102d1366004611a3d565b610752565b3480156102e257600080fd5b506102f66102f1366004611992565b610763565b6040519015158152602001610228565b34801561031257600080fd5b506102b4610321366004611a0d565b610777565b34801561033257600080fd5b506102b4610341366004611a0d565b6107a6565b34801561035257600080fd5b5061029e60085481565b34801561036857600080fd5b5061029e60075481565b34801561037e57600080fd5b5061029e60015481565b34801561039457600080fd5b5061029e6103a33660046119ac565b6107d5565b3480156103b457600080fd5b506102b46103c3366004611992565b61082a565b3480156103d457600080fd5b506102b4610876565b3480156103e957600080fd5b5061029e60065481565b3480156103ff57600080fd5b5061029e61040e366004611992565b6001600160a01b03166000908152600b602052604090206001015490565b34801561043857600080fd5b5061029e610447366004611992565b6108ac565b34801561045857600080fd5b506000546001600160a01b0316610214565b34801561047657600080fd5b506102b4610485366004611992565b61092a565b34801561049657600080fd5b506102b46104a5366004611b09565b610976565b3480156104b657600080fd5b5061029e60045481565b3480156104cc57600080fd5b50600354610214906001600160a01b031681565b3480156104ec57600080fd5b506105006104fb366004611992565b610d79565b6040516102289190611b38565b34801561051957600080fd5b50600254610214906001600160a01b031681565b34801561053957600080fd5b506102b46105483660046119d5565b610de8565b34801561055957600080fd5b5061029e600f5481565b34801561056f57600080fd5b5061029e61057e366004611992565b610df5565b34801561058f57600080fd5b5061029e6ec097ce7bc90715b34b9f100000000081565b3480156105b257600080fd5b5061029e60055481565b3480156105c857600080fd5b5061029e600e5481565b3480156105de57600080fd5b5061029e6105ed366004611992565b6001600160a01b03166000908152600b602052604090205490565b34801561061457600080fd5b506102b4610623366004611a0d565b610e14565b34801561063457600080fd5b506102b4610643366004611992565b610e43565b6000341161069d5760405162461bcd60e51b815260206004820152601c60248201527f76616c7565206d7573742062652067726561746572207468616e20300000000060448201526064015b60405180910390fd5b6000600754116107075760405162461bcd60e51b815260206004820152602f60248201527f6d75737420626520736861726573206465706f736974656420746f206265207260448201526e65776172646564207265776172647360881b6064820152608401610694565b600d5434906107169082610edb565b600d5560075461074c906107439061073d6ec097ce7bc90715b34b9f100000000085610eee565b90610efa565b600f5490610edb565b600f5550565b61075f3383836000610f06565b5050565b60008061076f83610d79565b511192915050565b6000546001600160a01b031633146107a15760405162461bcd60e51b815260040161069490611be5565b600155565b6000546001600160a01b031633146107d05760405162461bcd60e51b815260040161069490611be5565b600555565b6000670de0b6b3a76400006107e984610763565b6107f35782610822565b610822610818610811606461073d61080a89610df5565b8690610eee565b8390610edb565b61073d8584610eee565b949350505050565b6000546001600160a01b031633146108545760405162461bcd60e51b815260040161069490611be5565b600380546001600160a01b0319166001600160a01b0392909216919091179055565b6000546001600160a01b031633146108a05760405162461bcd60e51b815260040161069490611be5565b6108aa600061145e565b565b6001600160a01b0381166000908152600b60205260408120546108d157506000919050565b6001600160a01b0382166000908152600b60205260408120546108f3906114ae565b6001600160a01b0384166000908152600c6020526040902054909150808211610920575060009392505050565b61082282826114de565b6000546001600160a01b031633146109545760405162461bcd60e51b815260040161069490611be5565b600280546001600160a01b0319166001600160a01b0392909216919091179055565b336000908152600b6020526040902054158015906109ab57508115806109ab5750336000908152600b60205260409020548211155b610a0c5760405162461bcd60e51b815260206004820152602c60248201527f796f752063616e206f6e6c7920756e7374616b6520696620796f75206861766560448201526b081cdbdb59481cdd185ad95960a21b6064820152608401610694565b600154336000908152600b6020526040902060020154610a2c9190611c1a565b4211610aa2576040805162461bcd60e51b81526020600482015260248101919091527f6d757374206265207374616b656420666f72206d696e696d756d2074696d652060448201527f616e64206174206c65617374206f6e6520626c6f636b206966206e6f206d696e6064820152608401610694565b80610ab257610ab23360006114ea565b6002546001600160a01b031660008315610acc5783610add565b336000908152600b60205260409020545b90506000610aeb33836107d5565b905084610c5d57336000908152600b6020908152604080832060030180548251818502810185019093528083529192909190830182828015610b4c57602002820191906000526020600020905b815481526020019060010190808311610b38575b5050600354939450506001600160a01b039092169150600090505b8251811015610c2657816001600160a01b03166342842e0e3033868581518110610ba157634e487b7160e01b600052603260045260246000fd5b60209081029190910101516040516001600160e01b031960e086901b1681526001600160a01b0393841660048201529290911660248301526044820152606401600060405180830381600087803b158015610bfb57600080fd5b505af1158015610c0f573d6000803e3d6000fd5b505050508080610c1e90611c9f565b915050610b67565b5060068054906000610c3783611c88565b9091555050336000908152600b60205260408120610c5a91600390910190611944565b50505b60405163a9059cbb60e01b8152336004820152602481018290526001600160a01b0384169063a9059cbb90604401602060405180830381600087803b158015610ca557600080fd5b505af1158015610cb9573d6000803e3d6000fd5b505050506040513d601f19601f82011682018060405250810190610cdd91906119f1565b50600854610ceb90826114de565b600855600754610cfb90836114de565b600755336000908152600b602052604081206001018054839290610d20908490611c71565b9091555050336000908152600b602052604081208054849290610d44908490611c71565b9091555050336000908152600b6020526040902054610d62906114ae565b336000908152600c60205260409020555050505050565b6001600160a01b0381166000908152600b6020908152604091829020600301805483518184028101840190945280845260609392830182828015610ddc57602002820191906000526020600020905b815481526020019060010190808311610dc8575b50505050509050919050565b610df233826114ea565b50565b600080610e0183610d79565b8051600454919250906108229082610eee565b6000546001600160a01b03163314610e3e5760405162461bcd60e51b815260040161069490611be5565b600455565b6000546001600160a01b03163314610e6d5760405162461bcd60e51b815260040161069490611be5565b6001600160a01b038116610ed25760405162461bcd60e51b815260206004820152602660248201527f4f776e61626c653a206e6577206f776e657220697320746865207a65726f206160448201526564647265737360d01b6064820152608401610694565b610df28161145e565b6000610ee78284611c1a565b9392505050565b6000610ee78284611c52565b6000610ee78284611c32565b6001600160a01b0384166000908152600b602052604090205415801590610f2b575080155b15610f3b57610f3b8460006114ea565b6002546001600160a01b031660008415610f555784610fce565b6040516370a0823160e01b81526001600160a01b0387811660048301528316906370a082319060240160206040518083038186803b158015610f9657600080fd5b505afa158015610faa573d6000803e3d6000fd5b505050506040513d601f19601f82011682018060405250810190610fce9190611a25565b6001600160a01b0387166000908152600b6020526040902054909150818461130b576040516370a0823160e01b81523060048201526000906001600160a01b038616906370a082319060240160206040518083038186803b15801561103257600080fd5b505afa158015611046573d6000803e3d6000fd5b505050506040513d601f19601f8201168201806040525081019061106a9190611a25565b6040516323b872dd60e01b81526001600160a01b038b8116600483015230602483015260448201879052919250908616906323b872dd90606401602060405180830381600087803b1580156110be57600080fd5b505af11580156110d2573d6000803e3d6000fd5b505050506040513d601f19601f820116820180604052508101906110f691906119f1565b506040516370a0823160e01b815230600482015261117b9082906001600160a01b038816906370a08231906024015b60206040518083038186803b15801561113d57600080fd5b505afa158015611151573d6000803e3d6000fd5b505050506040513d601f19601f820116820180604052508101906111759190611a25565b906114de565b91506000875111801561119857506003546001600160a01b031615155b80156111cd575060055487516001600160a01b038b166000908152600b60205260409020600301546111ca9190611c1a565b11155b15611309576003546001600160a01b031660005b885181101561130657816001600160a01b03166323b872dd8c308c858151811061121b57634e487b7160e01b600052603260045260246000fd5b60209081029190910101516040516001600160e01b031960e086901b1681526001600160a01b0393841660048201529290911660248301526044820152606401600060405180830381600087803b15801561127557600080fd5b505af1158015611289573d6000803e3d6000fd5b50505050600b60008c6001600160a01b03166001600160a01b031681526020019081526020016000206003018982815181106112d557634e487b7160e01b600052603260045260246000fd5b60209081029190910181015182546001810184556000938452919092200155806112fe81611c9f565b9150506111e1565b50505b505b6001600160a01b0388166000908152600b602052604081206001015461133c908a906113379085610edb565b61191b565b60085490915061134c9083610edb565b6008556001600160a01b0389166000908152600b602052604090205460075461138091839161137a916114de565b90610edb565b6007556001600160a01b0389166000908152600b6020526040812060010180548492906113ae908490611c1a565b90915550506001600160a01b0389166000908152600b6020526040902081815542600290910155821580156113fa57506001600160a01b0389166000908152600b602052604090205415155b15611415576006805490600061140f83611c9f565b91905055505b6001600160a01b0389166000908152600b6020526040902054611437906114ae565b6001600160a01b039099166000908152600c60205260409020989098555050505050505050565b600080546001600160a01b038381166001600160a01b0319831681178455604051919092169283917f8be0079c531659141344cd1fd0a4f28419497f9722a3daafe3b4186f6b6457e09190a35050565b60006114d86ec097ce7bc90715b34b9f100000000061073d600f5485610eee90919063ffffffff16565b92915050565b6000610ee78284611c71565b6001600160a01b0382166000908152600c602052604090206002015442116115545760405162461bcd60e51b815260206004820152601d60248201527f63616e206f6e6c7920636c61696d206f6e63652070657220626c6f636b0000006044820152606401610694565b6001600160a01b0382166000908152600b6020526040902054611575575050565b6000611580836108ac565b6001600160a01b0384166000908152600c60205260409020600101549091506115a99082610edb565b6001600160a01b0384166000908152600c6020908152604080832060010193909355600b905220546115da906114ae565b6001600160a01b0384166000908152600c6020526040902090815542600290910155801561191657600e5461160f9082610edb565b600e55478215611808576002546040516370a0823160e01b81523060048201526001600160a01b039091169060009082906370a082319060240160206040518083038186803b15801561166157600080fd5b505afa158015611675573d6000803e3d6000fd5b505050506040513d601f19601f820116820180604052508101906116999190611a25565b6040805160028082526060820183529293506000929091602083019080368337505060095482519293506001600160a01b0316918391506000906116ed57634e487b7160e01b600052603260045260246000fd5b6001600160a01b03928316602091820292909201015260025482519116908290600190811061172c57634e487b7160e01b600052603260045260246000fd5b6001600160a01b039283166020918202929092010152600a5460405163b6f9de9560e01b815291169063b6f9de9590879061177290600090869030904290600401611b7c565b6000604051808303818588803b15801561178b57600080fd5b505af115801561179f573d6000803e3d6000fd5b50506040516370a0823160e01b8152306004820152600093506117d992508591506001600160a01b038716906370a0823190602401611125565b905080156117ff576040805160008152602081019091526117fd8983836001610f06565b505b505050506118ad565b6000846001600160a01b03168360405160006040518083038185875af1925050503d8060008114611855576040519150601f19603f3d011682016040523d82523d6000602084013e61185a565b606091505b50509050806118ab5760405162461bcd60e51b815260206004820152601d60248201527f45544820776173206e6f74207375636365737366756c6c792073656e740000006044820152606401610694565b505b6118b78282611c71565b4710156119145760405162461bcd60e51b815260206004820152602560248201527f6f6e6c792074616b652070726f70657220616d6f756e742066726f6d20636f6e6044820152641d1c9858dd60da1b6064820152608401610694565b505b505050565b600061192683610763565b6119305781610ee7565b610ee7610811606461073d61080a87610df5565b5080546000825590600052602060002090810190610df291905b80821115611972576000815560010161195e565b5090565b80356001600160a01b038116811461198d57600080fd5b919050565b6000602082840312156119a3578081fd5b610ee782611976565b600080604083850312156119be578081fd5b6119c783611976565b946020939093013593505050565b6000602082840312156119e6578081fd5b8135610ee781611ce6565b600060208284031215611a02578081fd5b8151610ee781611ce6565b600060208284031215611a1e578081fd5b5035919050565b600060208284031215611a36578081fd5b5051919050565b60008060408385031215611a4f578182fd5b8235915060208084013567ffffffffffffffff80821115611a6e578384fd5b818601915086601f830112611a81578384fd5b813581811115611a9357611a93611cd0565b8060051b604051601f19603f83011681018181108582111715611ab857611ab8611cd0565b604052828152858101935084860182860187018b1015611ad6578788fd5b8795505b83861015611af8578035855260019590950194938601938601611ada565b508096505050505050509250929050565b60008060408385031215611b1b578182fd5b823591506020830135611b2d81611ce6565b809150509250929050565b6020808252825182820181905260009190848201906040850190845b81811015611b7057835183529284019291840191600101611b54565b50909695505050505050565b600060808201868352602060808185015281875180845260a0860191508289019350845b81811015611bc55784516001600160a01b031683529383019391830191600101611ba0565b50506001600160a01b039690961660408501525050506060015292915050565b6020808252818101527f4f776e61626c653a2063616c6c6572206973206e6f7420746865206f776e6572604082015260600190565b60008219821115611c2d57611c2d611cba565b500190565b600082611c4d57634e487b7160e01b81526012600452602481fd5b500490565b6000816000190483118215151615611c6c57611c6c611cba565b500290565b600082821015611c8357611c83611cba565b500390565b600081611c9757611c97611cba565b506000190190565b6000600019821415611cb357611cb3611cba565b5060010190565b634e487b7160e01b600052601160045260246000fd5b634e487b7160e01b600052604160045260246000fd5b8015158114610df257600080fdfea26469706673582212207f510d8961af69eb56d67c7f0f9e481d26125d3f9df7571ef3fbdb747eae087564736f6c63430008040033",
  "immutableReferences": {},
  "source": "// SPDX-License-Identifier: MIT\r\npragma solidity ^0.8.4;\r\n\r\nimport '@openzeppelin/contracts/access/Ownable.sol';\r\nimport '@openzeppelin/contracts/interfaces/IERC20.sol';\r\nimport '@openzeppelin/contracts/interfaces/IERC721.sol';\r\nimport '@openzeppelin/contracts/utils/math/SafeMath.sol';\r\nimport '@uniswap/v2-periphery/contracts/interfaces/IUniswapV2Router02.sol';\r\nimport './interfaces/IRewardsDistributor.sol';\r\n\r\ncontract RewardDistributor is IRewardsDistributor, Ownable {\r\n  using SafeMath for uint256;\r\n\r\n  struct Reward {\r\n    uint256 totalExcluded; // excluded reward\r\n    uint256 totalRealised;\r\n    uint256 lastClaim; // used for boosting logic\r\n  }\r\n\r\n  struct Share {\r\n    uint256 amount;\r\n    uint256 amountBase;\r\n    uint256 stakedTime;\r\n    uint256[] nftBoostTokenIds;\r\n  }\r\n\r\n  uint256 public minSecondsBeforeUnstake = 43200;\r\n  address public shareholderToken;\r\n  address public nftBoosterToken;\r\n  uint256 public nftBoostPercentage = 2; // 2% boost per NFT staked\r\n  uint256 public maxNftsCanBoost = 10;\r\n  uint256 public totalStakedUsers;\r\n  uint256 public totalSharesBoosted;\r\n  uint256 public totalSharesDeposited; // will only be actual deposited tokens without handling any reflections or otherwise\r\n  address wrappedNative;\r\n  IUniswapV2Router02 router;\r\n\r\n  // amount of shares a user has\r\n  mapping(address => Share) shares;\r\n  // reward information per user\r\n  mapping(address => Reward) public rewards;\r\n\r\n  uint256 public totalRewards;\r\n  uint256 public totalDistributed;\r\n  uint256 public rewardsPerShare;\r\n\r\n  uint256 public constant ACC_FACTOR = 10**36;\r\n  address public constant DEAD = 0x000000000000000000000000000000000000dEaD;\r\n\r\n  constructor(\r\n    address _dexRouter,\r\n    address _shareholderToken,\r\n    address _nftBoosterToken,\r\n    address _wrappedNative\r\n  ) {\r\n    router = IUniswapV2Router02(_dexRouter);\r\n    shareholderToken = _shareholderToken;\r\n    nftBoosterToken = _nftBoosterToken;\r\n    wrappedNative = _wrappedNative;\r\n  }\r\n\r\n  function stake(uint256 amount, uint256[] memory nftTokenIds) external {\r\n    _stake(msg.sender, amount, nftTokenIds, false);\r\n  }\r\n\r\n  function _stake(\r\n    address shareholder,\r\n    uint256 amount,\r\n    uint256[] memory nftTokenIds,\r\n    bool overrideTransfers\r\n  ) private {\r\n    if (shares[shareholder].amount > 0 && !overrideTransfers) {\r\n      distributeReward(shareholder, false);\r\n    }\r\n\r\n    IERC20 shareContract = IERC20(shareholderToken);\r\n    uint256 stakeAmount = amount == 0\r\n      ? shareContract.balanceOf(shareholder)\r\n      : amount;\r\n    uint256 sharesBefore = shares[shareholder].amount;\r\n\r\n    // for compounding we will pass in this contract override flag and assume the tokens\r\n    // received by the contract during the compounding process are already here, therefore\r\n    // whatever the amount is passed in is what we care about and leave it at that. If a normal\r\n    // staking though by a user, transfer tokens from the user to the contract.\r\n    uint256 finalBaseAdded = stakeAmount;\r\n    if (!overrideTransfers) {\r\n      uint256 shareBalanceBefore = shareContract.balanceOf(address(this));\r\n      shareContract.transferFrom(shareholder, address(this), stakeAmount);\r\n      finalBaseAdded = shareContract.balanceOf(address(this)).sub(\r\n        shareBalanceBefore\r\n      );\r\n\r\n      if (\r\n        nftTokenIds.length > 0 &&\r\n        nftBoosterToken != address(0) &&\r\n        shares[shareholder].nftBoostTokenIds.length + nftTokenIds.length <=\r\n        maxNftsCanBoost\r\n      ) {\r\n        IERC721 nftContract = IERC721(nftBoosterToken);\r\n        for (uint256 i = 0; i < nftTokenIds.length; i++) {\r\n          nftContract.transferFrom(shareholder, address(this), nftTokenIds[i]);\r\n          shares[shareholder].nftBoostTokenIds.push(nftTokenIds[i]);\r\n        }\r\n      }\r\n    }\r\n\r\n    uint256 finalBoostedAmount = getElevatedSharesWithBooster(\r\n      shareholder,\r\n      shares[shareholder].amountBase.add(finalBaseAdded)\r\n    );\r\n\r\n    totalSharesDeposited = totalSharesDeposited.add(finalBaseAdded);\r\n    totalSharesBoosted = totalSharesBoosted.sub(shares[shareholder].amount).add(\r\n        finalBoostedAmount\r\n      );\r\n    shares[shareholder].amountBase += finalBaseAdded;\r\n    shares[shareholder].amount = finalBoostedAmount;\r\n    shares[shareholder].stakedTime = block.timestamp;\r\n    if (sharesBefore == 0 && shares[shareholder].amount > 0) {\r\n      totalStakedUsers++;\r\n    }\r\n    rewards[shareholder].totalExcluded = getCumulativeRewards(\r\n      shares[shareholder].amount\r\n    );\r\n  }\r\n\r\n  function unstake(uint256 boostedAmount, bool relinquishRewards) external {\r\n    require(\r\n      shares[msg.sender].amount > 0 &&\r\n        (boostedAmount == 0 || boostedAmount <= shares[msg.sender].amount),\r\n      'you can only unstake if you have some staked'\r\n    );\r\n    require(\r\n      block.timestamp > shares[msg.sender].stakedTime + minSecondsBeforeUnstake,\r\n      'must be staked for minimum time and at least one block if no min'\r\n    );\r\n    if (!relinquishRewards) {\r\n      distributeReward(msg.sender, false);\r\n    }\r\n\r\n    IERC20 shareContract = IERC20(shareholderToken);\r\n    uint256 boostedAmountToUnstake = boostedAmount == 0\r\n      ? shares[msg.sender].amount\r\n      : boostedAmount;\r\n\r\n    uint256 baseAmount = getBaseSharesFromBoosted(\r\n      msg.sender,\r\n      boostedAmountToUnstake\r\n    );\r\n\r\n    if (boostedAmount == 0) {\r\n      uint256[] memory tokenIds = shares[msg.sender].nftBoostTokenIds;\r\n      IERC721 nftContract = IERC721(nftBoosterToken);\r\n      for (uint256 i = 0; i < tokenIds.length; i++) {\r\n        nftContract.safeTransferFrom(address(this), msg.sender, tokenIds[i]);\r\n      }\r\n      totalStakedUsers--;\r\n      delete shares[msg.sender].nftBoostTokenIds;\r\n    }\r\n\r\n    shareContract.transfer(msg.sender, baseAmount);\r\n\r\n    totalSharesDeposited = totalSharesDeposited.sub(baseAmount);\r\n    totalSharesBoosted = totalSharesBoosted.sub(boostedAmountToUnstake);\r\n    shares[msg.sender].amountBase -= baseAmount;\r\n    shares[msg.sender].amount -= boostedAmountToUnstake;\r\n    rewards[msg.sender].totalExcluded = getCumulativeRewards(\r\n      shares[msg.sender].amount\r\n    );\r\n  }\r\n\r\n  function depositRewards() external payable override {\r\n    require(msg.value > 0, 'value must be greater than 0');\r\n    require(\r\n      totalSharesBoosted > 0,\r\n      'must be shares deposited to be rewarded rewards'\r\n    );\r\n\r\n    uint256 amount = msg.value;\r\n\r\n    totalRewards = totalRewards.add(amount);\r\n    rewardsPerShare = rewardsPerShare.add(\r\n      ACC_FACTOR.mul(amount).div(totalSharesBoosted)\r\n    );\r\n  }\r\n\r\n  function distributeReward(address shareholder, bool compound) internal {\r\n    require(\r\n      block.timestamp > rewards[shareholder].lastClaim,\r\n      'can only claim once per block'\r\n    );\r\n    if (shares[shareholder].amount == 0) {\r\n      return;\r\n    }\r\n\r\n    uint256 amount = getUnpaid(shareholder);\r\n\r\n    rewards[shareholder].totalRealised = rewards[shareholder].totalRealised.add(\r\n      amount\r\n    );\r\n    rewards[shareholder].totalExcluded = getCumulativeRewards(\r\n      shares[shareholder].amount\r\n    );\r\n    rewards[shareholder].lastClaim = block.timestamp;\r\n\r\n    if (amount > 0) {\r\n      totalDistributed = totalDistributed.add(amount);\r\n      uint256 balanceBefore = address(this).balance;\r\n      if (compound) {\r\n        IERC20 shareToken = IERC20(shareholderToken);\r\n        uint256 balBefore = shareToken.balanceOf(address(this));\r\n        address[] memory path = new address[](2);\r\n        path[0] = wrappedNative;\r\n        path[1] = shareholderToken;\r\n        router.swapExactETHForTokensSupportingFeeOnTransferTokens{\r\n          value: amount\r\n        }(0, path, address(this), block.timestamp);\r\n        uint256 amountReceived = shareToken.balanceOf(address(this)).sub(\r\n          balBefore\r\n        );\r\n        if (amountReceived > 0) {\r\n          uint256[] memory _empty = new uint256[](0);\r\n          _stake(shareholder, amountReceived, _empty, true);\r\n        }\r\n      } else {\r\n        (bool sent, ) = payable(shareholder).call{ value: amount }('');\r\n        require(sent, 'ETH was not successfully sent');\r\n      }\r\n      require(\r\n        address(this).balance >= balanceBefore - amount,\r\n        'only take proper amount from contract'\r\n      );\r\n    }\r\n  }\r\n\r\n  function claimReward(bool compound) external {\r\n    distributeReward(msg.sender, compound);\r\n  }\r\n\r\n  // getElevatedSharesWithBooster:\r\n  // A + Ax = B\r\n  // ------------------------\r\n  // getBaseSharesFromBoosted:\r\n  // A + Ax = B\r\n  // A(1 + x) = B\r\n  // A = B/(1 + x)\r\n  function getElevatedSharesWithBooster(address shareholder, uint256 baseAmount)\r\n    internal\r\n    view\r\n    returns (uint256)\r\n  {\r\n    return\r\n      eligibleForRewardBooster(shareholder)\r\n        ? baseAmount.add(\r\n          baseAmount.mul(getBoostPercentage(shareholder)).div(10**2)\r\n        )\r\n        : baseAmount;\r\n  }\r\n\r\n  function getBaseSharesFromBoosted(address shareholder, uint256 boostedAmount)\r\n    public\r\n    view\r\n    returns (uint256)\r\n  {\r\n    uint256 multiplier = 10**18;\r\n    return\r\n      eligibleForRewardBooster(shareholder)\r\n        ? boostedAmount.mul(multiplier).div(\r\n          multiplier.add(\r\n            multiplier.mul(getBoostPercentage(shareholder)).div(10**2)\r\n          )\r\n        )\r\n        : boostedAmount;\r\n  }\r\n\r\n  function getBoostPercentage(address wallet) public view returns (uint256) {\r\n    uint256[] memory _userNFTTokens = getBoostNfts(wallet);\r\n    uint256 _userNFTBalance = _userNFTTokens.length;\r\n    return nftBoostPercentage.mul(_userNFTBalance);\r\n  }\r\n\r\n  function eligibleForRewardBooster(address wallet) public view returns (bool) {\r\n    return getBoostNfts(wallet).length > 0;\r\n  }\r\n\r\n  function getUnpaid(address shareholder) public view returns (uint256) {\r\n    if (shares[shareholder].amount == 0) {\r\n      return 0;\r\n    }\r\n\r\n    uint256 earnedRewards = getCumulativeRewards(shares[shareholder].amount);\r\n    uint256 rewardsExcluded = rewards[shareholder].totalExcluded;\r\n    if (earnedRewards <= rewardsExcluded) {\r\n      return 0;\r\n    }\r\n\r\n    return earnedRewards.sub(rewardsExcluded);\r\n  }\r\n\r\n  function getCumulativeRewards(uint256 share) internal view returns (uint256) {\r\n    return share.mul(rewardsPerShare).div(ACC_FACTOR);\r\n  }\r\n\r\n  function getBaseShares(address user) external view returns (uint256) {\r\n    return shares[user].amountBase;\r\n  }\r\n\r\n  function getShares(address user) external view override returns (uint256) {\r\n    return shares[user].amount;\r\n  }\r\n\r\n  function getBoostNfts(address user)\r\n    public\r\n    view\r\n    override\r\n    returns (uint256[] memory)\r\n  {\r\n    return shares[user].nftBoostTokenIds;\r\n  }\r\n\r\n  function setShareholderToken(address _token) external onlyOwner {\r\n    shareholderToken = _token;\r\n  }\r\n\r\n  function setMinSecondsBeforeUnstake(uint256 _seconds) external onlyOwner {\r\n    minSecondsBeforeUnstake = _seconds;\r\n  }\r\n\r\n  function setNftBoosterToken(address _nft) external onlyOwner {\r\n    nftBoosterToken = _nft;\r\n  }\r\n\r\n  function setNftBoostPercentage(uint256 _percentage) external onlyOwner {\r\n    nftBoostPercentage = _percentage;\r\n  }\r\n\r\n  function setMaxNftsToBoost(uint256 _amount) external onlyOwner {\r\n    maxNftsCanBoost = _amount;\r\n  }\r\n\r\n  receive() external payable {}\r\n}\r\n",
  "sourcePath": "D:\\Working\\Freelancing\\6.heal\\Project\\heal\\contracts\\RewardsDistributor.sol",
  "compiler": {
    "name": "solc",
    "version": "0.8.4+commit.c7e474f2.Emscripten.clang"
  },
  "schemaVersion": "3.4.4",
  "updatedAt": "2022-03-16T05:04:38.334Z",
  "networkType": "ethereum",
  "devdoc": {
    "kind": "dev",
    "methods": {
      "owner()": {
        "details": "Returns the address of the current owner."
      },
      "renounceOwnership()": {
        "details": "Leaves the contract without owner. It will not be possible to call `onlyOwner` functions anymore. Can only be called by the current owner. NOTE: Renouncing ownership will leave the contract without an owner, thereby removing any functionality that is only available to the owner."
      },
      "transferOwnership(address)": {
        "details": "Transfers ownership of the contract to a new account (`newOwner`). Can only be called by the current owner."
      }
    },
    "version": 1
  },
  "userdoc": {
    "kind": "user",
    "methods": {},
    "version": 1
  }
}